:100000000C94BA000C94E2000C94E2000C94E20010
:100010000C94E2000C94E2000C94BD060C94E200F7
:100020000C94E2000C94E2000C94E2000C94E200C8
:100030000C94E2000C94E2000C947A070C942908CA
:100040000C94E2000C94E2000C94E2000C94E200A8
:100050000C944E060C94E2000C94E2000C94E20026
:100060000C9473060C94E2000C9408070C94E206BE
:100070000C94E2000C9404060C94E2000C94E20050
:100080000C94E2000C94E2000C9498060C9429065F
:100090000C94E5110C9454070C942E070C94E20078
:1000A000084AD73B3BCE016E84BCBFFDC12F3D6CDF
:1000B00074319ABD56833DDA3D00C77F11BED9E445
:1000C000BB4C3E916BAAAABE000000803F0000001E
:1000D0000003000102000001010000000000000018
:1000E0000000000000000000000000000000000010
:1000F00000000000000000050400050602040103E2
:1001000000010001020001020304050203030504CB
:1001100006050406070307000102020300010706A3
:1001200002020005020105000401010404040303A6
:1001300003030303000002000003010100000102A9
:1001400002020205050505030520100120400410E8
:100150000208010201020401020408102004080838
:100160002010402010408008800102040408010291
:100170008040871911241FBECFEFCDBFDFE3DEBF64
:1001800018E2A0E0B8E2E4E2FCE302C005900D92C0
:10019000A630B107D9F72BE2A6E0B8E201C01D9264
:1001A000A438B207E1F710E0CAEBD0E004C0219711
:1001B000FE010E94501DC93BD107C9F70E94491298
:1001C0000C946A1D0C940000CF92DF92EF92FF9284
:1001D0000F931F93CF93DF936C017A018B01C0E0E3
:1001E000D0E0CE15DF0581F0D8016D918D01D601EB
:1001F000ED91FC910190F081E02DC6010995892BCC
:1002000011F02196EECF7E01C701DF91CF911F91B2
:100210000F91FF90EF90DF90CF900895EF92FF92B3
:100220000F931F93CF93DF93863030F490E2899F32
:10023000E0011124DC5F02C0C0E0D0E0E984182FA7
:10024000110F110F110FFF24F39400E08E2D8F2159
:1002500079F0E12FE00FF0E0EE0FFF1FE35DF64DC8
:1002600080819181892B21F00190F081E02D099509
:100270000F5FFF0C083051F7E986DF91CF911F9196
:100280000F91FF90EF900895FC0154894589252F27
:1002900030E0842F90E0821B930B541710F0CF9620
:1002A000089501970895FC0192898389981761F058
:1002B0008389DF01A80FB11D59968C9193899F5FA7
:1002C0009F73938B90E008958FEF9FEF0895FC014B
:1002D00092898389981731F08389E80FF11D818D08
:1002E00090E008958FEF9FEF0895FC019289238994
:1002F000892F90E0805C9F4F821B91098F73992713
:10030000089584ED99E20E94750121E0892B09F49A
:1003100020E0822F08958DE69AE20E94750121E087
:10032000892B09F420E0822F0895CF93DF93EC010D
:10033000E881F9810284F385E02D0995EC85FD853E
:1003400086818F738683EC85FD8585818F75858396
:100350008B898A8B198ADF91CF910895CF93DF9390
:10036000FC0194898589A485B585981307C01596E5
:100370008C9115978F7D15968C932CC08589EF01F4
:10038000C80FD11DC75ADF4F2881858990E001969B
:100390008F739927858B80E414968C93A485B585FB
:1003A00012962C93A485B58514968C91149785FF8D
:1003B000FBCF9489858998130DC015968C9115975C
:1003C0008F7D15968C938789882321F0808D80936B
:1003D0001301178ADF91CF910895EF92FF920F9347
:1003E0001F93CF93DF93FC0181E0818B94898589F2
:1003F000981307C0A485B58514968C91149785FD34
:100400002EC08091110180FF08C080911301808F60
:1004100086898093130181E0878BF62EEF01048992
:1004200010E00F5F1F4F0F731127E02E8D89E81228
:1004300009C00FB607FE29C0EC85FD85858185FDC5
:10044000F5CF23C08C89FE01E80FF11DE75AFF4F5D
:10045000F0820C8BEC85FD85858180620CC0129644
:100460006C93A485B58580E414968C930484F585FB
:10047000E02D85818F7D858381E090E0DF91CF91B4
:100480001F910F91FF90EF900895CE010E94AE0151
:10049000CDCFCF93DF93FC0121892223F9F0EC012A
:1004A0008091110180FF08C080911301808F86899F
:1004B0008093130181E0878BEC85FD85858185FD27
:1004C00003C0848186FD0AC00FB607FE03C0858184
:1004D00085FDF4CFCE010E94AE01EECFDF91CF912A
:1004E000089580E090E0892B21F00E948B0181111A
:1004F00015C080E090E0892B21F00E9481018111DC
:1005000010C080E090E0892B89F080E090E0892B9A
:1005100069F00E940000811107C008950E94000048
:10052000E8CF0E940000EDCF0C940000089581E018
:1005300008950F9391E090932C2910922B296093AA
:10054000292970932A29409328292093272910923A
:1005500026291092252900932429880F8093232986
:1005600023E030E044E050E080912829811114C05C
:1005700080912729882341F04093212950932229F3
:100580008091232981600FC08091282981110DC09D
:1005900080912729811109C0209321293093222994
:1005A000809123298E7F8093A70880912B2988230F
:1005B000E1F380912B298330B9F280912729882398
:1005C00019F08091252906C090912B2981E0913066
:1005D00009F480E00F910895E0EAF8E091859066D3
:1005E000918722E030E020932129309322298093C3
:1005F000132910921229089581E0809312291092F4
:10060000132993E09093AA089091AB0891FF0CC036
:1006100010921F29E0911029F091112909958093DA
:100620001E2985E090E006C01092202980931D29A4
:1006300086E090E080932129909322290895609389
:100640000E2970930F29089560930C2970930D293A
:100650000895E0910E29F0910F29309741F0109202
:100660000B2910920A29099580910A29089580E0A2
:100670000895E0910C29F0910D29309759F03091AF
:10068000092920910829321728F01092092980930E
:100690000829099408950895E0910929809108296D
:1006A000E81730F4F0E0E857F74D808190E00895C6
:1006B0008FEF9FEF0895909109298091082998174D
:1006C00050F4E92FF0E0E857F74D208130E09F5FCC
:1006D0009093092902C02FEF3FEFC901089580913F
:1006E000082990E020910929821B91090895CF9251
:1006F000DF92EF92FF920F931F93CF93DF937C01D2
:100700008A01EB016B01C40ED51ECC15DD0551F03D
:100710006991D701ED91FC910190F081E02DC70125
:100720000995F3CFC801DF91CF911F910F91FF90F1
:10073000EF90DF90CF90089520910A2927FF08C0FD
:1007400021E030E0FC012283338380E090E00895D3
:1007500080910B29E82FF0E0E85FF74D60838F5F11
:1007600080930B2980930A2981E090E00895DC01B1
:10077000ED91FC910688F789E02D61E009940F93D3
:100780008091212990912229019779F480912C2937
:1007900081110DC0062F20E040910A2968E078E21F
:1007A000809107280E94990203C080E001C081E087
:1007B00010920B2910920A290F910895609307282F
:1007C00010920B2910920A290895DC01ED91FC91F9
:1007D000028CF38DE02D21E009940F9388E898E2D4
:1007E0008093142990931529809121299091222991
:1007F000019799F480912C29811111C0FA01413897
:10080000510510F0E0E8F0E0022F862F2E2F40E097
:1008100060E070E00E94990203C080E001C081E0C6
:1008200010920929809308290F9108958F929F9221
:10083000AF92BF92CF92DF92EF92FF92CF93DF936E
:1008400040348DE0580783E068077105D0F041150A
:1008500085E358078CE06807710560F040385F4415
:100860006241710570F4C8E7D0E020E432E44FE063
:1008700050E00DC0CCE2D1E020E83AE146E050E0A3
:1008800006C0C8EED3E020EA36E841E050E08090B0
:10089000002890900128A0900228B0900328C5015C
:1008A000B4010E94FC1C69017A018AE0C81AD108CF
:1008B000E108F108DE01A50194010E943D1D20E040
:1008C0003AEC4AE95BE30E94FC1CC21AD30AE40A30
:1008D000F50AF694E794D794C794C092A608DF91DE
:1008E000CF91FF90EF90DF90CF90BF90AF909F900F
:1008F0008F900895E0EAF8E01382168281E0858304
:10090000148611861092212910922229089510929E
:1009100009291092082910920B2910920A29809116
:10092000212990912229892BD9F482E090E08093AB
:100930002129909322291092202910921F29109288
:100940001229109213291092062810921D29660F61
:100950006093AC0881EE8093A90881E08093A3089E
:1009600089E293E0809310299093112988E098E21E
:10097000809316299093172989E393E080931B298C
:1009800090931C2988E898E280931829909319295C
:1009900080E880931A2908958F929F92AF92BF9218
:1009A000CF92DF92EF92FF921092092910920829BC
:1009B00010920B2910920A298091212990912229C5
:1009C000892B09F045C08091E3058093E30581E020
:1009D00090E080932129909322291092252910924A
:1009E000262910922C2910922B2981EC8093A308A0
:1009F0008090002890900128A0900228B0900328B1
:100A0000C501B40120EA36E841E050E00E94FC1C38
:100A100069017A018AE0C81AD108E108F108A8EE54
:100A2000B3E0A50194010E943D1D20E03AEC4AE9A3
:100A30005BE30E94FC1CC21AD30AE40AF50AF6948E
:100A4000E794D794C794C092A60881E08093A50844
:100A5000FF90EF90DF90CF90BF90AF909F908F90DE
:100A60000895DC01ED91FC910684F785E02D23E0EB
:100A700030E009940E94651D8F929F92AF92BF92C1
:100A8000EF92FF920F931F93CF93DF93EC014A01F4
:100A90005B01E22E8989882339F0E881F981008899
:100AA000F189E02DCE01099598898091E205892B85
:100AB0008093E205FFB6F894809100289091012878
:100AC000A0910228B0910328BC01CD0123E0660F5C
:100AD000771F881F991F2A95D1F7A50194010E94BD
:100AE000FC1C49015A018FEF881A980AA80AB80A13
:100AF000B694A79497948794EC85FD8586818D7F25
:100B00008683EC85FD8586818683198A8E8562E0E1
:100B100070E00E94EF0D8F8561E070E00E94A40DEF
:100B20008F8561E070E00E94EF0D80912311E82F26
:100B3000880FFF0BDF01BC5FA50194010E94481DD7
:100B40000C851D85AF01F7FF03C0519541955109F3
:100B500020E034E0241B350B032E000C440B550B16
:100B60000E941E1DF80120873187EC85FD85E782F4
:100B7000EC85FD858681806C8683EC85FD8585818D
:100B800080688583FFBEDF91CF911F910F91FF9009
:100B9000EF90BF90AF909F908F900895CF93E3E533
:100BA000F1E0C491CF3FD9F08AE00E94760DEAE2ED
:100BB000F1E0A49180E2A89FD0011124BC5F1896B7
:100BC000EC91EC2361F08091B2299091B329A0912E
:100BD000B429B091B5290197A109B1090BC0809141
:100BE000B2299091B329A091B429B091B529019669
:100BF000A11DB11D8093B2299093B329A093B4296C
:100C0000B093B529CF9108951F920F920FB60F920E
:100C100011242F933F934F935F936F937F938F9301
:100C20009F93AF93BF93EF93FF9385E00E940E01D4
:100C3000FF91EF91BF91AF919F918F917F916F91B4
:100C40005F914F913F912F910F900FBE0F901F908A
:100C500018951F920F920FB60F9211242F933F9366
:100C60004F935F936F937F938F939F93AF93BF93B4
:100C7000EF93FF9384E00E940E01FF91EF91BF91EB
:100C8000AF919F918F917F916F915F914F913F9124
:100C90002F910F900FBE0F901F9018951F920F92DB
:100CA0000FB60F9211242F933F934F935F936F933F
:100CB0007F938F939F93AF93BF93EF93FF9383E0C3
:100CC0000E940E01FF91EF91BF91AF919F918F9183
:100CD0007F916F915F914F913F912F910F900FBE38
:100CE0000F901F9018951F920F920FB60F9211241C
:100CF0002F933F934F935F936F937F938F939F9324
:100D0000AF93BF93EF93FF9382E00E940E01FF9198
:100D1000EF91BF91AF919F918F917F916F915F9173
:100D20004F913F912F910F900FBE0F901F901895EC
:100D30001F920F920FB60F9211242F933F934F9350
:100D40005F936F937F938F939F93AF93BF93EF9333
:100D5000FF9381E00E940E01FF91EF91BF91AF914F
:100D60009F918F917F916F915F914F913F912F91C3
:100D70000F900FBE0F901F9018951F920F920FB6F5
:100D80000F9211242F933F934F935F936F937F9311
:100D90008F939F93AF93BF93EF93FF9380E00E9455
:100DA0000E01FF91EF91BF91AF919F918F917F9134
:100DB0006F915F914F913F912F910F900FBE0F90C8
:100DC0001F9018951F920F920FB60F9211242F9318
:100DD0003F934F935F936F937F938F939F93AF93C3
:100DE000BF93EF93FF9384ED99E20E94AE01FF91D0
:100DF000EF91BF91AF919F918F917F916F915F9193
:100E00004F913F912F910F900FBE0F901F9018950B
:100E10001F920F920FB60F9211242F933F934F936F
:100E20005F936F937F938F939F93AF93BF93EF9352
:100E3000FF9384ED99E20E945D0DFF91EF91BF91C8
:100E4000AF919F918F917F916F915F914F913F9162
:100E50002F910F900FBE0F901F9018951F920F9219
:100E60000FB60F9211242F933F934F935F936F937D
:100E70007F938F939F93AF93BF93EF93FF938DE6F1
:100E80009AE20E94AE01FF91EF91BF91AF919F91C5
:100E90008F917F916F915F914F913F912F910F9023
:100EA0000FBE0F901F9018951F920F920FB60F92C2
:100EB00011242F933F934F935F936F937F938F935F
:100EC0009F93AF93BF93EF93FF938DE69AE20E94B7
:100ED0005D0DFF91EF91BF91AF919F918F917F91A8
:100EE0006F915F914F913F912F910F900FBE0F9097
:100EF0001F9018951F920F920FB60F9211242F93E7
:100F00003F934F935F936F937F938F939F93AF9391
:100F1000BF93CF93EF93FF93C091AB08C2FF08C07C
:100F20001092202910921F2910921E2984E07DC062
:100F3000C6FF1EC080911D29813051F48091202967
:100F4000E0911B29F0911C2990E0099510921D2930
:100F5000C0FF03C00E94FC026AC080E48093AB081B
:100F600081E00E94EC028091AB0885FF60C0F2CF67
:100F7000C7FF5AC0C3FF08C01092202910921F2932
:100F800010921E2983E051C08091A9088066809349
:100F9000A9088091AB0881FF28C080911F29882370
:100FA00049F08091AB0884FF05C082E08093AA08D5
:100FB00081E03BC090911F2980911E29981788F4E9
:100FC00080911F29E0911629F0911729E80FF11D52
:100FD00080818093AD0880911F298F5F80931F29A6
:100FE0001AC082E08093AA0820C0909120298091A5
:100FF0001A299817A0F48091AD0890912029E091CA
:101000001829F0911929E90FF11D80838091202979
:101010008F5F8093202983E08093AA0808C086E030
:101020008093AA0882E001C085E00E94EC02FF9153
:10103000EF91CF91BF91AF919F918F917F916F91E0
:101040005F914F913F912F910F900FBE0F901F9086
:1010500018951F920F920FB60F9211242F938F9312
:101060009F93EF93FF938091A508982F9C70A1F018
:101070008091A50882FF02C094E001C093E09093A4
:101080002B298093A50881E090E0809321299093FB
:10109000222910922C2991C086FF40C02091282936
:1010A000909127298091A50884FF0BC08091242965
:1010B000882311F083E001C081E08093A40885E0DB
:1010C00072C080912629821788F480912629E091A8
:1010D0002929F0912A29E80FF11D80818093A80821
:1010E000809126298F5F8093262967C080912529CA
:1010F000891760F484E090E080932129909322295D
:101100008091232981608093A70857C0809124296A
:10111000882311F083E042C081E040C087FF42C0D5
:1011200090912529809127299817D0F48091A808BB
:1011300090912529E0911429F0911529E90FF11DCD
:101140008083809125298F5F80932529909127297D
:10115000809125298917D8F482E08093A4082DC0B6
:1011600080912429882311F087E001C085E08093D5
:10117000A40882E080932B2910922C2981E090E032
:1011800080932129909322291092272916C08091BB
:101190002429882311F087E001C085E08093A4080A
:1011A00081E001C086E080932B2910922C2981E0F8
:1011B00090E08093212990932229FF91EF919F91B4
:1011C0008F912F910F900FBE0F901F9018958F92B7
:1011D0009F92AF92BF92CF92DF92EF92FF92609375
:1011E000A2297093A3298093A4299093A5296093A1
:1011F0009129709392298093932990939429C09078
:101200008D29D0908E29E0908F29F0909029C0925E
:101210009D29D0929E29E0929F29F092A02980904A
:10122000992990909A29A0909B29B0909C29A5017A
:101230009401C701B6010E94511C181684F08090D9
:10124000952990909629A0909729B0909829A5016A
:101250009401C701B6010E94CB1A87FF08C0809293
:101260009D2990929E29A0929F29B092A029FF903B
:10127000EF90DF90CF90BF90AF909F908F900895A8
:101280004F925F926F927F928F929F92AF92BF9296
:10129000CF92DF92EF92FF920F931F932B013C01AD
:1012A00049015A016701780120E030E0A9010E945C
:1012B000CB1A87FD3AC020E030E0A901C501B40196
:1012C0000E94CB1A87FD31C020E030E0A901C701A0
:1012D000B6010E94CB1A87FD28C04092A6295092E1
:1012E000A7296092A8297092A9292DEC3CEC4CE426
:1012F0005DE3C501B4010E945E1C6093AA2970934E
:10130000AB298093AC299093AD292DEC3CEC4CE4B7
:101310005DE3C701B6010E94D01A6093AE297093B5
:10132000AF298093B0299093B1291F910F91FF901D
:10133000EF90DF90CF90BF90AF909F908F907F9075
:101340006F905F904F900895CF93DF93EC0197FFDC
:1013500009C060E070E084E00E94A40DD195C195C1
:10136000D1090AC061E070E084E00E94A40D2097DA
:1013700019F460E070E080C0C630D1051CF460E074
:1013800070E083C0CB30D1051CF460E070E086C013
:10139000C031D1051CF460E070E089C0C531D105D1
:1013A0001CF460E070E08CC0C931D1051CF460E031
:1013B00070E08FC0CE31D10594F460E070E08EE033
:1013C0000E94A40D60E070E08FE00E94A40D61E037
:1013D00070E080E10E94A40D61E070E0CDC0C332F6
:1013E000D1051CF460E070E081C0C732D1056CF417
:1013F00060E070E08EE00E94A40D61E070E08FE09C
:101400000E94A40D60E070E0B2C0CC32D1051CF4A3
:1014100060E070E078C0C033D1051CF460E070E09B
:1014200080C0C433D1051CF460E070E088C0C933CB
:10143000D10524F460E070E08EE090C0CD33D1059A
:1014400024F460E070E08EE0A0C0C034D10544F424
:1014500060E070E08EE00E94A40D61E070E0B4CF27
:10146000C434D10524F460E070E08EE09DC061E0FA
:1014700070E0C834D10534F48EE00E94A40D60E021
:1014800070E0BDCFCB34D10534F48EE00E94A40DC2
:1014900060E070E03DC0CE34D10534F48EE00E94AF
:1014A000A40D60E070E042C0C135D10534F48EE097
:1014B0000E94A40D60E070E047C0C435D10534F44B
:1014C0008EE00E94A40D60E070E04CC0C735D105ED
:1014D00034F48EE00E94A40D60E070E05AC0C9357B
:1014E000D1050CF46CCFCB35D10534F48EE00E94DD
:1014F000A40D60E070E05CC0CD35D1050CF47ACF6E
:10150000CF35D1055CF48EE00E94A40D61E070E05F
:101510008FE00E94A40D60E070E040C0C136D105AC
:101520005CF48EE00E94A40D61E070E08FE00E9408
:10153000A40D60E070E04DCFC136D10559F48EE0C6
:101540000E94A40D61E070E08FE00E94A40D60E0B5
:1015500070E033C08EE0C236D105A1F40E94A40D24
:1015600061E070E08FE00E94A40D61E070E080E136
:101570000E94A40D60E070E081E10E94A40D60E093
:1015800070E025C0C336D10579F40E94A40D61E056
:1015900070E08FE00E94A40D61E070E080E10E94A5
:1015A000A40D60E070E00EC00E94A40D61E070E048
:1015B0008FE00E94A40D61E070E080E10E94A40D24
:1015C00061E070E081E10E94A40D61E070E082E1E1
:1015D000DF91CF910C94A40D8F929F92AF92BF9206
:1015E000CF92DF92EF92FF9249015A010E947A1B3B
:1015F00020E030E040E85DE30E945E1C20E030E047
:1016000040EF51E40E94D01A20E030E040E450E482
:101610000E94D01A9B01AC010E94ED192BED3FE016
:1016200049E450E40E945E1C20E030E040EA50E4CF
:101630000E945E1C6B017C0120E030E040EA50E437
:10164000C501B4010E945E1C2BED3FE049E450E46B
:101650000E945E1C20E030E044E353E40E94D01A74
:101660009B01AC01C701B6010E94EC19FF90EF90FD
:10167000DF90CF90BF90AF909F908F9008950F9381
:101680001F9380E090E00E94A40960E070E089E090
:101690000E94A40D6091B2297091B3298091B42960
:1016A0009091B5290091622B1091632B2091642BAE
:1016B0003091652BA901980150580E94EC0A2091A5
:1016C000A12921110E94E7081092A1291092042853
:1016D0001F910F910895CF93DF938FB7F8942091C6
:1016E000D0293091D1294091D2295091D329E0912C
:1016F000BA0A9091B60A90FF06C02F5F3F4F4F4F36
:101700005F4FE091BA0A8FBFA091CE29B091CF2947
:10171000C091CC29D091CD290E943D1DEC9F900114
:10172000ED9F300D1124620F731F811D911DDF91FC
:10173000CF9108956115710551F0FB0101900020D2
:10174000E9F73197AF01461B570B0C94E40080E09A
:1017500090E008958F929F92AF92BF92EF92FF9286
:101760000F931F93CF93DF93CDB7DEB7A197CDBF74
:10177000DEBF7C01FA01CB0119A2223008F42AE075
:101780008E010F5D1F4F822E912CA12CB12CBF0119
:10179000A50194010E94FC1CF901CA010150110924
:1017A0006A3014F4605D01C0695CD8016C93232B2E
:1017B000242B252B61F7B801C7010E949A0BA19633
:1017C000CDBFDEBFDF91CF911F910F91FF90EF90C2
:1017D000BF90AF909F908F9008950C949A0BCF93E9
:1017E000DF93BC018DE69AE20E949A0BEC016AE15C
:1017F0007BE78DE69AE20E949A0B8C0F9D1FDF918A
:10180000CF9108957F928F929F92AF92BF92CF9285
:10181000DF92EF92FF920F931F93CF93DF938C0190
:101820006A017B01722E9A01AB01C701B6010E94C9
:10183000CF1C882319F068E17CE727C046015701D7
:10184000E894B7F82FEF3FEF4FE75FE7C501B4012A
:101850000E94CF1C81110DC02FEF3FEF4FE75FE7D4
:10186000C501B4010E94CB1A18161CF46CE17CE788
:101870000CC02FEF3FEF4FE75FE4C701B6010E94B6
:10188000511C181694F460E27CE7C801DF91CF91F7
:101890001F910F91FF90EF90DF90CF90BF90AF908E
:1018A0009F908F907F900C949A0B2FEF3FEF4FE714
:1018B0005FECC701B6010E94CB1A87FDE4CF20E0A0
:1018C00030E0A901C701B6010E94CB1A87FF0AC008
:1018D0006DE2C8010E94ED01EC01F7FAF094F7F80F
:1018E000F09402C0C0E0D0E0B12C60E070E080E095
:1018F0009FE37B1441F020E030E040E251E40E949D
:10190000D01AB394F6CFA70196010E94ED196B018E
:101910007C010E94491B4B015C012AE0AB01BC0128
:10192000C8010E94AA0BC80FD91F7720C9F1C501B1
:10193000B4010E94781B9B01AC01C701B6010E9453
:10194000EC196B017C0163E77BE7C8010E949A0BED
:10195000C80FD91F20E030E040E251E4C701B601D2
:101960000E945E1C4B015C010E94491B6B01E12C33
:10197000F12C2AE0B701A601C8010E94AA0BC80FEA
:10198000D91FC701B6010E94781B9B01AC01C5019C
:10199000B4010E94EC196B017C017A947110DACFCA
:1019A000CE01DF91CF911F910F91FF90EF90DF90CB
:1019B000CF90BF90AF909F908F907F900895CF93DE
:1019C000DF93AB01BC0122E08DE69AE20E94020C9B
:1019D000EC016AE17BE78DE69AE20E949A0B8C0F9C
:1019E0009D1FDF91CF910895DC01ED91FC9104885A
:1019F000F589E02D68E609940F931F93CF93DF9349
:101A0000082F162FC2E1DBE2888199810E94F40C35
:101A100088819981DC01ED91FC910190F081E02DAC
:101A2000602F099588819981DC01ED91FC910190ED
:101A3000F081E02D612F099588819981DC01ED917C
:101A4000FC91008CF18DE02DDF91CF911F910F91D2
:101A50000994CF92DF92EF92FF92CF93DF936C01C4
:101A6000990FEE08FF08F7FE1BC06DE284ED99E2C6
:101A70000E94ED01EC0144275527BA014C195D097C
:101A80006E097F092AE084ED99E20E94AA0B8C0F6F
:101A90009D1FDF91CF91FF90EF90DF90CF90089541
:101AA0002AE0B701A60184ED99E2DF91CF91FF9082
:101AB000EF90DF90CF900C94AA0BFC01A485B58524
:101AC00011968C91119781FD0FC09C9182898F5F37
:101AD0008F732389821749F02289DF01A20FB11D7C
:101AE00059969C93828B08958C910895893258F56C
:101AF00090E0FC01E253FF4FE491EE2321F1E1304D
:101B000021F008F1E630B0F00895FC01E950FF4FF4
:101B100084914091010A8C5F21E030E0B90102C05C
:101B2000660F771F8A95E2F7CB0180958423809317
:101B3000010A089570E1E79FF0011124E05AF54F82
:101B400081818F7E81830895FF920F931F93CF939E
:101B5000DF93893208F03DC0082F10E0F801E75B01
:101B6000FE4FF4909FEFF916A1F1EB010E94760D64
:101B7000F801E05EFE4FA49180E2A89FD0011124FD
:101B8000BC5F8C918F2169F0209719F41696FC9216
:101B900020C0229719F41796FC921BC01596FC9250
:101BA00018C0F801E950FF4FE491109731F0EF3F72
:101BB00021F05096AE0FB11D02C0A0E0B0E09FB77B
:101BC000F8948C91CD2B11F4877F01C088608C93A1
:101BD0009FBFDF91CF911F910F91FF900895CF93F9
:101BE000DF93893298F590E0FC01E75BFE4F24918A
:101BF0002F3F61F16330710548F5FC01E05EFE4F57
:101C0000A49130E2A39FD0011124BC5F6130710523
:101C100019F411962C931AC0FC01E950FF4F8491DE
:101C20008F3F29F0ED016096C80FD11D02C0C0E0C2
:101C3000D0E09FB7F89412962C938881623071059A
:101C400011F4886001C0877F88839FBFDF91CF91A7
:101C500008958F929F92AF92BF92CF92DF92EF92B0
:101C6000FF924B015C010E946B0B6B017C01A8EEA3
:101C7000B3E0A50194010E943D1DC60ED71EE81ECB
:101C8000F91EC616D706E806F90638F40E946B0B53
:101C9000C616D706E806F906C8F30E946B0B6C154A
:101CA0007D058E059F05C8F3FF90EF90DF90CF90E4
:101CB000BF90AF909F908F9008952FB7F894609148
:101CC000C8297091C9298091CA299091CB292FBF29
:101CD00008954F925F926F927F928F929F92AF92F0
:101CE000BF92CF92DF92EF92FF92CF93DF93CDB767
:101CF000DEB72897CDBFDEBF8091122B9091132BBA
:101D00000E94F40C8091122B9091132BDC01ED9129
:101D1000FC910190F081E02D6BE309958091122BED
:101D20009091132BDC01ED91FC910688F789E02D51
:101D300060E009958091122B9091132BDC01ED91BD
:101D4000FC91028CF38DE02D21E04EE050E068E63E
:101D500009958091122B9091132BDC01ED91FC9150
:101D60000680F781E02D0995F82E8091122B909135
:101D7000132BDC01ED91FC910680F781E02D099594
:101D800020E030E03F2D822B932B8093142B9093F7
:101D9000152B8091122B9091132BDC01ED91FC916E
:101DA0000680F781E02D0995F82E8091122B9091F5
:101DB000132BDC01ED91FC910680F781E02D099554
:101DC00020E030E03F2D822B932B8093162B9093B5
:101DD000172B8091122B9091132BDC01ED91FC912C
:101DE0000680F781E02D0995F82E8091122B9091B5
:101DF000132BDC01ED91FC910680F781E02D099514
:101E000020E030E03F2D822B932B8093182B909372
:101E1000192B8091122B9091132BDC01ED91FC91E9
:101E20000680F781E02D0995F82E8091122B909174
:101E3000132BDC01ED91FC910680F781E02D0995D3
:101E400020E030E03F2D822B932B80931A2B909330
:101E50001B2B8091122B9091132BDC01ED91FC91A7
:101E60000680F781E02D0995F82E8091122B909134
:101E7000132BDC01ED91FC910680F781E02D099593
:101E800020E030E03F2D822B932B80931C2B9093EE
:101E90001D2B8091122B9091132BDC01ED91FC9165
:101EA0000680F781E02D0995F82E8091122B9091F4
:101EB000132BDC01ED91FC910680F781E02D099553
:101EC00020E030E03F2D822B932B80931E2B9093AC
:101ED0001F2B8091122B9091132BDC01ED91FC9123
:101EE0000680F781E02D0995D82E8091122B9091D4
:101EF000132BDC01ED91FC910680F781E02D099513
:101F0000E12CF12CFD2C8E299F2989839A838093C3
:101F1000202B9093212B60911A2B70911B2B072E55
:101F2000000C880B990B0E947A1B20E030EF41E4F3
:101F300056E40E94ED1920E030E04AEA53E40E94A2
:101F4000D01A60932E2B70932F2B8093302B90936D
:101F5000312B6091142B7091152B072E000C880BE0
:101F6000990B0E947A1B20E030E040E858E30E9481
:101F70005E1C4B015C016093322B7093332B80937A
:101F8000342B9093352B6091162B7091172B072EC5
:101F9000000C880B990B0E947A1B20E030E040E88F
:101FA00058E30E945E1C6B017C016093362B70939A
:101FB000372B8093382B9093392B6091182B70918D
:101FC000192B072E000C880B990B0E947A1B20E01E
:101FD00030E040E858E30E945E1C2B013C01609316
:101FE0003A2B70933B2B80933C2B90933D2BC50158
:101FF000B4010E94421B9B0177FF04C022273327B4
:10200000261B370BB901330F880B990B0E947A1BE3
:10201000A30192010E94ED199B01AC01C701B60119
:102020000E946C1A20E030E044EB53E40E945E1CF6
:1020300020E030E040E05FE30E945E1C2BED3FE0DB
:1020400049E450E40E94D01A6093562B7093572BAA
:102050008093582B9093592BC701B6010E94421BC5
:102060009B0177FF04C022273327261B370BB901BA
:10207000330F880B990B0E947A1BA30192010E94D7
:10208000ED199B01AC01C501B4010E946C1A20E05E
:1020900030E044EB53E40E945E1C20E030E040E07E
:1020A0005FEB0E945E1C2BED3FE049E450E40E9490
:1020B000D01A60935A2B70935B2B80935C2B909378
:1020C0005D2B60911E2B70911F2B072E000C880B2F
:1020D000990B0E947A1B20E030E043E852E40E9412
:1020E000D01A4B015C0160911C2B70911D2B072EA7
:1020F000000C880B990B0E947A1B20E030E043E82B
:1021000052E40E94D01A2091222B3091232B40912F
:10211000242B5091252B0E94EC1960933E2B709339
:102120003F2B8093402B9093412B2091262B309175
:10213000272B4091282B5091292BC501B4010E94D7
:10214000EC196093422B7093432B8093442B909314
:10215000452B29813A81B901330F880B990B0E94D5
:102160007A1B20E030E043E852E40E94D01A20912C
:102170002A2B30912B2B40912C2B50912D2B0E94F0
:10218000EC196093462B7093472B8093482B9093C8
:10219000492B0E945D0EC090722BD090732BE09063
:1021A000742BF090752B6C197D098E099F090E9484
:1021B000781B2FE632E143E85AE30E945E1C6B0174
:1021C0007C0160936E2B70936F2B8093702B909398
:1021D000712B20913E2B30913F2B4091402B509101
:1021E000412B0E945E1C2B013C019B01AC016091C4
:1021F0004A2B70914B2B80914C2B90914D2B0E9430
:10220000ED1960934A2B70934B2B80934C2B90933A
:102210004D2B2091422B3091432B4091442B5091D8
:10222000452BC701B6010E945E1C4B015C019B015E
:10223000AC0160914E2B70914F2B8091502B90915F
:10224000512B0E94ED1960934E2B70934F2B80936E
:10225000502B9093512B2091462B3091472B40913E
:10226000482B5091492BC701B6010E945E1C20915A
:10227000522B3091532B4091542B5091552B0E944F
:10228000ED196D837E838F8398876093522B7093B3
:10229000532B8093542B9093552BC0907A2BD09036
:1022A0007B2BE0907C2BF0907D2B8091762B909176
:1022B000772BA091782BB091792B89839A83AB836C
:1022C000BC832091622B3091632B4091642B509101
:1022D000652BC301B2010E94ED19A70196010E946E
:1022E0005E1C2B013C012091562B3091572B4091C5
:1022F000582B5091592B69817A818B819C810E9446
:102300005E1C9B01AC01C301B2010E94ED196093F8
:10231000622B7093632B8093642B9093652B209199
:10232000662B3091672B4091682B5091692BC5012A
:10233000B4010E94ED19A70196010E945E1C6B0179
:102340007C0120915A2B30915B2B40915C2B50915A
:102350005D2B69817A818B819C810E945E1C9B012F
:10236000AC01C701B6010E94ED196093662B709312
:10237000672B8093682B9093692B8D819E81AF8111
:10238000B88580936A2B90936B2BA0936C2BB093A2
:102390006D2B0E945D0E6093722B7093732B809354
:1023A000742B9093752B2896CDBFDEBFDF91CF9114
:1023B000FF90EF90DF90CF90BF90AF909F908F9065
:1023C0007F906F905F904F9008951F920F920FB67D
:1023D0000F9211242F933F934F935F936F937F93AB
:1023E0008F939F93AF93BF934091C8295091C92970
:1023F0006091CA297091CB292091822B3091832B37
:102400008091802B9091812B480F591F611D711D68
:1024100080917E2B90917F2B820F931F883E23E02B
:10242000920730F0885E93404F5F5F4F6F4F7F4F52
:102430008093822B9093832B4093C8295093C92972
:102440006093CA297093CB298091D0299091D1298A
:10245000A091D229B091D3290196A11DB11D8093DD
:10246000D0299093D129A093D229B093D32981E088
:102470008093B60ABF91AF919F918F917F916F9199
:102480005F914F913F912F910F900FBE0F901F9032
:102490001895CF93DF93CDB7DEB76397CDBFDEBF7F
:1024A00090E088ED84BF9093610080E094E2A4EF17
:1024B000B0E08093002890930128A0930228B09365
:1024C00003288091020686608093020680910006B0
:1024D000816080930006809102068F7C80930206C3
:1024E0008091A0008F788093A00080910206806187
:1024F000809302061092E20581E08093E40583E078
:102500008093010A8FEF90E08093260A9093270A28
:1025100080E890E08093380A9093390A80933A0AD1
:1025200090933B0A80933C0A90933D0A8BE0809302
:10253000000A8091E50581608093E5058091E505BD
:1025400082608093E505E0E8FAE037E02FEF90E85D
:1025500085E031832487958780837096E03C4AE04C
:10256000F407B9F780E094E08093CE299093CF29C7
:102570008091CE299091CF292FEF30E0B9010E94B0
:10258000D41C6093CC297093CD298091CE29909151
:10259000CF29E8EEF3E0BF010E94D41C6093802BAA
:1025A0007093812B8091CE299091CF29BF010E94F9
:1025B000D41C80937E2B90937F2B2093BC0A309366
:1025C000BD0A8091B50A81608093B50A84E080934A
:1025D000B00A8091B00A81608093B00A789461E07B
:1025E00070E08CE10E94EF0D61E070E08CE10E94F0
:1025F000A40D61E070E08DE10E94EF0D61E070E0FC
:102600008DE10E94A40D61E070E083E20E94EF0D75
:1026100061E070E083E20E94A40D61E070E08EE171
:102620000E94EF0D61E070E08EE10E94A40D61E078
:1026300070E084E00E94EF0D61E070E089E00E94AC
:10264000EF0D61E070E088E00E94EF0D61E070E066
:1026500087E00E94EF0D61E070E08EE00E94EF0DD8
:1026600061E070E08FE00E94EF0D61E070E080E1DA
:102670000E94EF0D61E070E081E10E94EF0D61E0EA
:1026800070E082E10E94EF0D60E070E082E00E9465
:10269000EF0D60E070E088E00E94A40D61E070E062
:1026A00087E00E94A40D8091C2299091C3290E94C5
:1026B000A40986E09BE20E94CC0460E089E10E94CC
:1026C000FC0C60E08AE10E94FC0C68E08BE10E9457
:1026D000FC0C60E08CE10E94FC0C61E08BE60E9447
:1026E000FC0C0E94690E10924A2B10924B2B1092F8
:1026F0004C2B10924D2B10924E2B10924F2B109270
:10270000502B1092512B8091562B9091572BA091CA
:10271000582BB091592B8093622B9093632BA093ED
:10272000642BB093652B80915A2B90915B2BA091D9
:102730005C2BB0915D2B8093662B9093672BA093BD
:10274000682BB093692B0E945D0E6093722B70937F
:10275000732B8093742B9093752B68EE73E080E05D
:1027600090E00E94290E6AE17BE78DE69AE20E94E2
:102770009A0B8DE19BE70E94EF0B86E49BE70E949A
:10278000EF0B6FE57BE78DE69AE20E94ED0B812C63
:10279000912C54012401350175016401212C312C47
:1027A000C10168EE73E00E94E81C892B31F463E7F5
:1027B0007BE78DE69AE20E94ED0B8091122B9091BF
:1027C000132B0E94F40C8091122B9091132BDC019F
:1027D000ED91FC910190F081E02D63E409958091E9
:1027E000122B9091132BDC01ED91FC910688F78957
:1027F000E02D60E009958091122B9091132BDC0164
:10280000ED91FC91028CF38DE02D21E046E050E04B
:1028100068E609958091122B9091132BDC01ED91C4
:10282000FC910680F781E02D09958F878091122B0E
:102830009091132BDC01ED91FC910680F781E02D46
:102840000995BF85BA83198229813A81282B392BB2
:102850002F87388B8091122B9091132BDC01ED91F7
:10286000FC910680F781E02D0995898B8091122BD0
:102870009091132BDC01ED91FC910680F781E02D06
:102880000995B989BA87198609851A85082B192BE4
:102890008091122B9091132BDC01ED91FC9106801D
:1028A000F781E02D0995898B8091122B9091132B44
:1028B000DC01ED91FC910680F781E02D09958A8B72
:1028C0009B8B2F853889B901330F880B990B0E9498
:1028D0007A1B20E030E043E852E40E94D01A9B01CA
:1028E000AC01C701B6010E94ED196B017C01B80172
:1028F000110F880B990B0E947A1B20E030E043E80F
:1029000052E40E94D01A9B01AC01C301B2010E94A3
:10291000ED192B013C0139893E871D866D857E8529
:102920008A899B89682B792B072E000C880B990BC1
:102930000E947A1B20E030E043E852E40E94D01A63
:102940009B01AC01C501B4010E94ED194B015C0172
:102950009FEF291A390AA8EB2A16ABE03A0609F0CC
:102960001FCF20E030E84BE355E4C701B6010E94D9
:10297000D01A6093222B7093232B8093242B909357
:10298000252B20E030E84BE355E4C301B2010E945F
:10299000D01A6093262B7093272B8093282B90932B
:1029A000292B20E030E84BE355E4C501B4010E9437
:1029B000D01A60932A2B70932B2B80932C2B9093FF
:1029C0002D2B6AE17BE78DE69AE20E949A0B85E760
:1029D0009BE70E94EF0B6BE77BE78DE69AE20E9494
:1029E000ED0B6091222B7091232B8091242B9091E1
:1029F000252B0E94DF0C60E87BE78DE69AE20E94BF
:102A0000ED0B6091262B7091272B8091282B9091B4
:102A1000292B0E94DF0C65E87BE78DE69AE20E9495
:102A2000ED0B60912A2B70912B2B80912C2B909188
:102A30002D2B0E94DF0C8AE89BE70E94EF0B6DE1D3
:102A40007BE78DE69AE20E94ED0B68EB7BE080E08D
:102A500090E00E94290E80E090E0A0EFB1E4809326
:102A6000A6299093A729A093A829B093A92980E02B
:102A700090E0A0E0BFE38093AA299093AB29A093B4
:102A8000AC29B093AD2980E090E0A8ECB2E480934B
:102A9000AE299093AF29A093B029B093B12940E01B
:102AA00050E068EC72EC409395295093962960931E
:102AB0009729709398298093992990939A29A093A4
:102AC0009B29B0939C2940E052EC61E070E084EDDA
:102AD00099E20E9431050E943F0B60E070E085E0C2
:102AE0000E94EF0D60E070E08AE00E94EF0DECEFD5
:102AF000F0E084918F3F11F1E5E2F1E09491A82F8D
:102B0000B8E09B9FA00D1124A033C0F4B0E0AA0F41
:102B1000BB1FA35DB64D2EEC35E02D933C93E491A5
:102B200020E2E29FF0011124FC5F7096E80FF11D96
:102B30008081887F80838081826080831092B22927
:102B40001092B3291092B4291092B52984ED99E21C
:102B50000E947501181619060CF0A6C184ED99E2C1
:102B60000E945301803779F52DEC3CEC4CE45DE399
:102B70006091AE297091AF298091B0299091B129CF
:102B80000E945E1C6B017C012DEC3CEC4CE45DE38F
:102B90006091AA297091AB298091AC299091AD29BF
:102BA0000E94D01A4B015C012DEC3CEC4CEC5DE337
:102BB0006091A6297091A7298091A8299091A929AF
:102BC0000E94ED1930C08F3699F52DEC3CEC4CE4A9
:102BD0005DE36091AE297091AF298091B029909109
:102BE000B1290E945E1C6B017C012DEC3CEC4CE495
:102BF0005DE36091AA297091AB298091AC299091F5
:102C0000AD290E94D01A4B015C012DEC3CEC4CEC40
:102C10005DE36091A6297091A7298091A8299091E0
:102C2000A9290E94EC1987017601A501940197C09A
:102C3000893629F52DEC3CEC4CE45DE36091AE293E
:102C40007091AF298091B0299091B1290E945E1CAA
:102C50006B017C012DEC3CEC4CE45DE36091AA2916
:102C60007091AB298091AC299091AD290E94D01A26
:102C70002DEC3CEC4CEC5DE30E94ED1964C0853713
:102C800029F52DEC3CEC4CE45DE36091AE297091AC
:102C9000AF298091B0299091B1290E945E1C6B01EF
:102CA0007C012DEC3CEC4CE45DE36091AA29709131
:102CB000AB298091AC299091AD290E94D01A2DECBE
:102CC0003CEC4CEC5DE30E94EC193DC08436A9F469
:102CD0002DEC3CEC4CE45DE36091AE297091AF29A2
:102CE0008091B0299091B1290E945E1C2DEC3CECA2
:102CF0004CEC5DE30E94ED1916C0863699F52DEC7B
:102D00003CEC4CE45DE36091AE297091AF29809179
:102D1000B0299091B1290E945E1C2DEC3CEC4CEC4A
:102D20005DE30E94EC196B017C012DEC3CEC4CE462
:102D30005DE36091AA297091AB298091AC299091B3
:102D4000AD290E94D01A9B01AC016091A629709117
:102D5000A7298091A8299091A929870176010E942D
:102D60004009A2C0803219F40E943F0B9DC08237F7
:102D700009F05AC06091B2297091B3298091B429A9
:102D80009091B5290091622B1091632B2091642BB7
:102D90003091652BA901980150580E94EC0A6B01F3
:102DA0007C0120E030E046E154E40E94511C1816FA
:102DB0006CF480E090E0A6E1B4E48093BA299093AB
:102DC000BB29A093BC29B093BD2908C0C092BA29E1
:102DD000D092BB29E092BC29F092BD2961E070E05D
:102DE00089E00E94A40D6091B2297091B32980916D
:102DF000B4299091B5290091622B1091632B2091F9
:102E0000642B3091652BA901980150580E94EC0A5F
:102E10002091A129211102C00E94E70831E03093DE
:102E2000A1293093042840C0833779F420E030E0B2
:102E300040E85FE36091BA297091BB298091BC2979
:102E40009091BD290E94ED1910C0883769F520E0E6
:102E500030E040E85FE36091BA297091BB2980912E
:102E6000BC299091BD290E94EC196B017C0120E0E6
:102E700030E046E154E40E94511C18166CF480E0E6
:102E800090E0A6E1B4E48093BA299093BB29A09383
:102E9000BC29B093BD2908C0C092BA29D092BB29E1
:102EA000E092BC29F092BD296091B2297091B329BA
:102EB0008091B4299091B5290091622B1091632BD8
:102EC0002091642B3091652BA901980150580E94E4
:102ED000EC0A6093C4297093C5298093C629909306
:102EE000C7290E94690E8090C4299090C529A0909E
:102EF000C629B090C7298092A2299092A329A092B6
:102F0000A429B092A5298091A129882309F4F7C0AA
:102F10000E945D0E69837A838B839C838091B6299E
:102F20009091B729A981BA81A81BB90BD2970CF44B
:102F3000EAC0A50194016091BA297091BB298091E2
:102F4000BC299091BD290E94EC196D837E838F83EB
:102F500098872091AA293091AB294091AC295091B2
:102F6000AD290E945E1C20919D2930919E2940919F
:102F70009F295091A0290E94ED196B017C0160935B
:102F80009D2970939E2980939F299093A02940901A
:102F9000992950909A2960909B2970909C29A301AF
:102FA00092010E94511C18164CF440929D29509297
:102FB0009E2960929F297092A02920C08091952916
:102FC00090919629A0919729B091982989879A87FD
:102FD000AB87BC879C01AD01C701B6010E94CB1A2B
:102FE00087FF0CC089859A85AB85BC8580939D2918
:102FF00090939E29A0939F29B093A0292091A62960
:103000003091A7294091A8295091A9296D817E81ED
:103010008F8198850E945E1C20919D2930919E2968
:1030200040919F295091A0290E94ED196B017C01CC
:10303000209191293091922940919329509194297E
:10304000C501B4010E94EC192091AE293091AF293D
:103050004091B0295091B1290E945E1C9B01AC01A6
:10306000C701B6010E94EC196B017C0160938D29A8
:1030700070938E2980938F29909390299B01AC01A6
:10308000C301B2010E94CB1A87FD10C04090952960
:10309000509096296090972970909829A3019201E9
:1030A000C701B6010E94CB1A87FF08C040928D2944
:1030B00050928E2960928F29709290298092912946
:1030C00090929229A0929329B092942989819A8111
:1030D000AB81BC818093B6299093B729A093B8297E
:1030E000B093B92980918D2990918E29A0918F2933
:1030F000B09190298D839E83AF83B88704C01D82D1
:103100001E821F8218866D817E818F8198850E9424
:10311000421B6093C2297093C329CB010E94A4096A
:103120000E945D0E0091BE291091BF292091C029F7
:103130003091C129AB01BC01401B510B620B730BD9
:103140004A3F51056105710508F4DEC0D901C80187
:1031500086509F4FAF4FBF4F8093BE299093BF299A
:10316000A093C029B093C1296DEA7BE784ED99E271
:103170000E94ED0B62EB7BE784ED99E20E94ED0B80
:103180008091C2299091C3290E94290D6AE17BE7B1
:1031900084ED99E20E94ED0B62EC7BE784ED99E20D
:1031A0000E94ED0B4091622B5091632B6091642B38
:1031B0007091652B705822E084ED99E20E94020C18
:1031C0006AE17BE784ED99E20E94ED0B6EEC7BE710
:1031D00084ED99E20E94ED0B4091C4295091C529DC
:1031E0006091C6297091C72922E084ED99E20E947E
:1031F000020C6AE17BE784ED99E20E94ED0B61EE3F
:103200007BE784ED99E20E94ED0B4091BA29509141
:10321000BB296091BC297091BD2922E084ED99E21F
:103220000E94020C6AE17BE784ED99E20E94ED0BBB
:1032300065EF7BE784ED99E20E94ED0B4091A629B2
:103240005091A7296091A8297091A92922E084EDC5
:1032500099E20E94020C6AE17BE784ED99E20E9408
:10326000ED0B6AEF7BE784ED99E20E94ED0B2DEC0C
:103270003CEC4CE45DE36091AA297091AB2980910C
:10328000AC299091AD290E94D01AAB01BC0122E07B
:1032900084ED99E20E94020C6AE17BE784ED99E2F9
:1032A0000E94ED0B6FEF7BE784ED99E20E94ED0B3E
:1032B0002DEC3CEC4CE45DE36091AE297091AF29BC
:1032C0008091B0299091B1290E945E1CAB01BC0194
:1032D00022E084ED99E20E94020C6AE17BE784ED32
:1032E00099E20E94ED0B64E07CE784ED99E20E9494
:1032F000ED0B8091042890E00E94290D6AE17BE7A4
:1033000084ED99E20E94ED0B0E9471021FCCE4ED66
:10331000F9E21282138288EE93E0A0E0B0E08483A9
:103320009583A683B7834EED5AE74083518320E20D
:1033300038E024873587168621E0278724E0208B14
:10334000128A138A148A158A2BE1268B178A108E0B
:10335000EDE6FAE21282138284839583A683B78313
:103360004083518340E658E0448755873AE13687E9
:10337000278720E4208B128A138A148A158A26E272
:10338000268B178A108EE6E0FBE21282138284837A
:103390009583A683B78388EF9AE780839183E09330
:1033A000122BF093132B8AE097EDA3EABCE38093F2
:1033B000762B9093772BA093782BB093792B88E47E
:1033C00091EEAAE7BFE380937A2B90937B2BA09397
:1033D0007C2BB0937D2B08955058BB27AA270E94C1
:1033E000041A0C94171C0E94091C38F00E94101C2F
:1033F00020F039F49F3F19F426F40C94DF1B0EF4EF
:10340000E095E7FB0C94D91BE92F0E94281C58F388
:10341000BA17620773078407950720F079F4A6F5B9
:103420000C944A1C0EF4E0950B2EBA2FA02D0B0124
:10343000B90190010C01CA01A0011124FF27591BF9
:1034400099F0593F50F4503E68F11A16F040A22FFF
:10345000232F342F4427585FF3CF46953795279570
:10346000A795F0405395C9F77EF41F16BA0B620B6F
:10347000730B840BBAF09150A1F0FF0FBB1F661FB6
:10348000771F881FC2F70EC0BA0F621F731F841FF9
:1034900048F4879577956795B795F7959E3F08F01F
:1034A000B0CF9395880F08F09927EE0F97958795E1
:1034B00008950E94091C60F080E891E009F49EEFF5
:1034C0000E94101C28F040E851E071F45EEF0CC03F
:1034D0000C94DF1B0C944A1CE92FE0780E94281CF6
:1034E00040F3092E052AB1F3261737074807590775
:1034F00038F00E2E07F8E02569F0E025E0640AC0F8
:10350000EF6307F8009407FADB01B9019D01DC01C4
:10351000CA01AD01EF930E94E71A0E94171C0E9496
:103520009C1A5F91552339F02BED3FE049E450FDA3
:1035300049EC0C94ED190895DF93DD27B92FBF777F
:1035400040E85FE31616170648075B0718F4D92F03
:103550000E94561C9F938F937F936F930E94CB1C66
:10356000E0EAF0E00E94E21B0E94171C2F913F91BD
:103570004F915F910E94711CDD2351F09058A2EA97
:103580002AED3FE049EC5FE3D0785D270E94041A02
:10359000DF910C94171C0E94B51B08F481E008957C
:1035A0000E94E41A0C94171C0E94101C58F00E94F0
:1035B000091C40F029F45F3F29F00C94D91B5111EC
:1035C0000C944B1C0C94DF1B0E94281C68F399235D
:1035D000B1F3552391F3951B550BBB27AA2762170F
:1035E0007307840738F09F5F5F4F220F331F441F1C
:1035F000AA1FA9F335D00E2E3AF0E0E832D0915050
:103600005040E695001CCAF72BD0FE2F29D0660F3C
:10361000771F881FBB1F261737074807AB07B0E87F
:1036200009F0BB0B802DBF01FF2793585F4F3AF085
:103630009E3F510578F00C94D91B0C944B1C5F3FB6
:10364000E4F3983ED4F3869577956795B795F7950B
:103650009F5FC9F7880F911D9695879597F90895F3
:10366000E1E0660F771F881FBB1F6217730784078F
:10367000BA0720F0621B730B840BBA0BEE1F88F79E
:10368000E09508950E94491B6894B1110C944B1C5D
:1036900008950E94301C88F09F5798F0B92F992701
:1036A000B751B0F0E1F0660F771F881F991F1AF02D
:1036B000BA95C9F714C0B13091F00E944A1CB1E02C
:1036C00008950C944A1C672F782F8827B85F39F02B
:1036D000B93FCCF3869577956795B395D9F73EF4C6
:1036E00090958095709561957F4F8F4F9F4F08956E
:1036F000E89409C097FB3EF490958095709561958C
:103700007F4F8F4F9F4F9923A9F0F92F96E9BB2741
:103710009395F695879577956795B795F111F8CFBD
:10372000FAF4BB0F11F460FF1BC06F5F7F4F8F4F28
:103730009F4F16C0882311F096E911C0772321F01E
:103740009EE8872F762F05C0662371F096E8862FB6
:1037500070E060E02AF09A95660F771F881FDAF70D
:10376000880F9695879597F90895990F0008550F3A
:10377000AA0BE0E8FEEF16161706E807F907C0F0F7
:1037800012161306E407F50798F0621B730B840BFF
:10379000950B39F40A2661F0232B242B252B21F4D9
:1037A00008950A2609F4A140A6958FEF811D811D79
:1037B000089597F99F6780E870E060E008959FEFB3
:1037C00080EC0895DF93CF931F930F93FF92EF92B6
:1037D000DF927B018C01689406C0DA2EEF010E9413
:1037E000711CFE01E894A591259135914591559163
:1037F000A6F3EF010E94041AFE019701A801DA94D2
:1038000069F7DF90EF90FF900F911F91CF91DF91BB
:10381000089500240A941616170618060906089536
:1038200000240A9412161306140605060895092E9C
:103830000394000C11F4882352F0BB0F40F4BF2B0B
:1038400011F460FF04C06F5F7F4F8F4F9F4F08954B
:1038500057FD9058440F551F59F05F3F71F0479541
:10386000880F97FB991F61F09F3F79F08795089526
:10387000121613061406551FF2CF4695F1DF08C045
:10388000161617061806991FF1CF86957105610562
:1038900008940895E894BB2766277727CB0197F90A
:1038A00008950E94B51B08F48FEF08959B01AC01A9
:1038B00060E070E080E89FE30C94D01A0E94711CD5
:1038C0000C94171C0E94091C38F00E94101C20F058
:1038D000952311F00C94D91B0C94DF1B11240C942C
:1038E0004B1C0E94281C70F3959FC1F3950F50E06C
:1038F000551F629FF001729FBB27F00DB11D639FA2
:10390000AA27F00DB11DAA1F649F6627B00DA11D47
:10391000661F829F2227B00DA11D621F739FB00DED
:10392000A11D621F839FA00D611D221F749F33275D
:10393000A00D611D231F849F600D211D822F762FF6
:103940006A2F11249F5750409AF0F1F088234AF0D3
:10395000EE0FFF1FBB1F661F771F881F915050403F
:10396000A9F79E3F510580F00C94D91B0C944B1C79
:103970005F3FE4F3983ED4F3869577956795B795C6
:10398000F795E7959F5FC1F7FE2B880F911D9695E0
:10399000879597F908959B01AC010C945E1C0E94D9
:1039A000B51B880B990B0895AA1BBB1B51E107C0DF
:1039B000AA1FBB1FA617B70710F0A61BB70B881FBF
:1039C000991F5A95A9F780959095BC01CD0108954E
:1039D00097FB072E16F4009407D077FD09D00E94BC
:1039E000D41C07FC05D03EF4909581959F4F089517
:1039F000709561957F4F0895A1E21A2EAA1BBB1BFB
:103A0000FD010DC0AA1FBB1FEE1FFF1FA217B307AA
:103A1000E407F50720F0A21BB30BE40BF50B661FC0
:103A2000771F881F991F1A9469F760957095809584
:103A300090959B01AC01BD01CF010895052E97FB28
:103A40001EF400940E94351D57FD07D00E94FC1CF7
:103A500007FC03D04EF40C94351D509540953095DD
:103A600021953F4F4F4F5F4F0895909580957095EA
:103A700061957F4F8F4F9F4F08950E94561DA59FC0
:103A8000900DB49F900DA49F800D911D1124089559
:103A9000B7FF0C943D1D0E943D1D821B930B0895A2
:103AA000EE0FFF1F0590F491E02D0994A29FB00145
:103AB000B39FC001A39F700D811D1124911DB29F62
:103AC000700D811D1124911D089581E090E0F894FE
:083AD0000C946A1DF894FFCF6D
:103AD800B00A00000000ED01E40075015301670120
:103AE800490231053C059501970244010000000098
:103AF8009C0377036F035B034C034B03CC048704DD
:103B08007A041604DE03BF03B703ED03E5032403B9
:103B18001F030D0A003D3D3D3D3D3D3D3D3D3D3DC5
:103B28003D3D3D3D3D3D3D3D3D3D3D3D3D3D3D3DBD
:103B38003D3D3D3D3D3D3D3D3D3D3D3D3D004361C0
:103B48006C63756C6174696E67206779726F206F3A
:103B580066667365747300444F204E4F54204D4F72
:103B68005645204D505536303530002E00446F6E86
:103B780065210058203A200059203A20005A203A5E
:103B8800200050726F6772616D2077696C6C2073CA
:103B98007461727420616674657220332073656382
:103BA8006F6E6473001B5B324A006D6F746F722016
:103BB80063757272656E743A2000494D5520616EC6
:103BC800676C653A200063757272656E7420706F59
:103BD800736974696F6E3A2000506F736974696F06
:103BE8006E20536574706F696E743A20004B703A9A
:103BF80020004B693A20004B643A20004B696C6CFA
:103C0800207377697463682073746174653A20005F
:0C3C18006E616E00696E66006F766600DB
:063C24000024F400010081
:00000001FF
