:100000000C94BA000C94E2000C94E2000C94E20010
:100010000C94E2000C94E2000C94BD060C94E200F7
:100020000C94E2000C94E2000C94E2000C94E200C8
:100030000C94E2000C94E2000C947A070C942908CA
:100040000C94E2000C94E2000C94E2000C94E200A8
:100050000C944E060C94E2000C94E2000C94E20026
:100060000C9473060C94E2000C9408070C94E206BE
:100070000C94E2000C9404060C94E2000C94E20050
:100080000C94E2000C94E2000C9498060C9429065F
:100090000C94E6110C9454070C942E070C94E20077
:1000A000084AD73B3BCE016E84BCBFFDC12F3D6CDF
:1000B00074319ABD56833DDA3D00C77F11BED9E445
:1000C000BB4C3E916BAAAABE000000803F0000001E
:1000D0000003000102000001010000000000000018
:1000E0000000000000000000000000000000000010
:1000F00000000000000000050400050602040103E2
:1001000000010001020001020304050203030504CB
:1001100006050406070307000102020300010706A3
:1001200002020005020105000401010404040303A6
:1001300003030303000002000003010100000102A9
:1001400002020205050505030520100120400410E8
:100150000208010201020401020408102004080838
:100160002010402010408008800102040408010291
:100170008040811911241FBECFEFCDBFDFE3DEBF6A
:1001800018E2A0E0B8E2E8E1FCE302C005900D92BD
:10019000A630B107D9F72BE2A6E0B8E201C01D9264
:1001A000AC38B207E1F710E0CAEBD0E004C0219709
:1001B000FE010E944A1DC93BD107C9F70E944A129D
:1001C0000C94641D0C940000CF92DF92EF92FF928A
:1001D0000F931F93CF93DF936C017A018B01C0E0E3
:1001E000D0E0CE15DF0581F0D8016D918D01D601EB
:1001F000ED91FC910190F081E02DC6010995892BCC
:1002000011F02196EECF7E01C701DF91CF911F91B2
:100210000F91FF90EF90DF90CF900895EF92FF92B3
:100220000F931F93CF93DF93863030F490E2899F32
:10023000E0011124DC5F02C0C0E0D0E0E984182FA7
:10024000110F110F110FFF24F39400E08E2D8F2159
:1002500079F0E12FE00FF0E0EE0FFF1FE35DF64DC8
:1002600080819181892B21F00190F081E02D099509
:100270000F5FFF0C083051F7E986DF91CF911F9196
:100280000F91FF90EF900895FC0154894589252F27
:1002900030E0842F90E0821B930B541710F0CF9620
:1002A000089501970895FC0192898389981761F058
:1002B0008389DF01A80FB11D59968C9193899F5FA7
:1002C0009F73938B90E008958FEF9FEF0895FC014B
:1002D00092898389981731F08389E80FF11D818D08
:1002E00090E008958FEF9FEF0895FC019289238994
:1002F000892F90E0805C9F4F821B91098F73992713
:1003000008958CED99E20E94750121E0892B09F492
:1003100020E0822F089585E79AE20E94750121E08E
:10032000892B09F420E0822F0895CF93DF93EC010D
:10033000E881F9810284F385E02D0995EC85FD853E
:1003400086818F738683EC85FD8585818F75858396
:100350008B898A8B198ADF91CF910895CF93DF9390
:10036000FC0194898589A485B585981307C01596E5
:100370008C9115978F7D15968C932CC08589EF01F4
:10038000C80FD11DC75ADF4F2881858990E001969B
:100390008F739927858B80E414968C93A485B585FB
:1003A00012962C93A485B58514968C91149785FF8D
:1003B000FBCF9489858998130DC015968C9115975C
:1003C0008F7D15968C938789882321F0808D80936B
:1003D0001301178ADF91CF910895EF92FF920F9347
:1003E0001F93CF93DF93FC0181E0818B94898589F2
:1003F000981307C0A485B58514968C91149785FD34
:100400002EC08091110180FF08C080911301808F60
:1004100086898093130181E0878BF62EEF01048992
:1004200010E00F5F1F4F0F731127E02E8D89E81228
:1004300009C00FB607FE29C0EC85FD85858185FDC5
:10044000F5CF23C08C89FE01E80FF11DE75AFF4F5D
:10045000F0820C8BEC85FD85858180620CC0129644
:100460006C93A485B58580E414968C930484F585FB
:10047000E02D85818F7D858381E090E0DF91CF91B4
:100480001F910F91FF90EF900895CE010E94AE0151
:10049000CDCFCF93DF93FC0121892223F9F0EC012A
:1004A0008091110180FF08C080911301808F86899F
:1004B0008093130181E0878BEC85FD85858185FD27
:1004C00003C0848186FD0AC00FB607FE03C0858184
:1004D00085FDF4CFCE010E94AE01EECFDF91CF912A
:1004E000089580E090E0892B21F00E948B0181111A
:1004F00015C080E090E0892B21F00E9481018111DC
:1005000010C080E090E0892B89F080E090E0892B9A
:1005100069F00E940000811107C008950E94000048
:10052000E8CF0E940000EDCF0C940000089581E018
:1005300008950F9391E090932C2910922B296093AA
:10054000292970932A29409328292093272910923A
:1005500026291092252900932429880F8093232986
:1005600023E030E044E050E080912829811114C05C
:1005700080912729882341F04093212950932229F3
:100580008091232981600FC08091282981110DC09D
:1005900080912729811109C0209321293093222994
:1005A000809123298E7F8093A70880912B2988230F
:1005B000E1F380912B298330B9F280912729882398
:1005C00019F08091252906C090912B2981E0913066
:1005D00009F480E00F910895E0EAF8E091859066D3
:1005E000918722E030E020932129309322298093C3
:1005F000132910921229089581E0809312291092F4
:10060000132993E09093AA089091AB0891FF0CC036
:1006100010921F29E0911029F091112909958093DA
:100620001E2985E090E006C01092202980931D29A4
:1006300086E090E080932129909322290895609389
:100640000E2970930F29089560930C2970930D293A
:100650000895E0910E29F0910F29309741F0109202
:100660000B2910920A29099580910A29089580E0A2
:100670000895E0910C29F0910D29309759F03091AF
:10068000092920910829321728F01092092980930E
:100690000829099408950895E0910929809108296D
:1006A000E81730F4F0E0E857F74D808190E00895C6
:1006B0008FEF9FEF0895909109298091082998174D
:1006C00050F4E92FF0E0E857F74D208130E09F5FCC
:1006D0009093092902C02FEF3FEFC901089580913F
:1006E000082990E020910929821B91090895CF9251
:1006F000DF92EF92FF920F931F93CF93DF937C01D2
:100700008A01EB016B01C40ED51ECC15DD0551F03D
:100710006991D701ED91FC910190F081E02DC70125
:100720000995F3CFC801DF91CF911F910F91FF90F1
:10073000EF90DF90CF90089520910A2927FF08C0FD
:1007400021E030E0FC012283338380E090E00895D3
:1007500080910B29E82FF0E0E85FF74D60838F5F11
:1007600080930B2980930A2981E090E00895DC01B1
:10077000ED91FC910688F789E02D61E009940F93D3
:100780008091212990912229019779F480912C2937
:1007900081110DC0062F20E040910A2968E078E21F
:1007A000809107280E94990203C080E001C081E087
:1007B00010920B2910920A290F910895609307282F
:1007C00010920B2910920A290895DC01ED91FC91F9
:1007D000028CF38DE02D21E009940F9388E898E2D4
:1007E0008093142990931529809121299091222991
:1007F000019799F480912C29811111C0FA01413897
:10080000510510F0E0E8F0E0022F862F2E2F40E097
:1008100060E070E00E94990203C080E001C081E0C6
:1008200010920929809308290F9108958F929F9221
:10083000AF92BF92CF92DF92EF92FF92CF93DF936E
:1008400040348DE0580783E068077105D0F041150A
:1008500085E358078CE06807710560F040385F4415
:100860006241710570F4C8E7D0E020E432E44FE063
:1008700050E00DC0CCE2D1E020E83AE146E050E0A3
:1008800006C0C8EED3E020EA36E841E050E08090B0
:10089000002890900128A0900228B0900328C5015C
:1008A000B4010E94F61C69017A018AE0C81AD108D5
:1008B000E108F108DE01A50194010E94371D20E046
:1008C0003AEC4AE95BE30E94F61CC21AD30AE40A36
:1008D000F50AF694E794D794C794C092A608DF91DE
:1008E000CF91FF90EF90DF90CF90BF90AF909F900F
:1008F0008F900895E0EAF8E01382168281E0858304
:10090000148611861092212910922229089510929E
:1009100009291092082910920B2910920A29809116
:10092000212990912229892BD9F482E090E08093AB
:100930002129909322291092202910921F29109288
:100940001229109213291092062810921D29660F61
:100950006093AC0881EE8093A90881E08093A3089E
:1009600089E293E0809310299093112988E098E21E
:10097000809316299093172989E393E080931B298C
:1009800090931C2988E898E280931829909319295C
:1009900080E880931A2908958F929F92AF92BF9218
:1009A000CF92DF92EF92FF921092092910920829BC
:1009B00010920B2910920A298091212990912229C5
:1009C000892B09F045C08091E3058093E30581E020
:1009D00090E080932129909322291092252910924A
:1009E000262910922C2910922B2981EC8093A308A0
:1009F0008090002890900128A0900228B0900328B1
:100A0000C501B40120EA36E841E050E00E94F61C3E
:100A100069017A018AE0C81AD108E108F108A8EE54
:100A2000B3E0A50194010E94371D20E03AEC4AE9A9
:100A30005BE30E94F61CC21AD30AE40AF50AF69494
:100A4000E794D794C794C092A60881E08093A50844
:100A5000FF90EF90DF90CF90BF90AF909F908F90DE
:100A60000895DC01ED91FC910684F785E02D23E0EB
:100A700030E009940E945F1D8F929F92AF92BF92C7
:100A8000EF92FF920F931F93CF93DF93EC014A01F4
:100A90005B01E22E8989882339F0E881F981008899
:100AA000F189E02DCE01099598898091E205892B85
:100AB0008093E205FFB6F894809100289091012878
:100AC000A0910228B0910328BC01CD0123E0660F5C
:100AD000771F881F991F2A95D1F7A50194010E94BD
:100AE000F61C49015A018FEF881A980AA80AB80A19
:100AF000B694A79497948794EC85FD8586818D7F25
:100B00008683EC85FD8586818683198A8E8562E0E1
:100B100070E00E94F00D8F8561E070E00E94A50DED
:100B20008F8561E070E00E94F00D80912311E82F25
:100B3000880FFF0BDF01BC5FA50194010E94421DDD
:100B40000C851D85AF01F7FF03C0519541955109F3
:100B500020E034E0241B350B032E000C440B550B16
:100B60000E94181DF80120873187EC85FD85E782FA
:100B7000EC85FD858681806C8683EC85FD8585818D
:100B800080688583FFBEDF91CF911F910F91FF9009
:100B9000EF90BF90AF909F908F900895CF93E3E533
:100BA000F1E0C491CF3FD9F08AE00E94770DEAE2EC
:100BB000F1E0A49180E2A89FD0011124BC5F1896B7
:100BC000EC91EC2361F08091B6299091B729A09126
:100BD000B829B091B9290197A109B1090BC0809139
:100BE000B6299091B729A091B829B091B929019659
:100BF000A11DB11D8093B6299093B729A093B82960
:100C0000B093B929CF9108951F920F920FB60F920A
:100C100011242F933F934F935F936F937F938F9301
:100C20009F93AF93BF93EF93FF9385E00E940E01D4
:100C3000FF91EF91BF91AF919F918F917F916F91B4
:100C40005F914F913F912F910F900FBE0F901F908A
:100C500018951F920F920FB60F9211242F933F9366
:100C60004F935F936F937F938F939F93AF93BF93B4
:100C7000EF93FF9384E00E940E01FF91EF91BF91EB
:100C8000AF919F918F917F916F915F914F913F9124
:100C90002F910F900FBE0F901F9018951F920F92DB
:100CA0000FB60F9211242F933F934F935F936F933F
:100CB0007F938F939F93AF93BF93EF93FF9383E0C3
:100CC0000E940E01FF91EF91BF91AF919F918F9183
:100CD0007F916F915F914F913F912F910F900FBE38
:100CE0000F901F9018951F920F920FB60F9211241C
:100CF0002F933F934F935F936F937F938F939F9324
:100D0000AF93BF93EF93FF9382E00E940E01FF9198
:100D1000EF91BF91AF919F918F917F916F915F9173
:100D20004F913F912F910F900FBE0F901F901895EC
:100D30001F920F920FB60F9211242F933F934F9350
:100D40005F936F937F938F939F93AF93BF93EF9333
:100D5000FF9381E00E940E01FF91EF91BF91AF914F
:100D60009F918F917F916F915F914F913F912F91C3
:100D70000F900FBE0F901F9018951F920F920FB6F5
:100D80000F9211242F933F934F935F936F937F9311
:100D90008F939F93AF93BF93EF93FF9380E00E9455
:100DA0000E01FF91EF91BF91AF919F918F917F9134
:100DB0006F915F914F913F912F910F900FBE0F90C8
:100DC0001F9018951F920F920FB60F9211242F9318
:100DD0003F934F935F936F937F938F939F93AF93C3
:100DE000BF93EF93FF938CED99E20E94AE01FF91C8
:100DF000EF91BF91AF919F918F917F916F915F9193
:100E00004F913F912F910F900FBE0F901F9018950B
:100E10001F920F920FB60F9211242F933F934F936F
:100E20005F936F937F938F939F93AF93BF93EF9352
:100E3000FF938CED99E20E945E0DFF91EF91BF91BF
:100E4000AF919F918F917F916F915F914F913F9162
:100E50002F910F900FBE0F901F9018951F920F9219
:100E60000FB60F9211242F933F934F935F936F937D
:100E70007F938F939F93AF93BF93EF93FF9385E7F8
:100E80009AE20E94AE01FF91EF91BF91AF919F91C5
:100E90008F917F916F915F914F913F912F910F9023
:100EA0000FBE0F901F9018951F920F920FB60F92C2
:100EB00011242F933F934F935F936F937F938F935F
:100EC0009F93AF93BF93EF93FF9385E79AE20E94BE
:100ED0005E0DFF91EF91BF91AF919F918F917F91A7
:100EE0006F915F914F913F912F910F900FBE0F9097
:100EF0001F9018951F920F920FB60F9211242F93E7
:100F00003F934F935F936F937F938F939F93AF9391
:100F1000BF93CF93EF93FF93C091AB08C2FF08C07C
:100F20001092202910921F2910921E2984E07DC062
:100F3000C6FF1EC080911D29813051F48091202967
:100F4000E0911B29F0911C2990E0099510921D2930
:100F5000C0FF03C00E94FC026AC080E48093AB081B
:100F600081E00E94EC028091AB0885FF60C0F2CF67
:100F7000C7FF5AC0C3FF08C01092202910921F2932
:100F800010921E2983E051C08091A9088066809349
:100F9000A9088091AB0881FF28C080911F29882370
:100FA00049F08091AB0884FF05C082E08093AA08D5
:100FB00081E03BC090911F2980911E29981788F4E9
:100FC00080911F29E0911629F0911729E80FF11D52
:100FD00080818093AD0880911F298F5F80931F29A6
:100FE0001AC082E08093AA0820C0909120298091A5
:100FF0001A299817A0F48091AD0890912029E091CA
:101000001829F0911929E90FF11D80838091202979
:101010008F5F8093202983E08093AA0808C086E030
:101020008093AA0882E001C085E00E94EC02FF9153
:10103000EF91CF91BF91AF919F918F917F916F91E0
:101040005F914F913F912F910F900FBE0F901F9086
:1010500018951F920F920FB60F9211242F938F9312
:101060009F93EF93FF938091A508982F9C70A1F018
:101070008091A50882FF02C094E001C093E09093A4
:101080002B298093A50881E090E0809321299093FB
:10109000222910922C2991C086FF40C02091282936
:1010A000909127298091A50884FF0BC08091242965
:1010B000882311F083E001C081E08093A40885E0DB
:1010C00072C080912629821788F480912629E091A8
:1010D0002929F0912A29E80FF11D80818093A80821
:1010E000809126298F5F8093262967C080912529CA
:1010F000891760F484E090E080932129909322295D
:101100008091232981608093A70857C0809124296A
:10111000882311F083E042C081E040C087FF42C0D5
:1011200090912529809127299817D0F48091A808BB
:1011300090912529E0911429F0911529E90FF11DCD
:101140008083809125298F5F80932529909127297D
:10115000809125298917D8F482E08093A4082DC0B6
:1011600080912429882311F087E001C085E08093D5
:10117000A40882E080932B2910922C2981E090E032
:1011800080932129909322291092272916C08091BB
:101190002429882311F087E001C085E08093A4080A
:1011A00081E001C086E080932B2910922C2981E0F8
:1011B00090E08093212990932229FF91EF919F91B4
:1011C0008F912F910F900FBE0F901F9018958F92B7
:1011D0009F92AF92BF92CF92DF92EF92FF92609375
:1011E000A6297093A7298093A8299093A929C09034
:1011F0009529D0909629E0909729F0909829C0924F
:10120000A129D092A229E092A329F092A42980904A
:101210009D2990909E29A0909F29B090A029A5017A
:101220009401C701B6010E944B1C181684F08090EF
:10123000992990909A29A0909B29B0909C29A5016A
:101240009401C701B6010E94C51A87FF08C08092A9
:10125000A1299092A229A092A329B092A429FF903B
:10126000EF90DF90CF90BF90AF909F908F900895B8
:101270004F925F926F927F928F929F92AF92BF92A6
:10128000CF92DF92EF92FF920F931F932B013C01BD
:1012900049015A016701780120E030E0A9010E946C
:1012A000C51A87FD3AC020E030E0A901C501B401AC
:1012B0000E94C51A87FD31C020E030E0A901C701B6
:1012C000B6010E94C51A87FD28C04092AA295092F3
:1012D000AB296092AC297092AD292AE037ED43EA40
:1012E0005CE3C501B4010E94581C6093AE29709361
:1012F000AF298093B0299093B1292AE037ED43EAD2
:101300005CE3C701B6010E94CA1A6093B2297093C8
:10131000B3298093B4299093B5291F910F91FF9021
:10132000EF90DF90CF90BF90AF909F908F907F9085
:101330006F905F904F900895CF93DF93EC0197FFEC
:1013400009C060E070E084E00E94A50DD195C195D0
:10135000D1090AC061E070E084E00E94A50D2097E9
:1013600019F460E070E080C0C630D1051CF460E084
:1013700070E083C0CB30D1051CF460E070E086C023
:10138000C031D1051CF460E070E089C0C531D105E1
:101390001CF460E070E08CC0C931D1051CF460E041
:1013A00070E08FC0CE31D10594F460E070E08EE043
:1013B0000E94A50D60E070E08FE00E94A50D61E045
:1013C00070E080E10E94A50D61E070E0CDC0C33205
:1013D000D1051CF460E070E081C0C732D1056CF427
:1013E00060E070E08EE00E94A50D61E070E08FE0AB
:1013F0000E94A50D60E070E0B2C0CC32D1051CF4B3
:1014000060E070E078C0C033D1051CF460E070E0AB
:1014100080C0C433D1051CF460E070E088C0C933DB
:10142000D10524F460E070E08EE090C0CD33D105AA
:1014300024F460E070E08EE0A0C0C034D10544F434
:1014400060E070E08EE00E94A50D61E070E0B4CF36
:10145000C434D10524F460E070E08EE09DC061E00A
:1014600070E0C834D10534F48EE00E94A50D60E030
:1014700070E0BDCFCB34D10534F48EE00E94A50DD1
:1014800060E070E03DC0CE34D10534F48EE00E94BF
:10149000A50D60E070E042C0C135D10534F48EE0A6
:1014A0000E94A50D60E070E047C0C435D10534F45A
:1014B0008EE00E94A50D60E070E04CC0C735D105FC
:1014C00034F48EE00E94A50D60E070E05AC0C9358A
:1014D000D1050CF46CCFCB35D10534F48EE00E94ED
:1014E000A50D60E070E05CC0CD35D1050CF47ACF7D
:1014F000CF35D1055CF48EE00E94A50D61E070E06F
:101500008FE00E94A50D60E070E040C0C136D105BB
:101510005CF48EE00E94A50D61E070E08FE00E9417
:10152000A50D60E070E04DCFC136D10559F48EE0D5
:101530000E94A50D61E070E08FE00E94A50D60E0C3
:1015400070E033C08EE0C236D105A1F40E94A50D33
:1015500061E070E08FE00E94A50D61E070E080E145
:101560000E94A50D60E070E081E10E94A50D60E0A1
:1015700070E025C0C336D10579F40E94A50D61E065
:1015800070E08FE00E94A50D61E070E080E10E94B4
:10159000A50D60E070E00EC00E94A50D61E070E056
:1015A0008FE00E94A50D61E070E080E10E94A50D32
:1015B00061E070E081E10E94A50D61E070E082E1F0
:1015C000DF91CF910C94A50D8F929F92AF92BF9215
:1015D000CF92DF92EF92FF9249015A010E94741B51
:1015E00020E030E040E85DE30E94581C20E030E05D
:1015F00040EF51E40E94CA1A20E030E040E450E499
:101600000E94CA1A9B01AC010E94E7192BED3FE032
:1016100049E450E40E94581C20E030E040EA50E4E5
:101620000E94581C6B017C0120E030E040EA50E44D
:10163000C501B4010E94581C2BED3FE049E450E481
:101640000E94581C20E030E044E353E40E94CA1A90
:101650009B01AC01C701B6010E94E619FF90EF9013
:10166000DF90CF90BF90AF909F908F900895209182
:101670008D2930918E2940918F2950919029609128
:101680006A2B70916B2B80916C2B90916D2B0E942B
:10169000E6199058089580E090E00E949C0960E06F
:1016A00070E089E00E94A50D0E94370B9B01AC0100
:1016B0006091B6297091B7298091B8299091B92984
:1016C0000E94E40A2091A52921110E94E7081092A6
:1016D000A529109204280895CF93DF938FB7F8942B
:1016E0002091D8293091D9294091DA295091DB29CC
:1016F000E091BA0A9091B60A90FF06C02F5F3F4F63
:101700004F4F5F4FE091BA0A8FBFA091D629B09199
:10171000D729C091D429D091D5290E94371DEC9F9B
:101720009001ED9F300D1124620F731F811D911DDB
:10173000DF91CF9108956115710551F0FB01019082
:101740000020E9F73197AF01461B570B0C94E400DA
:1017500080E090E008958F929F92AF92BF92EF92B7
:10176000FF920F931F93CF93DF93CDB7DEB7A1976F
:10177000CDBFDEBF7C01FA01CB0119A2223008F4F3
:101780002AE08E010F5D1F4F822E912CA12CB12CCF
:10179000BF01A50194010E94F61CF901CA01015084
:1017A00011096A3014F4605D01C0695CD8016C9362
:1017B000232B242B252B61F7B801C7010E949B0B1B
:1017C000A196CDBFDEBFDF91CF911F910F91FF900A
:1017D000EF90BF90AF909F908F9008950C949B0BCB
:1017E000CF93DF93BC0185E79AE20E949B0BEC014B
:1017F0006EE07BE785E79AE20E949B0B8C0F9D1FB2
:10180000DF91CF9108957F928F929F92AF92BF9276
:10181000CF92DF92EF92FF920F931F93CF93DF93BC
:101820008C016A017B01722E9A01AB01C701B601DE
:101830000E94C91C882319F06CE07CE727C0460190
:101840005701E894B7F82FEF3FEF4FE75FE7C50187
:10185000B4010E94C91C81110DC02FEF3FEF4FE76B
:101860005FE7C501B4010E94C51A18161CF460E1B7
:101870007CE70CC02FEF3FEF4FE75FE4C701B601F5
:101880000E944B1C181694F464E17CE7C801DF91B8
:10189000CF911F910F91FF90EF90DF90CF90BF906D
:1018A000AF909F908F907F900C949B0B2FEF3FEF0A
:1018B0004FE75FECC701B6010E94C51A87FDE4CF70
:1018C00020E030E0A901C701B6010E94C51A87FFD8
:1018D0000AC06DE2C8010E94ED01EC01F7FAF09434
:1018E000F7F8F09402C0C0E0D0E0B12C60E070E006
:1018F00080E09FE37B1441F020E030E040E251E4DF
:101900000E94CA1AB394F6CFA70196010E94E71964
:101910006B017C010E94431B4B015C012AE0AB017F
:10192000BC01C8010E94AB0BC80FD91F7720C9F1B9
:10193000C501B4010E94721B9B01AC01C701B60135
:101940000E94E6196B017C0167E67BE7C8010E94F3
:101950009B0BC80FD91F20E030E040E251E4C701E3
:10196000B6010E94581C4B015C010E94431B6B0195
:10197000E12CF12C2AE0B701A601C8010E94AB0BB3
:10198000C80FD91FC701B6010E94721B9B01AC0191
:10199000C501B4010E94E6196B017C017A947110B3
:1019A000DACFCE01DF91CF911F910F91FF90EF9091
:1019B000DF90CF90BF90AF909F908F907F900895D1
:1019C000CF93DF93AB01BC0122E085E79AE20E944E
:1019D000030CEC016EE07BE785E79AE20E949B0B2B
:1019E0008C0F9D1FDF91CF910895DC01ED91FC914B
:1019F0000488F589E02D68E609940F931F93CF932F
:101A0000DF93082F162FCAE1DBE2888199810E94BB
:101A1000F50C88819981DC01ED91FC910190F081B8
:101A2000E02D602F099588819981DC01ED91FC9171
:101A30000190F081E02D612F099588819981DC0169
:101A4000ED91FC91008CF18DE02DDF91CF911F91F4
:101A50000F910994CF92DF92EF92FF92CF93DF9391
:101A60006C01990FEE08FF08F7FE1BC06DE28CEDCC
:101A700099E20E94ED01EC0144275527BA014C1967
:101A80005D096E097F092AE08CED99E20E94AB0B9B
:101A90008C0F9D1FDF91CF91FF90EF90DF90CF9043
:101AA00008952AE0B701A6018CED99E2DF91CF916C
:101AB000FF90EF90DF90CF900C94AB0BFC01A485CE
:101AC000B58511968C91119781FD0FC09C918289EB
:101AD0008F5F8F732389821749F02289DF01A20F5C
:101AE000B11D59969C93828B08958C9108958932EB
:101AF00058F590E0FC01E253FF4FE491EE2321F111
:101B0000E13021F008F1E630B0F00895FC01E95031
:101B1000FF4F84914091010A8C5F21E030E0B901D0
:101B200002C0660F771F8A95E2F7CB018095842368
:101B30008093010A089570E1E79FF0011124E05AB3
:101B4000F54F81818F7E81830895FF920F931F93BC
:101B5000CF93DF93893208F03DC0082F10E0F801E1
:101B6000E75BFE4FF4909FEFF916A1F1EB010E94A5
:101B7000770DF801E05EFE4FA49180E2A89FD001AE
:101B80001124BC5F8C918F2169F0209719F416966F
:101B9000FC9220C0229719F41796FC921BC0159650
:101BA000FC9218C0F801E950FF4FE491109731F012
:101BB000EF3F21F05096AE0FB11D02C0A0E0B0E0A3
:101BC0009FB7F8948C91CD2B11F4877F01C088606A
:101BD0008C939FBFDF91CF911F910F91FF9008953C
:101BE000CF93DF93893298F590E0FC01E75BFE4FDD
:101BF00024912F3F61F16330710548F5FC01E05EEF
:101C0000FE4FA49130E2A39FD0011124BC5F61304C
:101C1000710519F411962C931AC0FC01E950FF4F7D
:101C200084918F3F29F0ED016096C80FD11D02C04D
:101C3000C0E0D0E09FB7F89412962C938881623070
:101C4000710511F4886001C0877F88839FBFDF9191
:101C5000CF9108958F929F92AF92BF92CF92DF92D1
:101C6000EF92FF924B015C010E946C0B6B017C01B7
:101C7000A8EEB3E0A50194010E94371DC60ED71E41
:101C8000E81EF91EC616D706E806F90638F40E94C3
:101C90006C0BC616D706E806F906C8F30E946C0B53
:101CA0006C157D058E059F05C8F3FF90EF90DF90C2
:101CB000CF90BF90AF909F908F9008952FB7F894DA
:101CC0006091D0297091D1298091D2299091D32906
:101CD0002FBF08954F925F926F927F928F929F9243
:101CE000AF92BF92CF92DF92EF92FF92CF93DF93AA
:101CF000CDB7DEB72897CDBFDEBF80911A2B90916C
:101D00001B2B0E94F50C80911A2B90911B2BDC0150
:101D1000ED91FC910190F081E02D6BE309958091AC
:101D20001A2B90911B2BDC01ED91FC910688F78911
:101D3000E02D60E0099580911A2B90911B2BDC011E
:101D4000ED91FC91028CF38DE02D21E04EE050E00E
:101D500068E6099580911A2B90911B2BDC01ED917F
:101D6000FC910680F781E02D0995F82E80911A2BC1
:101D700090911B2BDC01ED91FC910680F781E02D09
:101D8000099520E030E03F2D822B932B80931C2B74
:101D900090931D2B80911A2B90911B2BDC01ED91C0
:101DA000FC910680F781E02D0995F82E80911A2B81
:101DB00090911B2BDC01ED91FC910680F781E02DC9
:101DC000099520E030E03F2D822B932B80931E2B32
:101DD00090931F2B80911A2B90911B2BDC01ED917E
:101DE000FC910680F781E02D0995F82E80911A2B41
:101DF00090911B2BDC01ED91FC910680F781E02D89
:101E0000099520E030E03F2D822B932B8093202BEF
:101E10009093212B80911A2B90911B2BDC01ED913B
:101E2000FC910680F781E02D0995F82E80911A2B00
:101E300090911B2BDC01ED91FC910680F781E02D48
:101E4000099520E030E03F2D822B932B8093222BAD
:101E50009093232B80911A2B90911B2BDC01ED91F9
:101E6000FC910680F781E02D0995F82E80911A2BC0
:101E700090911B2BDC01ED91FC910680F781E02D08
:101E8000099520E030E03F2D822B932B8093242B6B
:101E90009093252B80911A2B90911B2BDC01ED91B7
:101EA000FC910680F781E02D0995F82E80911A2B80
:101EB00090911B2BDC01ED91FC910680F781E02DC8
:101EC000099520E030E03F2D822B932B8093262B29
:101ED0009093272B80911A2B90911B2BDC01ED9175
:101EE000FC910680F781E02D0995D82E80911A2B60
:101EF00090911B2BDC01ED91FC910680F781E02D88
:101F00000995E12CF12CFD2C8E299F2989839A8338
:101F10008093282B9093292B6091222B7091232B57
:101F2000072E000C880B990B0E94741B20E030EFE9
:101F300041E456E40E94E71920E030E04AEA53E425
:101F40000E94CA1A6093362B7093372B8093382BDC
:101F50009093392B60911C2B70911D2B072E000C38
:101F6000880B990B0E94741B20E030E040E858E396
:101F70000E94581C4B015C0160933A2B70933B2BE1
:101F800080933C2B90933D2B60911E2B70911F2BC7
:101F9000072E000C880B990B0E94741B20E030E088
:101FA00040E858E30E94581C6B017C0160933E2B73
:101FB00070933F2B8093402B9093412B6091202B6B
:101FC0007091212B072E000C880B990B0E94741B1B
:101FD00020E030E040E858E30E94581C2B013C010F
:101FE0006093422B7093432B8093442B9093452B0B
:101FF000C501B4010E943C1B9B0177FF04C022274E
:102000003327261B370BB901330F880B990B0E941E
:10201000741BA30192010E94E7199B01AC01C70147
:10202000B6010E94661A20E030E044EB53E40E94BF
:10203000581C20E030E040E05FE30E94581C2BED8C
:102040003FE049E450E40E94CA1A60935E2B70930B
:102050005F2B8093602B9093612BC701B6010E9488
:102060003C1B9B0177FF04C022273327261B370B1D
:10207000B901330F880B990B0E94741BA3019201C5
:102080000E94E7199B01AC01C501B4010E94661AC8
:1020900020E030E044EB53E40E94581C20E030E0A4
:1020A00040E05FEB0E94581C2BED3FE049E450E418
:1020B0000E94CA1A6093622B7093632B8093642BE7
:1020C0009093652B6091262B7091272B072E000C87
:1020D000880B990B0E94741B20E030E043E852E427
:1020E0000E94CA1A4B015C016091242B7091252B30
:1020F000072E000C880B990B0E94741B20E030E027
:1021000043E852E40E94CA1A20912A2B30912B2BCB
:1021100040912C2B50912D2B0E94E6196093462B59
:102120007093472B8093482B9093492B20912E2B13
:1021300030912F2B4091302B5091312BC501B401A0
:102140000E94E61960934A2B70934B2B80934C2B83
:1021500090934D2B29813A81B901330F880B990B4C
:102160000E94741B20E030E043E852E40E94CA1A47
:102170002091322B3091332B4091342B5091352BC1
:102180000E94E61960934E2B70934F2B8093502B37
:102190009093512B0E945E0EC0907A2BD0907B2B97
:1021A000E0907C2BF0907D2B6C197D098E099F09A6
:1021B0000E94721B2FE632E143E85AE30E94581C4A
:1021C0006B017C016093762B7093772B8093782B37
:1021D0009093792B2091462B3091472B4091482B9F
:1021E0005091492B0E94581C2B013C019B01AC01D2
:1021F0006091522B7091532B8091542B9091552BC1
:102200000E94E7196093522B7093532B8093542BA9
:102210009093552B20914A2B30914B2B40914C2B76
:1022200050914D2BC701B6010E94581C4B015C0117
:102230009B01AC016091562B7091572B8091582BCC
:102240009091592B0E94E7196093562B7093572B4E
:102250008093582B9093592B20914E2B30914F2BDC
:102260004091502B5091512BC701B6010E94581C30
:1022700020915A2B30915B2B40915C2B50915D2B20
:102280000E94E7196D837E838F83988760935A2B12
:1022900070935B2B80935C2B90935D2BC090822B73
:1022A000D090832BE090842BF090852B80917E2B17
:1022B00090917F2BA091802BB091812B89839A8361
:1022C000AB83BC8320916A2B30916B2B40916C2B9C
:1022D00050916D2BC301B2010E94E719A70196012D
:1022E0000E94581C2B013C0120915E2B30915F2BEA
:1022F0004091602B5091612B69817A818B819C8107
:102300000E94581C9B01AC01C301B2010E94E71955
:1023100060936A2B70936B2B80936C2B90936D2B37
:1023200020916E2B30916F2B4091702B5091712B1F
:10233000C501B4010E94E719A70196010E94581C2B
:102340006B017C012091622B3091632B4091642BB7
:102350005091652B69817A818B819C810E94581CE8
:102360009B01AC01C701B6010E94E71960936E2B77
:1023700070936F2B8093702B9093712B8D819E8126
:10238000AF81B8858093722B9093732BA093742B9D
:10239000B093752B0E945E0E60937A2B70937B2B0B
:1023A00080937C2B90937D2B2896CDBFDEBFDF9151
:1023B000CF91FF90EF90DF90CF90BF90AF909F9024
:1023C0008F907F906F905F904F9008951F920F9223
:1023D0000FB60F9211242F933F934F935F936F93F8
:1023E0007F938F939F93AF93BF934091D029509148
:1023F000D1296091D2297091D32920918A2B3091D3
:102400008B2B8091882B9091892B480F591F611D30
:10241000711D8091862B9091872B820F931F883E90
:1024200023E0920730F0885E93404F5F5F4F6F4F1D
:102430007F4F80938A2B90938B2B4093D02950937E
:10244000D1296093D2297093D3298091D829909172
:10245000D929A091DA29B091DB290196A11DB11DDE
:102460008093D8299093D929A093DA29B093DB29B6
:1024700081E08093B60ABF91AF919F918F917F9138
:102480006F915F914F913F912F910F900FBE0F90E1
:102490001F901895CF93DF93CDB7DEB76197CDBF6F
:1024A000DEBF90E088ED84BF9093610080E094E20D
:1024B000A4EFB0E08093002890930128A093022815
:1024C000B093032880910206866080930206809173
:1024D0000006816080930006809102068F7C8093C5
:1024E00002068091A0008F788093A0008091020660
:1024F0008061809302061092E20581E08093E405FA
:1025000083E08093010A8FEF90E08093260A9093F6
:10251000270A80E890E08093380A9093390A8093E4
:102520003A0A90933B0A80933C0A90933D0A8BE0D1
:102530008093000A8091E50581608093E505809194
:10254000E50582608093E505E0E8FAE037E02FEFEB
:1025500090E885E031832487958780837096E03CFE
:102560004AE0F407B9F780E094E08093D62990938D
:10257000D7298091D6299091D7292FEF30E0B90142
:102580000E94CE1C6093D4297093D5298091D629BE
:102590009091D729E8EEF3E0BF010E94CE1C609332
:1025A000882B7093892B8091D6299091D729BF01D0
:1025B0000E94CE1C8093862B9093872B2093BC0A7D
:1025C0003093BD0A8091B50A81608093B50A84E09A
:1025D0008093B00A8091B00A81608093B00A7894A9
:1025E00061E070E08CE10E94F00D61E070E08CE150
:1025F0000E94A50D61E070E08DE10E94F00D61E0A8
:1026000070E08DE10E94A50D61E070E083E20E9420
:10261000F00D61E070E083E20E94A50D61E070E0E2
:102620008EE10E94F00D61E070E08EE10E94A50D48
:1026300061E070E084E00E94F00D61E070E089E00C
:102640000E94F00D61E070E088E00E94F00D61E012
:1026500070E087E00E94F00D61E070E08EE00E9483
:10266000F00D61E070E08FE00E94F00D61E070E03D
:1026700080E10E94F00D61E070E081E10E94F00DC8
:1026800061E070E082E10E94F00D60E070E082E0C5
:102690000E94F00D60E070E088E00E94A50D61E00E
:1026A00070E087E00E94A50D8091CA299091CB2906
:1026B0000E949C098EE09BE20E94CC0460E089E1CC
:1026C0000E94FD0C60E08AE10E94FD0C68E08BE155
:1026D0000E94FD0C60E08CE10E94FD0C61E08BE645
:1026E0000E94FD0C0E946A0E1092522B1092532BE6
:1026F0001092542B1092552B1092562B1092572B50
:102700001092582B1092592B80915E2B90915F2B39
:10271000A091602BB091612B80936A2B90936B2BCF
:10272000A0936C2BB0936D2B8091622B9091632BB7
:10273000A091642BB091652B80936E2B90936F2B9F
:10274000A093702BB093712B0E945E0E60937A2B36
:1027500070937B2B80937C2B90937D2B68EE73E0A2
:1027600080E090E00E942A0E6EE07BE785E79AE227
:102770000E949B0B81E19BE70E94F00B8AE39BE7A1
:102780000E94F00B63E57BE785E79AE20E94EE0B7F
:10279000812C912C54012401350175016401212CF7
:1027A000312CC10168EE73E00E94E21C892B31F4E8
:1027B00067E67BE785E79AE20E94EE0B80911A2B91
:1027C00090911B2B0E94F50C80911A2B90911B2B42
:1027D000DC01ED91FC910190F081E02D63E409951D
:1027E00080911A2B90911B2BDC01ED91FC910688B6
:1027F000F789E02D60E0099580911A2B90911B2BB1
:10280000DC01ED91FC91028CF38DE02D21E046E09E
:1028100050E068E6099580911A2B90911B2BDC0102
:10282000ED91FC910680F781E02D09958D878091CF
:102830001A2B90911B2BDC01ED91FC910680F78106
:10284000E02D0995BD85BA83198229813A81282B0B
:10285000392B2D873E8780911A2B90911B2BDC0101
:10286000ED91FC910680F781E02D09958F8780918D
:102870001A2B90911B2BDC01ED91FC910680F781C6
:10288000E02D0995BF85BA87198609851A85082B19
:10289000192B80911A2B90911B2BDC01ED91FC914F
:1028A0000680F781E02D09958F8780911A2B9091F2
:1028B0001B2BDC01ED91FC910680F781E02D099541
:1028C000888B998B2D853E85B901330F880B990B29
:1028D0000E94741B20E030E043E852E40E94CA1AD0
:1028E0009B01AC01C701B6010E94E7196B017C0195
:1028F000B801110F880B990B0E94741B20E030E087
:1029000043E852E40E94CA1A9B01AC01C301B20120
:102910000E94E7192B013C013F853C871B866B8594
:102920007C8588899989682B792B072E000C880B68
:10293000990B0E94741B20E030E043E852E40E94AF
:10294000CA1A9B01AC01C501B4010E94E7194B01F1
:102950005C019FEF291A390AA8EB2A16ABE03A0668
:1029600009F01FCF20E030E84BE355E4C701B60182
:102970000E94CA1A60932A2B70932B2B80932C2BC6
:1029800090932D2B20E030E84BE355E4C301B201D6
:102990000E94CA1A60932E2B70932F2B8093302B9A
:1029A0009093312B20E030E84BE355E4C501B401AE
:1029B0000E94CA1A6093322B7093332B8093342B6E
:1029C0009093352B6EE07BE785E79AE20E949B0BA4
:1029D00089E69BE70E94F00B6FE67BE785E79AE2CA
:1029E0000E94EE0B60912A2B70912B2B80912C2B47
:1029F00090912D2B0E94E00C64E77BE785E79AE23B
:102A00000E94EE0B60912E2B70912F2B8091302B1A
:102A10009091312B0E94E00C69E77BE785E79AE211
:102A20000E94EE0B6091322B7091332B8091342BEE
:102A30009091352B0E94E00C8EE79BE70E94F00BF3
:102A400061E17BE785E79AE20E94EE0B68EB7BE0B1
:102A500080E090E00E942A0E80E090E0A0E4B0E4E4
:102A60008093AA299093AB29A093AC29B093AD2968
:102A70008AE097EDA3EABCE38093AE299093AF2957
:102A8000A093B029B093B12980E090E0A8ECB1E424
:102A90008093B2299093B329A093B429B093B52918
:102AA00080E090E0A8ECB2EC8093992990939A2969
:102AB000A0939B29B0939C2980E090E0A8ECB2E41D
:102AC00080939D2990939E29A0939F29B093A0293C
:102AD00040E052EC61E070E08CED99E20E9431053B
:102AE0000E944B0B60E070E085E00E94F00D60E01A
:102AF00070E08AE00E94F00DECEFF0E084918F3FEF
:102B000011F1E5E2F1E09491A82FB8E09B9FA00DB0
:102B10001124A033C0F4B0E0AA0FBB1FA35DB64DD3
:102B20002EEC35E02D933C93E49120E2E29FF001FE
:102B30001124FC5F7096E80FF11D8081887F8083EF
:102B40008081826080831092B6291092B7291092FA
:102B5000B8291092B9298CED99E20E9475011816D6
:102B600019060CF0ABC18CED99E20E94530180373D
:102B700079F52AE037ED43EA5CE36091B229709180
:102B8000B3298091B4299091B5290E94581C6B01FA
:102B90007C012AE037ED43EA5CE36091AE29709155
:102BA000AF298091B0299091B1290E94CA1A4B0196
:102BB0005C012DEC3CEC4CEC5DE36091AA2970913A
:102BC000AB298091AC299091AD290E94E71930C0C2
:102BD0008F3699F52AE037ED43EA5CE36091B2293C
:102BE0007091B3298091B4299091B5290E94581C05
:102BF0006B017C012AE037ED43EA5CE36091AE298A
:102C00007091AF298091B0299091B1290E94CA1A80
:102C10004B015C012DEC3CEC4CEC5DE36091AA298E
:102C20007091AB298091AC299091AD290E94E61951
:102C300087017601A501940197C0893629F52AE01C
:102C400037ED43EA5CE36091B2297091B32980913A
:102C5000B4299091B5290E94581C6B017C012AE08F
:102C600037ED43EA5CE36091AE297091AF29809122
:102C7000B0299091B1290E94CA1A2DEC3CEC4CEC81
:102C80005DE30E94E71964C0853729F52AE037ED36
:102C900043EA5CE36091B2297091B3298091B42931
:102CA0009091B5290E94581C6B017C012AE037EDF8
:102CB00043EA5CE36091AE297091AF298091B0291D
:102CC0009091B1290E94CA1A2DEC3CEC4CEC5DE3CA
:102CD0000E94E6193DC08436A9F42AE037ED43EAA4
:102CE0005CE36091B2297091B3298091B4299091ED
:102CF000B5290E94581C2DEC3CEC4CEC5DE30E9485
:102D0000E71916C0863699F52AE037ED43EA5CE309
:102D10006091B2297091B3298091B4299091B5291D
:102D20000E94581C2DEC3CEC4CEC5DE30E94E61933
:102D30006B017C012AE037ED43EA5CE36091AE2948
:102D40007091AF298091B0299091B1290E94CA1A3F
:102D50009B01AC016091AA297091AB298091AC29AB
:102D60009091AD29870176010E943809A7C0803271
:102D700019F40E944B0BA2C0823709F04CC00E948C
:102D8000370B9B01AC016091B6297091B7298091F6
:102D9000B8299091B9290E94E40A6B017C0120E0D6
:102DA00030E046E154E40E944B1C18166CF480E0BD
:102DB00090E0A6E1B4E48093C2299093C329A09344
:102DC000C429B093C52908C0C092C229D092C32992
:102DD000E092C429F092C52961E070E089E00E9488
:102DE000A50D0E94370B9B01AC016091B629709133
:102DF000B7298091B8299091B9290E94E40A2091BD
:102E0000A529211102C00E94E70831E03093A529CD
:102E10003093042853C0833729F520E030E040E8A0
:102E20005FE36091C2297091C3298091C429909178
:102E3000C5290E94E7196B017C0120E030E046E1E2
:102E400054E40E944B1C1816F4F480E090E0A6E1D4
:102E5000B4E48093C2299093C329A093C429B0936A
:102E6000C5292CC08837C1F420E030E040E85FE39A
:102E70006091C2297091C3298091C4299091C5297C
:102E80000E94E619D8CFC092C229D092C329E092FD
:102E9000C429F092C52912C0833681F480916A2B2F
:102EA00090916B2BA0916C2BB0916D2B80938D2901
:102EB00090938E29A0938F29B09390290E94370B6D
:102EC0009B01AC016091B6297091B7298091B82916
:102ED0009091B9290E94E40A6093CC297093CD297E
:102EE0008093CE299093CF290E946A0EC090CC295E
:102EF000D090CD29E090CE29F090CF29C092A6297C
:102F0000D092A729E092A829F092A9298091A52919
:102F1000882309F4F3C00E945E0E69837A838B8351
:102F20009C838091BE299091BF29A981BA81A81B59
:102F3000B90B54970CF4E6C0A70196016091C22921
:102F40007091C3298091C4299091C5290E94E619E6
:102F50006B017C012091AE293091AF294091B029BD
:102F60005091B1290E94581C2091A1293091A22989
:102F70004091A3295091A4290E94E7194B015C01BB
:102F80006093A1297093A2298093A3299093A429E7
:102F900040909D2950909E2960909F297090A02973
:102FA000A30192010E944B1C18164CF44092A129D7
:102FB0005092A2296092A3297092A42920C08091E6
:102FC000992990919A29A0919B29B0919C298D8350
:102FD0009E83AF83B8879C01AD01C501B4010E94F7
:102FE000C51A87FF0CC08D819E81AF81B885809303
:102FF000A1299093A229A093A329B093A429209159
:10300000AA293091AB294091AC295091AD29C70133
:10301000B6010E94581C2091A1293091A22940910B
:10302000A3295091A4290E94E7194B015C0120912A
:10303000BA293091BB294091BC295091BD29C701C3
:10304000B6010E94E6192091B2293091B32940912E
:10305000B4295091B5290E94581C9B01AC01C501AF
:10306000B4010E94E7194B015C01609395297093AC
:10307000962980939729909398299B01AC01C301CD
:10308000B2010E94C51A87FD10C040909929509046
:103090009A2960909B2970909C29A3019201C501F7
:1030A000B4010E94C51A87FF08C04092952950922A
:1030B0009629609297297092982989819A81AB818B
:1030C000BC818093BE299093BF29A093C029B0935F
:1030D000C129C092BA29D092BB29E092BC29F092B2
:1030E000BD298091952990919629A0919729B09119
:1030F00098298D839E83AF83B88704C01D821E826A
:103100001F8218866D817E818F8198850E943C1B6D
:103110006093CA297093CB29CB010E949C090E941D
:103120005E0E0091C6291091C7292091C8293091BF
:10313000C929AB01BC01401B510B620B730B4A3F09
:1031400051056105710508F4D9C0D901C80186503F
:103150009F4FAF4FBF4F8093C6299093C729A0932D
:10316000C829B093C92961EA7BE78CED99E20E94F6
:10317000EE0B66EA7BE78CED99E20E94EE0B809104
:10318000CA299091CB290E942A0D6EE07BE78CED35
:1031900099E20E94EE0B66EB7BE78CED99E20E94D0
:1031A000EE0B0E94370BAB01BC0122E08CED99E2E3
:1031B0000E94030C6EE07BE78CED99E20E94EE0B1F
:1031C00062EC7BE78CED99E20E94EE0B4091CC29FA
:1031D0005091CD296091CE297091CF2922E08CEDBC
:1031E00099E20E94030C6EE07BE78CED99E20E946D
:1031F000EE0B65ED7BE78CED99E20E94EE0B4091C2
:10320000C2295091C3296091C4297091C52922E037
:103210008CED99E20E94030C6EE07BE78CED99E265
:103220000E94EE0B69EE7BE78CED99E20E94EE0BBB
:103230004091AA295091AB296091AC297091AD2998
:1032400022E08CED99E20E94030C6EE07BE78CEDAE
:1032500099E20E94EE0B6EEE7BE78CED99E20E9404
:10326000EE0B2AE037ED43EA5CE36091AE29709102
:10327000AF298091B0299091B1290E94CA1AAB015F
:10328000BC0122E08CED99E20E94030C6EE07BE72A
:103290008CED99E20E94EE0B63EF7BE78CED99E2F7
:1032A0000E94EE0B2AE037ED43EA5CE36091B2291D
:1032B0007091B3298091B4299091B5290E94581C2E
:1032C000AB01BC0122E08CED99E20E94030C6EE0A0
:1032D0007BE78CED99E20E94EE0B68EF7BE78CEDCB
:1032E00099E20E94EE0B8091042890E00E942A0D42
:1032F0006EE07BE78CED99E20E94EE0B0E9471027A
:103300002ACCECEDF9E21282138288EE93E0A0E081
:10331000B0E084839583A683B78342ED5AE7408368
:10332000518320E238E024873587168621E02787FD
:1033300024E0208B128A138A148A158A2BE1268BAB
:10334000178A108EE5E7FAE212821382848395834E
:10335000A683B7834083518340E658E0448755876E
:103360003AE13687278720E4208B128A138A148A51
:10337000158A26E2268B178A108EEEE0FBE2128277
:10338000138284839583A683B7838CEE9AE7808328
:103390009183E0931A2BF0931B2B8AE097EDA3EA1D
:1033A000BCE380937E2B90937F2BA093802BB093D4
:1033B000812B88E491EEAAE7BFE38093822B909360
:1033C000832BA093842BB093852B08955058BB2753
:1033D000AA270E94FE190C94111C0E94031C38F0AD
:1033E0000E940A1C20F039F49F3F19F426F40C9433
:1033F000D91B0EF4E095E7FB0C94D31BE92F0E9438
:10340000221C58F3BA17620773078407950720F048
:1034100079F4A6F50C94441C0EF4E0950B2EBA2F0B
:10342000A02D0B01B90190010C01CA01A0011124CA
:10343000FF27591B99F0593F50F4503E68F11A1676
:10344000F040A22F232F342F4427585FF3CF469507
:1034500037952795A795F0405395C9F77EF41F1629
:10346000BA0B620B730B840BBAF09150A1F0FF0FF3
:10347000BB1F661F771F881FC2F70EC0BA0F621FDF
:10348000731F841F48F4879577956795B795F795CF
:103490009E3F08F0B0CF9395880F08F09927EE0F64
:1034A0009795879508950E94031C60F080E891E04D
:1034B00009F49EEF0E940A1C28F040E851E071F4E4
:1034C0005EEF0CC00C94D91B0C94441CE92FE078DF
:1034D0000E94221C40F3092E052AB1F32617370754
:1034E0004807590738F00E2E07F8E02569F0E02567
:1034F000E0640AC0EF6307F8009407FADB01B90142
:103500009D01DC01CA01AD01EF930E94E11A0E9406
:10351000111C0E94961A5F91552339F02BED3FE064
:1035200049E450FD49EC0C94E7190895DF93DD2739
:10353000B92FBF7740E85FE31616170648075B0709
:1035400018F4D92F0E94501C9F938F937F936F93F1
:103550000E94C51CE0EAF0E00E94DC1B0E94111CE6
:103560002F913F914F915F910E946B1CDD2351F091
:103570009058A2EA2AED3FE049EC5FE3D0785D275E
:103580000E94FE19DF910C94111C0E94AF1B08F4DD
:1035900081E008950E94DE1A0C94111C0E940A1CFE
:1035A00058F00E94031C40F029F45F3F29F00C946E
:1035B000D31B51110C94451C0C94D91B0E94221C46
:1035C00068F39923B1F3552391F3951B550BBB2752
:1035D000AA2762177307840738F09F5F5F4F220F97
:1035E000331F441FAA1FA9F335D00E2E3AF0E0E88E
:1035F00032D091505040E695001CCAF72BD0FE2FD8
:1036000029D0660F771F881FBB1F2617370748076B
:10361000AB07B0E809F0BB0B802DBF01FF27935823
:103620005F4F3AF09E3F510578F00C94D31B0C94F9
:10363000451C5F3FE4F3983ED4F3869577956795F4
:10364000B795F7959F5FC9F7880F911D9695879558
:1036500097F90895E1E0660F771F881FBB1F621777
:1036600073078407BA0720F0621B730B840BBA0B35
:10367000EE1F88F7E09508950E94431B6894B111EE
:103680000C94451C08950E942A1C88F09F5798F0BE
:10369000B92F9927B751B0F0E1F0660F771F881F57
:1036A000991F1AF0BA95C9F714C0B13091F00E9471
:1036B000441CB1E008950C94441C672F782F882790
:1036C000B85F39F0B93FCCF3869577956795B39598
:1036D000D9F73EF490958095709561957F4F8F4F07
:1036E0009F4F0895E89409C097FB3EF4909580950C
:1036F000709561957F4F8F4F9F4F9923A9F0F92FB8
:1037000096E9BB279395F695879577956795B79535
:10371000F111F8CFFAF4BB0F11F460FF1BC06F5F1B
:103720007F4F8F4F9F4F16C0882311F096E911C02D
:10373000772321F09EE8872F762F05C0662371F04E
:1037400096E8862F70E060E02AF09A95660F771F62
:10375000881FDAF7880F9695879597F90895990F3E
:103760000008550FAA0BE0E8FEEF16161706E8074B
:10377000F907C0F012161306E407F50798F0621B6C
:10378000730B840B950B39F40A2661F0232B242B41
:10379000252B21F408950A2609F4A140A6958FEF60
:1037A000811D811D089597F99F6780E870E060E0B2
:1037B00008959FEF80EC0895DF93CF931F930F93AD
:1037C000FF92EF92DF927B018C01689406C0DA2EA3
:1037D000EF010E946B1CFE01E894A59125913591A3
:1037E00045915591A6F3EF010E94FE19FE01970144
:1037F000A801DA9469F7DF90EF90FF900F911F9185
:10380000CF91DF91089500240A9416161706180622
:103810000906089500240A941216130614060506D4
:103820000895092E0394000C11F4882352F0BB0F65
:1038300040F4BF2B11F460FF04C06F5F7F4F8F4FC8
:103840009F4F089557FD9058440F551F59F05F3F03
:1038500071F04795880F97FB991F61F09F3F79F0B2
:1038600087950895121613061406551FF2CF469534
:10387000F1DF08C0161617061806991FF1CF8695B6
:103880007105610508940895E894BB27662777279A
:10389000CB0197F908950E94AF1B08F48FEF0895AC
:1038A0009B01AC0160E070E080E89FE30C94CA1AD1
:1038B0000E946B1C0C94111C0E94031C38F00E9487
:1038C0000A1C20F0952311F00C94D31B0C94D91BE7
:1038D00011240C94451C0E94221C70F3959FC1F387
:1038E000950F50E0551F629FF001729FBB27F00DAE
:1038F000B11D639FAA27F00DB11DAA1F649F662703
:10390000B00DA11D661F829F2227B00DA11D621F51
:10391000739FB00DA11D621F839FA00D611D221F0B
:10392000749F3327A00D611D231F849F600D211DEF
:10393000822F762F6A2F11249F5750409AF0F1F072
:1039400088234AF0EE0FFF1FBB1F661F771F881FDB
:1039500091505040A9F79E3F510580F00C94D31B25
:103960000C94451C5F3FE4F3983ED4F3869577951D
:103970006795B795F795E7959F5FC1F7FE2B880F81
:10398000911D9695879597F908959B01AC010C942C
:10399000581C0E94AF1B880B990B0895AA1BBB1BD8
:1039A00051E107C0AA1FBB1FA617B70710F0A61B3F
:1039B000B70B881F991F5A95A9F780959095BC0160
:1039C000CD01089597FB072E16F4009407D077FDDC
:1039D00009D00E94CE1C07FC05D03EF4909581953D
:1039E0009F4F0895709561957F4F0895A1E21A2E1B
:1039F000AA1BBB1BFD010DC0AA1FBB1FEE1FFF1F93
:103A0000A217B307E407F50720F0A21BB30BE40BE2
:103A1000F50B661F771F881F991F1A9469F7609529
:103A20007095809590959B01AC01BD01CF010895E3
:103A3000052E97FB1EF400940E942F1D57FD07D002
:103A40000E94F61C07FC03D04EF40C942F1D5095D9
:103A50004095309521953F4F4F4F5F4F089590957A
:103A60008095709561957F4F8F4F9F4F08950E946D
:103A7000501DA59F900DB49F900DA49F800D911D8A
:103A800011240895B7FF0C94371D0E94371D821B27
:103A9000930B0895EE0FFF1F0590F491E02D09940C
:103AA000A29FB001B39FC001A39F700D811D11247F
:103AB000911DB29F700D811D1124911D089581E00B
:0C3AC00090E0F8940C94641DF894FFCF83
:103ACC00B00A00000000ED01E4007501530167012C
:103ADC00490231053C0595019702440100000000A4
:103AEC009C0377036F035B034C034B03CC048704E9
:103AFC007A041604DE03BF03B703ED03E5032403C6
:103B0C001F030D0A003D3D3D3D3D3D3D3D3D3D3DD1
:103B1C003D3D3D3D3D3D3D3D3D3D3D3D3D3D3D3DC9
:103B2C003D3D3D3D3D3D3D3D3D3D3D3D3D004361CC
:103B3C006C63756C6174696E67206779726F206F46
:103B4C0066667365747300444F204E4F54204D4F7E
:103B5C005645204D505536303530002E00446F6E92
:103B6C0065210058203A200059203A20005A203A6A
:103B7C00200050726F6772616D2077696C6C2073D6
:103B8C00746172742061667465722033207365638E
:103B9C006F6E6473001B5B324A006D6F746F722022
:103BAC0063757272656E743A2000494D5520616ED2
:103BBC00676C653A200063757272656E7420706F65
:103BCC00736974696F6E3A2000506F736974696F12
:103BDC006E20536574706F696E743A20004B703AA6
:103BEC0020004B693A20004B643A20004B696C6C06
:103BFC00207377697463682073746174653A20006C
:0C3C0C006E616E00696E66006F766600E7
:063C18000024F40001008D
:00000001FF
