:100000000C94A3000C94CB000C94CB000C94CB006C
:100010000C94CB000C94CB000C94A1060C94CB0058
:100020000C94CB000C94CB000C94CB000C94CB0024
:100030000C94CB000C94CB000C94CB000C94CB0014
:100040000C94CB000C94CB000C94CB000C94CB0004
:100050000C9432060C94CB000C94CB000C94CB0087
:100060000C9457060C94CB000C9449030C94230376
:100070000C94CB000C94E8050C94CB000C94CB00B2
:100080000C94CB000C94CB000C947C060C940D06C5
:100090000C94C9080C94CB000C94CB000C94CB00AE
:1000A0000000000300010200000101000000000048
:1000B0000000000000000000000000000000000040
:1000C0000000000000000000000504000506020416
:1000D0000103000100010200010203040502030301
:1000E00005040605040607030700010202030001D8
:1000F00007060202000502010500040101040404D0
:1001000003030303030300000200000301010000D6
:100110000102020202050505050305201001204029
:100120000410020801020102040102040810200464
:1001300008082010402010408008800102040408B4
:10014000010280402D0911241FBECFEFCDBFDFE398
:10015000DEBF18E2A0E0B8E2EEEFF3E202C00590E5
:100160000D92A630B107D9F729E2A6E0B8E201C0A6
:100170001D92AC34B207E1F710E0C3EAD0E004C04E
:100180002197FE010E949311C23AD107C9F70E943C
:100190004F090C94B8110C940000FC015489458956
:1001A000252F30E0842F90E0821B930B541710F022
:1001B000CF96089501970895FC0192898389981735
:1001C00061F08389DF01A80FB11D59968C91938945
:1001D0009F5F9F73938B90E008958FEF9FEF08953B
:1001E000FC0192898389981731F08389E80FF11D0A
:1001F000818D90E008958FEF9FEF0895FC01928923
:100200002389892F90E0805C9F4F821B91098F7317
:10021000992708958DEA98E20E94FE0021E0892B3B
:1002200009F420E0822F0895CF93DF93EC01E88159
:10023000F9810284F385E02D0995EC85FD858681A1
:100240008F738683EC85FD8585818F7585838B898A
:100250008A8B198ADF91CF910895CF93DF93FC01A8
:1002600094898589A485B585981307C015968C91C6
:1002700015978F7D15968C932CC08589EF01C80F3B
:10028000D11DC75ADF4F2881858990E001968F7371
:100290009927858B80E414968C93A485B585129656
:1002A0002C93A485B58514968C91149785FFFBCF6C
:1002B0009489858998130DC015968C9115978F7D1B
:1002C00015968C938789882321F0808D8093130164
:1002D000178ADF91CF910895EF92FF920F931F93AA
:1002E000CF93DF93FC0181E0818B948985899813FA
:1002F00007C0A485B58514968C91149785FD2EC0F2
:100300008091110180FF08C080911301808F868940
:100310008093130181E0878BF62EEF01048910E0B2
:100320000F5F1F4F0F731127E02E8D89E81209C050
:100330000FB607FE29C0EC85FD85858185FDF5CFCB
:1003400023C08C89FE01E80FF11DE75AFF4FF082B0
:100350000C8BEC85FD85858180620CC012966C93B8
:10036000A485B58580E414968C930484F585E02DEE
:1003700085818F7D858381E090E0DF91CF911F9112
:100380000F91FF90EF900895CE010E942D01CDCFE7
:10039000CF93DF93FC0121892223F9F0EC018091B6
:1003A000110180FF08C080911301808F868980939E
:1003B000130181E0878BEC85FD85858185FD03C078
:1003C000848186FD0AC00FB607FE03C0858185FDC6
:1003D000F4CFCE010E942D01EECFDF91CF91089591
:1003E00080E090E0892B41F080E090E0892B21F0C3
:1003F0000E940000811115C080E090E0892B21F05F
:100400000E940A01811110C080E090E0892B89F0E0
:1004100080E090E0892B69F00E940000811107C004
:1004200008950E940000E8CF0E940000EDCF0C94D8
:100430000000089581E00895DC01ED91FC910684AF
:10044000F785E02D23E030E009948F929F92AF92E0
:10045000BF92EF92FF920F931F93CF93DF93EC0124
:100460004A015B01E22E8989882339F0E881F9810C
:100470000088F189E02DCE01099598898091E205E7
:10048000892B8093E205FFB6F89480910028909123
:100490000128A0910228B0910328BC01CD0123E0DE
:1004A000660F771F881F991F2A95D1F7A501940120
:1004B0000E944A1149015A018FEF881A980AA80A26
:1004C000B80AB694A79497948794EC85FD858681A5
:1004D0008D7F8683EC85FD8586818683198A8E854E
:1004E00062E070E00E948F088F8561E070E00E94FA
:1004F00044088F8561E070E00E948F08809123118D
:10050000E82F880FFF0BDF01BC5FA50194010E945B
:100510008B110C851D85AF01F7FF03C051954195E7
:10052000510920E034E0241B350B032E000C440B52
:10053000550B0E946C11F80120873187EC85FD85F1
:10054000E782EC85FD858681806C8683EC85FD8560
:10055000858180688583FFBEDF91CF911F910F91C8
:10056000FF90EF90BF90AF909F908F900895CF93A2
:10057000E5E2F1E0C491CF3FD9F08AE00E9416088D
:10058000ECEFF0E0A49180E2A89FD0011124BC5FC1
:100590001896EC91EC2361F080918B2890918C2837
:1005A000A0918D28B0918E280197A109B1090BC0A7
:1005B00080918B2890918C28A0918D28B0918E28C5
:1005C0000196A11DB11D80938B2890938C28A09338
:1005D0008D28B0938E28CF910895EF92FF920F93BC
:1005E0001F93CF93DF93863030F490E2899FE00130
:1005F0001124DC5F02C0C0E0D0E0E984182F110FA5
:10060000110F110FFF24F39400E08E2D8F2179F04C
:10061000E12FE00FF0E0EE0FFF1FEA5FF74D808162
:100620009181892B21F00190F081E02D09950F5FD8
:10063000FF0C083051F7E986DF91CF911F910F91A0
:10064000FF90EF9008951F920F920FB60F92112412
:100650002F933F934F935F936F937F938F939F93CA
:10066000AF93BF93EF93FF938DEA98E20E942D0121
:10067000FF91EF91BF91AF919F918F917F916F917A
:100680005F914F913F912F910F900FBE0F901F9050
:1006900018951F920F920FB60F9211242F938F93DC
:1006A0009F93EF93FF93E091B928F091BA2881814D
:1006B00081FD12C090818091BF288F5F8F73209140
:1006C000C028821751F0E091BF28F0E0E355F74DC4
:1006D000918F8093BF2801C08081FF91EF919F91FE
:1006E0008F912F910F900FBE0F901F9018958F92A2
:1006F0009F92AF92BF92CF92DF92EF92FF92609360
:100700007B2870937C2880937D2890937E2860932B
:100710006A2870936B2880936C2890936D28C09002
:100720006628D0906728E0906828F0906928C092E9
:100730007628D0927728E0927828F09279288090D5
:10074000722890907328A0907428B0907528A50105
:100750009401C701B6010E94BF10181684F0809062
:100760006E2890906F28A0907028B0907128A501F5
:100770009401C701B6010E94600F87FF08C08092F4
:10078000762890927728A0927828B0927928FF90C6
:10079000EF90DF90CF90BF90AF909F908F90089593
:1007A0004F925F926F927F928F929F92AF92BF9281
:1007B000CF92DF92EF92FF920F931F932B013C0198
:1007C00049015A016701780120E030E0A9010E9447
:1007D000600F87FD3AC020E030E0A901C501B401F7
:1007E0000E94600F87FD31C020E030E0A901C70101
:1007F000B6010E94600F87FD28C040927F2850926A
:10080000802860928128709282282DEC3CEC4CE488
:100810005DE3C501B4010E94C41060938328709306
:10082000842880938528909386282DEC3CEC4CE41A
:100830005DE3C701B6010E94650F6093872870933E
:1008400088288093892890938A281F910F91FF9080
:10085000EF90DF90CF90BF90AF909F908F907F9060
:100860006F905F904F900895CF93DF93EC0197FFC7
:1008700009C060E070E084E00E944408D195C19511
:10088000D1090AC061E070E084E00E94440820972A
:1008900019F460E070E080C0C630D1051CF460E05F
:1008A00070E083C0CB30D1051CF460E070E086C0FE
:1008B000C031D1051CF460E070E089C0C531D105BC
:1008C0001CF460E070E08CC0C931D1051CF460E01C
:1008D00070E08FC0CE31D10594F460E070E08EE01E
:1008E0000E94440860E070E08FE00E94440861E0EC
:1008F00070E080E10E94440861E070E0CDC0C33246
:10090000D1051CF460E070E081C0C732D1056CF401
:1009100060E070E08EE00E94440861E070E08FE0EB
:100920000E94440860E070E0B2C0CC32D1051CF4F3
:1009300060E070E078C0C033D1051CF460E070E086
:1009400080C0C433D1051CF460E070E088C0C933B6
:10095000D10524F460E070E08EE090C0CD33D10585
:1009600024F460E070E08EE0A0C0C034D10544F40F
:1009700060E070E08EE00E94440861E070E0B4CF77
:10098000C434D10524F460E070E08EE09DC061E0E5
:1009900070E0C834D10534F48EE00E94440860E071
:1009A00070E0BDCFCB34D10534F48EE00E94440812
:1009B00060E070E03DC0CE34D10534F48EE00E949A
:1009C000440860E070E042C0C135D10534F48EE0E7
:1009D0000E94440860E070E047C0C435D10534F49B
:1009E0008EE00E94440860E070E04CC0C735D1053D
:1009F00034F48EE00E94440860E070E05AC0C935CB
:100A0000D1050CF46CCFCB35D10534F48EE00E94C7
:100A1000440860E070E05CC0CD35D1050CF47ACFBD
:100A2000CF35D1055CF48EE00E94440861E070E0AF
:100A30008FE00E94440860E070E040C0C136D105FC
:100A40005CF48EE00E94440861E070E08FE00E9458
:100A5000440860E070E04DCFC136D10559F48EE016
:100A60000E94440861E070E08FE00E94440860E06A
:100A700070E033C08EE0C236D105A1F40E94440874
:100A800061E070E08FE00E94440861E070E080E186
:100A90000E94440860E070E081E10E94440860E048
:100AA00070E025C0C336D10579F40E94440861E0A6
:100AB00070E08FE00E94440861E070E080E10E94F5
:100AC000440860E070E00EC00E94440861E070E0FD
:100AD0008FE00E94440861E070E080E10E944408D9
:100AE00061E070E081E10E94440861E070E082E131
:100AF000DF91CF910C94440880E090E00E94340490
:100B000060E070E089E00E94440860918B28709159
:100B10008C2880918D2890918E2820917A282223EC
:100B200031F10E940F1020E030E040E85DE30E94C8
:100B3000C41020E030E040EF51E40E94650F20E057
:100B400030E040E450E40E94650F9B01AC010E943C
:100B5000F40E2BED3FE049E450E40E94C41020E085
:100B600030E040EA50E40E94C4100E9477031092E3
:100B70007A28109204280895CF92DF92EF92FF9284
:100B80000F931F93CF93DF936C017A018B01C0E029
:100B9000D0E0CE15DF0581F0D8016D918D01D60131
:100BA000ED91FC910190F081E02DC6010995892B12
:100BB00011F02196EECF7E01C701DF91CF911F91F9
:100BC0000F91FF90EF90DF90CF9008950E94B311A6
:100BD0001F920F920FB60F9211242F933F934F93B2
:100BE0005F936F937F938F939F93AF93BF93EF9395
:100BF000FF9385E00E94ED02FF91EF91BF91AF91CD
:100C00009F918F917F916F915F914F913F912F9124
:100C10000F900FBE0F901F9018951F920F920FB656
:100C20000F9211242F933F934F935F936F937F9372
:100C30008F939F93AF93BF93EF93FF9384E00E94B2
:100C4000ED02FF91EF91BF91AF919F918F917F91B5
:100C50006F915F914F913F912F910F900FBE0F9029
:100C60001F9018951F920F920FB60F9211242F9379
:100C70003F934F935F936F937F938F939F93AF9324
:100C8000BF93EF93FF9383E00E94ED02FF91EF91FA
:100C9000BF91AF919F918F917F916F915F914F9194
:100CA0003F912F910F900FBE0F901F9018951F929C
:100CB0000F920FB60F9211242F933F934F935F9390
:100CC0006F937F938F939F93AF93BF93EF93FF9314
:100CD00082E00E94ED02FF91EF91BF91AF919F9151
:100CE0008F917F916F915F914F913F912F910F90D5
:100CF0000FBE0F901F9018951F920F920FB60F9274
:100D000011242F933F934F935F936F937F938F9310
:100D10009F93AF93BF93EF93FF9381E00E94ED0207
:100D2000FF91EF91BF91AF919F918F917F916F91C3
:100D30005F914F913F912F910F900FBE0F901F9099
:100D400018951F920F920FB60F9211242F933F9375
:100D50004F935F936F937F938F939F93AF93BF93C3
:100D6000EF93FF9380E00E94ED02FF91EF91BF911E
:100D7000AF919F918F917F916F915F914F913F9133
:100D80002F910F900FBE0F901F901895009769F04C
:100D9000FC0101900020E9F73197AF01481B590B86
:100DA000BC018DEA98E20C94BC0580E090E00895C7
:100DB0008F929F92AF92BF920F931F93CF93DF9327
:100DC000CDB7DEB7A197CDBFDEBF19A2423008F480
:100DD0004AE08E010F5D1F4F842E912CA12CB12C67
:100DE000A50194010E944A11E62FB901CA010150E0
:100DF0001109EA3014F4E05D01C0E95CD801EC931C
:100E0000232B242B252B61F7C8010E94C606A1962F
:100E1000CDBFDEBFDF91CF911F910F91BF90AF90FB
:100E20009F908F9008950C94C606CF92DF92EF9218
:100E3000FF92CF93DF936C01990FEE08FF08F7FE46
:100E400019C06DE28DEA98E20E946C01EC01662700
:100E50007727CB016C197D098E099F094AE00E9412
:100E6000D8068C0F9D1FDF91CF91FF90EF90DF9000
:100E7000CF9008954AE0C701B601DF91CF91FF906E
:100E8000EF90DF90CF900C94D8068F929F92AF9204
:100E9000BF92CF92DF92EF92FF920F931F93CF9367
:100EA000DF936B017C01142F9B01AC010E94311177
:100EB000882319F080EF93E627C046015701E89494
:100EC000B7F82FEF3FEF4FE75FE7C501B4010E948E
:100ED000311181110DC02FEF3FEF4FE75FE7C501E3
:100EE000B4010E94600F18161CF484EF93E60CC046
:100EF0002FEF3FEF4FE75FE4C701B6010E94BF103D
:100F0000181684F488EF93E6DF91CF911F910F912B
:100F1000FF90EF90DF90CF90BF90AF909F908F9019
:100F20000C94C6062FEF3FEF4FE75FECC701B60109
:100F30000E94600F87FDE6CF20E030E0A901C701E5
:100F4000B6010E94600F87FF0BC06DE28DEA98E248
:100F50000E946C01EC01F7FAF094F7F8F09402C0EB
:100F6000C0E0D0E000E060E070E080E09FE31017B8
:100F700041F020E030E040E251E40E94650F0F5F55
:100F8000F6CFA70196010E94F40E6B017C010E942E
:100F9000DE0F4B015C014AE00E94D806C80FD91F42
:100FA0001123B1F1C501B4010E940D109B01AC01E8
:100FB000C701B6010E94F30E6B017C018CEF93E632
:100FC0000E94C606C80FD91F20E030E040E251E47D
:100FD000C701B6010E94C4104B015C010E94DE0FE4
:100FE0006B01E12CF12C4AE0C701B6010E94D80642
:100FF000C80FD91FC701B6010E940D109B01AC019B
:10100000C501B4010E94F30E6B017C011150E1F6A1
:10101000CE01DF91CF911F910F91FF90EF90DF9064
:10102000CF90BF90AF909F908F900895893258F5E0
:1010300090E0FC01E056FF4FE491EE2321F1E13016
:1010400021F008F1E630B0F00895FC01E753FF4FBE
:1010500084914091010A8C5F21E030E0B90102C027
:10106000660F771F8A95E2F7CB01809584238093E2
:10107000010A089570E1E79FF0011124E05AF54F4D
:1010800081818F7E81830895FF920F931F93CF9369
:10109000DF93893208F03DC0082F10E0F801E55ECB
:1010A000FE4FF4909FEFF916A1F1EB010E94160894
:1010B000F801EE50FF4FA49180E2A89FD0011124C7
:1010C000BC5F8C918F2169F0209719F41696FC92E1
:1010D00020C0229719F41796FC921BC01596FC921B
:1010E00018C0F801E753FF4FE491109731F0EF3F3C
:1010F00021F05096AE0FB11D02C0A0E0B0E09FB746
:10110000F8948C91CD2B11F4877F01C088608C936B
:101110009FBFDF91CF911F910F91FF900895CF93C3
:10112000DF93893298F590E0FC01E55EFE4F249153
:101130002F3F61F16330710548F5FC01EE50FF4F20
:10114000A49130E2A39FD0011124BC5F61307105EE
:1011500019F411962C931AC0FC01E753FF4F8491A8
:101160008F3F29F0ED016096C80FD11D02C0C0E08D
:10117000D0E09FB7F89412962C9388816230710565
:1011800011F4886001C0877F88839FBFDF91CF9172
:1011900008951F920F920FB60F9211242F933F9331
:1011A0004F935F936F937F938F939F93AF93BF936F
:1011B0004091A9285091AA286091AB287091AC2841
:1011C00020914A2930914B298091A7289091A828F5
:1011D000480F591F611D711D8091A5289091A62867
:1011E000820F931F883E23E0920730F0885E934081
:1011F0004F5F5F4F6F4F7F4F80934A2990934B29EA
:101200004093A9285093AA286093AB287093AC28E8
:101210008091462990914729A0914829B091492968
:101220000196A11DB11D8093462990934729A09353
:101230004829B093492981E08093B60ABF91AF91C4
:101240009F918F917F916F915F914F913F912F91DE
:101250000F900FBE0F901F901895EDEAF8E21282E2
:10126000138288EE93E0A0E0B0E084839583A683A8
:10127000B78388E793E68083918380E298E0848750
:101280009587168681E0878784E0808B128A138A8F
:10129000148A158A8BE1868B178A108E0895CF9356
:1012A000DF93CDB7DEB72C97CDBFDEBF90E088EDE2
:1012B00084BF9093610080E094E2A4EFB0E080935B
:1012C000002890930128A0930228B09303288091CE
:1012D00002068660809302068091000681608093FA
:1012E0000006809102068F7C809302068091A00008
:1012F0008F788093A000809102068061809302061F
:101300001092E20581E08093E40583E08093010A76
:101310008FEF90E08093260A9093270A80E890E070
:101320008093380A9093390A80933A0A90933B0A43
:1013300080933C0A90933D0A8BE08093000A809151
:10134000E50581608093E5058091E50582608093E5
:10135000E505E0E8FAE037E02FEF90E885E031833B
:101360002487958780837096E03C4AE0F407B9F7BC
:1013700080E094E080939128909392288091912826
:10138000909192282FEF30E0B9010E9436116093BE
:101390008F28709390288091912890919228E8EE60
:1013A000F3E0BF010E9436116093A7287093A8282C
:1013B0008091912890919228BF010E9436118093CC
:1013C000A5289093A6282093BC0A3093BD0A80914B
:1013D000B50A81608093B50A84E08093B00A809159
:1013E000B00A81608093B00A789461E070E08CE18B
:1013F0000E948F0861E070E08CE10E94440861E087
:1014000070E08DE10E948F0861E070E08DE10E9444
:10141000440861E070E083E20E948F0861E070E0C0
:1014200083E20E94440861E070E08EE10E948F0830
:1014300061E070E08EE10E94440861E070E084E0C9
:101440000E948F0861E070E089E00E948F0861E0EF
:1014500070E088E00E948F0861E070E087E00E9401
:101460008F0861E070E08EE00E948F0861E070E01C
:101470008FE00E948F0861E070E080E10E948F0899
:1014800061E070E081E10E948F0861E070E082E13C
:101490000E948F0860E070E082E00E948F0860E0A8
:1014A00070E088E00E94440861E070E087E00E94FC
:1014B000440880919F289091A0280E94340480E0E5
:1014C00090E0A0EFB1E480937F2890938028A093D0
:1014D0008128B093822880E090E0A0E0BFE3809371
:1014E000832890938428A0938528B093862880E051
:1014F00090E0A8ECB2E48093872890938828A0938A
:101500008928B0938A2840E050E068EC72EC409360
:101510006E2850936F286093702870937128809381
:10152000722890937328A0937428B09375286091C3
:101530008B2870918C2880918D2890918E280E9404
:101540000F1020E030E040E85DE30E94C41020E08E
:1015500030E040EF51E40E94650F20E030E040E4CD
:1015600050E40E94650F9B01AC010E94F40E2BED2C
:101570003FE049E450E40E94C41020E030E040EA3B
:1015800050E40E94C41020917A28211102C00E94C8
:10159000770381E080937A2840E052EC61E070E0CC
:1015A0008DEA98E20E941C020E947C0560E070E0D7
:1015B00085E00E948F0860E070E08AE00E948F085A
:1015C000EEECF0E084918F3F11F1E7EFF0E09491C1
:1015D000A82F58E0959FA00D1124A033C0F4B0E0CF
:1015E000AA0FBB1FAA5FB74D27EB32E02D933C93A8
:1015F000E49190E2E99FF0011124FC5F7096E80FFE
:10160000F11D8081887F8083808182608083109239
:101610008B2810928C2810928D2810928E288DEA9B
:1016200098E20E94FE00181619060CF0D4C18DEA4B
:1016300098E20E94DC00803779F52DEC3CEC4CE41C
:101640005DE3609187287091882880918928909126
:101650008A280E94C4106B017C012DEC3CEC4CE408
:101660005DE3609183287091842880918528909112
:1016700086280E94650F2B013C012DEC3CEC4CECC4
:101680005DE360917F2870918028809181289091FE
:1016900082280E94F40E30C08F3699F52DEC3CEC78
:1016A0004CE45DE3609187287091882880918928B7
:1016B00090918A280E94C4106B017C012DEC3CECB7
:1016C0004CE45DE3609183287091842880918528A3
:1016D000909186280E94650F2B013C012DEC3CEC7B
:1016E0004CEC5DE360917F28709180288091812887
:1016F000909182280E94F30E87017601A301920146
:1017000097C0893629F52DEC3CEC4CE45DE3609103
:101710008728709188288091892890918A280E9432
:10172000C4106B017C012DEC3CEC4CE45DE360915A
:1017300083287091842880918528909186280E9422
:10174000650F2DEC3CEC4CEC5DE30E94F40E64C0A4
:10175000853729F52DEC3CEC4CE45DE3609187285E
:10176000709188288091892890918A280E94C410BD
:101770006B017C012DEC3CEC4CE45DE36091832833
:101780007091842880918528909186280E94650F09
:101790002DEC3CEC4CEC5DE30E94F30E3DC0843636
:1017A000A9F42DEC3CEC4CE45DE36091872870914A
:1017B00088288091892890918A280E94C4102DEC55
:1017C0003CEC4CEC5DE30E94F40E16C0863699F5B5
:1017D0002DEC3CEC4CE45DE3609187287091882807
:1017E0008091892890918A280E94C4102DEC3CECAD
:1017F0004CEC5DE30E94F30E6B017C012DEC3CECA4
:101800004CE45DE360918328709184288091852861
:10181000909186280E94650F9B01AC0160917F2802
:10182000709180288091812890918228870176018B
:101830000E94D003D0C0803219F40E947C05CBC036
:10184000823709F088C060918B2870918C28809134
:101850008D2890918E280E940F1020E030E040E803
:101860005DE30E94C41020E030E040EF51E40E94AC
:10187000650F20E030E040E450E40E94650F9B01DA
:10188000AC010E94F40E2BED3FE049E450E40E94CD
:10189000C41020E030E040EA50E40E94C4106B0124
:1018A0007C0120E030E046E154E40E94BF101816AD
:1018B0006CF480E090E0A6E1B4E4809397289093E4
:1018C0009828A0939928B0939A2808C0C092972886
:1018D000D0929828E0929928F0929A2861E070E0DE
:1018E00089E00E94440860918B2870918C28809137
:1018F0008D2890918E2820917A28211126C00E944F
:101900000F1020E030E040E85DE30E94C41020E0CA
:1019100030E040EF51E40E94650F20E030E040E409
:1019200050E40E94650F9B01AC010E94F40E2BED68
:101930003FE049E450E40E94C41020E030E040EA77
:1019400050E40E94C4100E947703A1E0A0937A287B
:10195000A093042840C0833779F420E030E040E8C9
:101960005FE36091972870919828809199289091D1
:101970009A280E94F40E10C0883769F520E030E004
:1019800040E85FE3609197287091982880919928AA
:1019900090919A280E94F30E6B017C0120E030E0C8
:1019A00046E154E40E94BF1018166CF480E090E009
:1019B000A6E1B4E48093972890939828A09399285F
:1019C000B0939A2808C0C0929728D0929828E092A5
:1019D0009928F0929A2860918B2870918C28809198
:1019E0008D2890918E280E940F1020E030E040E872
:1019F0005DE30E94C41020E030E040EF51E40E941B
:101A0000650F20E030E040E450E40E94650F9B0148
:101A1000AC010E94F40E2BED3FE049E450E40E943B
:101A2000C41020E030E040EA50E40E94C41060930B
:101A3000A1287093A2288093A3289093A428609350
:101A40007B2870937C2880937D2890937E288091BA
:101A50007A28882309F403C18FB7F8942091A92824
:101A60003091AA284091AB285091AC2829873A8719
:101A70004B875C878FBF8091932890919428281B77
:101A8000390B223331050CF4EDC040907B28509087
:101A90007C2860907D2870907E28A301920160913F
:101AA0009728709198288091992890919A280E945F
:101AB000F30E69837A838B839C83209183283091F2
:101AC000842840918528509186280E94C410209136
:101AD00076283091772840917828509179280E9473
:101AE000F40E4B015C016093762870937728809305
:101AF000782890937928C0907228D0907328E0902D
:101B00007428F0907528A70196010E94BF1018163E
:101B10004CF4C0927628D0927728E0927828F09200
:101B2000792820C080916E2890916F28A09170280C
:101B3000B09171288D839E83AF83B8879C01AD01DE
:101B4000C501B4010E94600F87FF0CC02D813E814A
:101B50004F815885209376283093772840937828B2
:101B60005093792820917F283091802840918128B6
:101B70005091822869817A818B819C810E94C41056
:101B800020917628309177284091782850917928B3
:101B90000E94F40E4B015C0120916A2830916B2861
:101BA00040916C2850916D28C301B2010E94F30E40
:101BB00020918728309188284091892850918A283F
:101BC0000E94C4109B01AC01C501B4010E94F30E38
:101BD0004B015C01609366287093672880936828A6
:101BE000909369289B01AC01C701B6010E94600F68
:101BF00087FD10C0C0906E28D0906F28E0907028AC
:101C0000F0907128A7019601C501B4010E94600FF0
:101C100087FF08C0C0926628D0926728E0926828A3
:101C2000F092692840926A2850926B2860926C2842
:101C300070926D2889859A85AB85BC8580939328A1
:101C400090939428A0939528B09396288090662826
:101C500090906728A0906828B090692803C0812CD4
:101C6000912C5401C501B4010E94D70F60939F28A5
:101C70007093A028CB010E9434048FB7F894409150
:101C8000A9285091AA286091AB287091AC288FBFE9
:101C900080919B2890919C28A0919D28B0919E288E
:101CA000481B590B6A0B7B0B4A3F510561057105B7
:101CB00008F496C086509F4FAF4FBF4F80939B282C
:101CC00090939C28A0939D28B0939E288EE893E63D
:101CD0000E94130783E993E60E94130780919F28CF
:101CE0009091A0280E94150783EA93E60E941307AB
:101CF00086EA93E60E9413076091A1287091A228BA
:101D00008091A3289091A42842E00E94450783EA8D
:101D100093E60E94130789EB93E60E9413076091F4
:101D20009728709198288091992890919A2842E05C
:101D30000E94450783EA93E60E9413078DEC93E621
:101D40000E94130760917F287091802880918128DC
:101D50009091822842E00E94450783EA93E60E9420
:101D6000130782ED93E60E9413072DEC3CEC4CE444
:101D70005DE36091832870918428809185289091FB
:101D800086280E94650F42E00E94450783EA93E699
:101D90000E94130787ED93E60E9413072DEC3CEC9D
:101DA0004CE45DE3609187287091882880918928B0
:101DB00090918A280E94C41042E00E94450783EA5D
:101DC00093E60E9413078CED93E60E94130780911F
:101DD000042890E00E94150783EA93E60E94130707
:101DE0000E94F0011CCC5058BB27AA270E940B0F61
:101DF0000C9485100E94771038F00E947E1020F01D
:101E000039F49F3F19F426F40C9474100EF4E09505
:101E1000E7FB0C946E10E92F0E94961058F3BA1746
:101E2000620773078407950720F079F4A6F50C94F0
:101E3000B8100EF4E0950B2EBA2FA02D0B01B901AE
:101E400090010C01CA01A0011124FF27591B99F030
:101E5000593F50F4503E68F11A16F040A22F232F3C
:101E6000342F4427585FF3CF469537952795A7958C
:101E7000F0405395C9F77EF41F16BA0B620B730B33
:101E8000840BBAF09150A1F0FF0FBB1F661F771FA4
:101E9000881FC2F70EC0BA0F621F731F841F48F459
:101EA000879577956795B795F7959E3F08F0B0CFE2
:101EB0009395880F08F09927EE0F979587950895C9
:101EC0000E944A1008F481E008950E94790F0C9452
:101ED00085100E947E1058F00E94771040F029F47F
:101EE0005F3F29F00C946E1051110C94B9100C94B2
:101EF00074100E94961068F39923B1F3552391F35F
:101F0000951B550BBB27AA2762177307840738F068
:101F10009F5F5F4F220F331F441FAA1FA9F335D0C5
:101F20000E2E3AF0E0E832D091505040E695001C79
:101F3000CAF72BD0FE2F29D0660F771F881FBB1F33
:101F4000261737074807AB07B0E809F0BB0B802D11
:101F5000BF01FF2793585F4F3AF09E3F510578F03D
:101F60000C946E100C94B9105F3FE4F3983ED4F3D8
:101F7000869577956795B795F7959F5FC9F7880F11
:101F8000911D9695879597F90895E1E0660F771F63
:101F9000881FBB1F621773078407BA0720F0621BF4
:101FA000730B840BBA0BEE1F88F7E09508950E941F
:101FB000DE0F6894B1110C94B91008950E949E1020
:101FC00088F09F5798F0B92F9927B751B0F0E1F0FA
:101FD000660F771F881F991F1AF0BA95C9F714C0AA
:101FE000B13091F00E94B810B1E008950C94B8108F
:101FF000672F782F8827B85F39F0B93FCCF38695E3
:1020000077956795B395D9F73EF49095809570953F
:1020100061957F4F8F4F9F4F0895E89409C097FBBC
:102020003EF490958095709561957F4F8F4F9F4FAF
:102030009923A9F0F92F96E9BB279395F6958795F3
:1020400077956795B795F111F8CFFAF4BB0F11F4B6
:1020500060FF1BC06F5F7F4F8F4F9F4F16C088235D
:1020600011F096E911C0772321F09EE8872F762F93
:1020700005C0662371F096E8862F70E060E02AF0D4
:102080009A95660F771F881FDAF7880F96958795C0
:1020900097F90895990F0008550FAA0BE0E8FEEF95
:1020A00016161706E807F907C0F012161306E4071C
:1020B000F50798F0621B730B840B950B39F40A2615
:1020C00061F0232B242B252B21F408950A2609F4F3
:1020D000A140A6958FEF811D811D089597F99F67F7
:1020E00080E870E060E008959FEF80EC08950024A0
:1020F0000A941616170618060906089500240A946D
:1021000012161306140605060895092E0394000CF2
:1021100011F4882352F0BB0F40F4BF2B11F460FF81
:1021200004C06F5F7F4F8F4F9F4F089557FD9058AA
:10213000440F551F59F05F3F71F04795880F97FB8B
:10214000991F61F09F3F79F0879508951216130645
:102150001406551FF2CF4695F1DF08C01616170674
:102160001806991FF1CF86957105610508940895A9
:10217000E894BB2766277727CB0197F908950E943B
:102180004A1008F48FEF08950E94D7100C94851020
:102190000E94771038F00E947E1020F0952311F0F5
:1021A0000C946E100C94741011240C94B9100E94AD
:1021B000961070F3959FC1F3950F50E0551F629FE5
:1021C000F001729FBB27F00DB11D639FAA27F00D90
:1021D000B11DAA1F649F6627B00DA11D661F829FB7
:1021E0002227B00DA11D621F739FB00DA11D621F9C
:1021F000839FA00D611D221F749F3327A00D611DB9
:10220000231F849F600D211D822F762F6A2F11249A
:102210009F5750409AF0F1F088234AF0EE0FFF1FCD
:10222000BB1F661F771F881F91505040A9F79E3F24
:10223000510580F00C946E100C94B9105F3FE4F3DC
:10224000983ED4F3869577956795B795F795E7957A
:102250009F5FC1F7FE2B880F911D9695879597F983
:1022600008950E944A10880B990B0895AA1BBB1B66
:1022700051E107C0AA1FBB1FA617B70710F0A61B86
:10228000B70B881F991F5A95A9F780959095BC01A7
:10229000CD010895A1E21A2EAA1BBB1BFD010DC0A2
:1022A000AA1FBB1FEE1FFF1FA217B307E407F50706
:1022B00020F0A21BB30BE40BF50B661F771F881FE2
:1022C000991F1A9469F760957095809590959B0178
:1022D000AC01BD01CF010895052E97FB1EF40094BB
:1022E0000E94831157FD07D00E944A1107FC03D0BA
:1022F0004EF40C94831150954095309521953F4FA5
:102300004F4F5F4F089590958095709561957F4FE1
:102310008F4F9F4F0895B7FF0C9499110E94991108
:10232000821B930B0895EE0FFF1F0590F491E02D93
:1023300009940E94A411A59F900DB49F900DA49F95
:10234000800D911D11240895A29FB001B39FC0017B
:10235000A39F700D811D1124911DB29F700D811DD1
:102360001124911D089581E090E0F8940C94B81127
:04237000F894FFCF0F
:10237400000000006C01BC05FE00DC00F000C80198
:102384001C02250214011A02CD001B5B324A006DA7
:102394006F746F722063757272656E743A20000DEB
:1023A4000A0063757272656E7420706F7369746964
:1023B4006F6E3A2000506F736974696F6E205365B5
:1023C40074706F696E743A20004B703A20004B6948
:1023D4003A20004B643A20004B696C6C2073776997
:1023E4007463682073746174653A20006E616E00D2
:0A23F400696E66006F7666002E0029
:0623FE000024F4000100C0
:00000001FF
