:100000000C94BA000C94E2000C94E2000C94E20010
:100010000C94E2000C94E2000C94BD060C94E200F7
:100020000C94E2000C94E2000C94E2000C94E200C8
:100030000C94E2000C94E2000C947A070C942908CA
:100040000C94E2000C94E2000C94E2000C94E200A8
:100050000C944E060C94E2000C94E2000C94E20026
:100060000C9473060C94E2000C9408070C94E206BE
:100070000C94E2000C9404060C94E2000C94E20050
:100080000C94E2000C94E2000C9498060C9429065F
:100090000C949E110C9454070C942E070C94E200BF
:1000A000084AD73B3BCE016E84BCBFFDC12F3D6CDF
:1000B00074319ABD56833DDA3D00C77F11BED9E445
:1000C000BB4C3E916BAAAABE000000803F0000001E
:1000D0000003000102000001010000000000000018
:1000E0000000000000000000000000000000000010
:1000F00000000000000000050400050602040103E2
:1001000000010001020001020304050203030504CB
:1001100006050406070307000102020300010706A3
:1001200002020005020105000401010404040303A6
:1001300003030303000002000003010100000102A9
:1001400002020205050505030520100120400410E8
:100150000208010201020401020408102004080838
:100160002010402010408008800102040408010291
:100170008040A91911241FBECFEFCDBFDFE3DEBF42
:1001800018E2A0E0B8E2E8E6FCE302C005900D92B8
:10019000A630B107D9F72BE2A6E0B8E201C01D9264
:1001A000AC38B207E1F710E0CAEBD0E004C0219709
:1001B000FE010E94721DC93BD107C9F70E940212BD
:1001C0000C948C1D0C940000CF92DF92EF92FF9262
:1001D0000F931F93CF93DF936C017A018B01C0E0E3
:1001E000D0E0CE15DF0581F0D8016D918D01D601EB
:1001F000ED91FC910190F081E02DC6010995892BCC
:1002000011F02196EECF7E01C701DF91CF911F91B2
:100210000F91FF90EF90DF90CF900895EF92FF92B3
:100220000F931F93CF93DF93863030F490E2899F32
:10023000E0011124DC5F02C0C0E0D0E0E984182FA7
:10024000110F110F110FFF24F39400E08E2D8F2159
:1002500079F0E12FE00FF0E0EE0FFF1FE35DF64DC8
:1002600080819181892B21F00190F081E02D099509
:100270000F5FFF0C083051F7E986DF91CF911F9196
:100280000F91FF90EF900895FC0154894589252F27
:1002900030E0842F90E0821B930B541710F0CF9620
:1002A000089501970895FC0192898389981761F058
:1002B0008389DF01A80FB11D59968C9193899F5FA7
:1002C0009F73938B90E008958FEF9FEF0895FC014B
:1002D00092898389981731F08389E80FF11D818D08
:1002E00090E008958FEF9FEF0895FC019289238994
:1002F000892F90E0805C9F4F821B91098F73992713
:1003000008958CED99E20E94750121E0892B09F492
:1003100020E0822F089585E79AE20E94750121E08E
:10032000892B09F420E0822F0895CF93DF93EC010D
:10033000E881F9810284F385E02D0995EC85FD853E
:1003400086818F738683EC85FD8585818F75858396
:100350008B898A8B198ADF91CF910895CF93DF9390
:10036000FC0194898589A485B585981307C01596E5
:100370008C9115978F7D15968C932CC08589EF01F4
:10038000C80FD11DC75ADF4F2881858990E001969B
:100390008F739927858B80E414968C93A485B585FB
:1003A00012962C93A485B58514968C91149785FF8D
:1003B000FBCF9489858998130DC015968C9115975C
:1003C0008F7D15968C938789882321F0808D80936B
:1003D0001301178ADF91CF910895EF92FF920F9347
:1003E0001F93CF93DF93FC0181E0818B94898589F2
:1003F000981307C0A485B58514968C91149785FD34
:100400002EC08091110180FF08C080911301808F60
:1004100086898093130181E0878BF62EEF01048992
:1004200010E00F5F1F4F0F731127E02E8D89E81228
:1004300009C00FB607FE29C0EC85FD85858185FDC5
:10044000F5CF23C08C89FE01E80FF11DE75AFF4F5D
:10045000F0820C8BEC85FD85858180620CC0129644
:100460006C93A485B58580E414968C930484F585FB
:10047000E02D85818F7D858381E090E0DF91CF91B4
:100480001F910F91FF90EF900895CE010E94AE0151
:10049000CDCFCF93DF93FC0121892223F9F0EC012A
:1004A0008091110180FF08C080911301808F86899F
:1004B0008093130181E0878BEC85FD85858185FD27
:1004C00003C0848186FD0AC00FB607FE03C0858184
:1004D00085FDF4CFCE010E94AE01EECFDF91CF912A
:1004E000089580E090E0892B21F00E948B0181111A
:1004F00015C080E090E0892B21F00E9481018111DC
:1005000010C080E090E0892B89F080E090E0892B9A
:1005100069F00E940000811107C008950E94000048
:10052000E8CF0E940000EDCF0C940000089581E018
:1005300008950F9391E090932C2910922B296093AA
:10054000292970932A29409328292093272910923A
:1005500026291092252900932429880F8093232986
:1005600023E030E044E050E080912829811114C05C
:1005700080912729882341F04093212950932229F3
:100580008091232981600FC08091282981110DC09D
:1005900080912729811109C0209321293093222994
:1005A000809123298E7F8093A70880912B2988230F
:1005B000E1F380912B298330B9F280912729882398
:1005C00019F08091252906C090912B2981E0913066
:1005D00009F480E00F910895E0EAF8E091859066D3
:1005E000918722E030E020932129309322298093C3
:1005F000132910921229089581E0809312291092F4
:10060000132993E09093AA089091AB0891FF0CC036
:1006100010921F29E0911029F091112909958093DA
:100620001E2985E090E006C01092202980931D29A4
:1006300086E090E080932129909322290895609389
:100640000E2970930F29089560930C2970930D293A
:100650000895E0910E29F0910F29309741F0109202
:100660000B2910920A29099580910A29089580E0A2
:100670000895E0910C29F0910D29309759F03091AF
:10068000092920910829321728F01092092980930E
:100690000829099408950895E0910929809108296D
:1006A000E81730F4F0E0E857F74D808190E00895C6
:1006B0008FEF9FEF0895909109298091082998174D
:1006C00050F4E92FF0E0E857F74D208130E09F5FCC
:1006D0009093092902C02FEF3FEFC901089580913F
:1006E000082990E020910929821B91090895CF9251
:1006F000DF92EF92FF920F931F93CF93DF937C01D2
:100700008A01EB016B01C40ED51ECC15DD0551F03D
:100710006991D701ED91FC910190F081E02DC70125
:100720000995F3CFC801DF91CF911F910F91FF90F1
:10073000EF90DF90CF90089520910A2927FF08C0FD
:1007400021E030E0FC012283338380E090E00895D3
:1007500080910B29E82FF0E0E85FF74D60838F5F11
:1007600080930B2980930A2981E090E00895DC01B1
:10077000ED91FC910688F789E02D61E009940F93D3
:100780008091212990912229019779F480912C2937
:1007900081110DC0062F20E040910A2968E078E21F
:1007A000809107280E94990203C080E001C081E087
:1007B00010920B2910920A290F910895609307282F
:1007C00010920B2910920A290895DC01ED91FC91F9
:1007D000028CF38DE02D21E009940F9388E898E2D4
:1007E0008093142990931529809121299091222991
:1007F000019799F480912C29811111C0FA01413897
:10080000510510F0E0E8F0E0022F862F2E2F40E097
:1008100060E070E00E94990203C080E001C081E0C6
:1008200010920929809308290F9108958F929F9221
:10083000AF92BF92CF92DF92EF92FF92CF93DF936E
:1008400040348DE0580783E068077105D0F041150A
:1008500085E358078CE06807710560F040385F4415
:100860006241710570F4C8E7D0E020E432E44FE063
:1008700050E00DC0CCE2D1E020E83AE146E050E0A3
:1008800006C0C8EED3E020EA36E841E050E08090B0
:10089000002890900128A0900228B0900328C5015C
:1008A000B4010E941E1D69017A018AE0C81AD108AC
:1008B000E108F108DE01A50194010E945F1D20E01E
:1008C0003AEC4AE95BE30E941E1DC21AD30AE40A0D
:1008D000F50AF694E794D794C794C092A608DF91DE
:1008E000CF91FF90EF90DF90CF90BF90AF909F900F
:1008F0008F900895E0EAF8E01382168281E0858304
:10090000148611861092212910922229089510929E
:1009100009291092082910920B2910920A29809116
:10092000212990912229892BD9F482E090E08093AB
:100930002129909322291092202910921F29109288
:100940001229109213291092062810921D29660F61
:100950006093AC0881EE8093A90881E08093A3089E
:1009600089E293E0809310299093112988E098E21E
:10097000809316299093172989E393E080931B298C
:1009800090931C2988E898E280931829909319295C
:1009900080E880931A2908958F929F92AF92BF9218
:1009A000CF92DF92EF92FF921092092910920829BC
:1009B00010920B2910920A298091212990912229C5
:1009C000892B09F045C08091E3058093E30581E020
:1009D00090E080932129909322291092252910924A
:1009E000262910922C2910922B2981EC8093A308A0
:1009F0008090002890900128A0900228B0900328B1
:100A0000C501B40120EA36E841E050E00E941E1D15
:100A100069017A018AE0C81AD108E108F108A8EE54
:100A2000B3E0A50194010E945F1D20E03AEC4AE981
:100A30005BE30E941E1DC21AD30AE40AF50AF6946B
:100A4000E794D794C794C092A60881E08093A50844
:100A5000FF90EF90DF90CF90BF90AF909F908F90DE
:100A60000895DC01ED91FC910684F785E02D23E0EB
:100A700030E009940E94871D8F929F92AF92BF929F
:100A8000EF92FF920F931F93CF93DF93EC014A01F4
:100A90005B01E22E8989882339F0E881F981008899
:100AA000F189E02DCE01099598898091E205892B85
:100AB0008093E205FFB6F894809100289091012878
:100AC000A0910228B0910328BC01CD0123E0660F5C
:100AD000771F881F991F2A95D1F7A50194010E94BD
:100AE0001E1D49015A018FEF881A980AA80AB80AF0
:100AF000B694A79497948794EC85FD8586818D7F25
:100B00008683EC85FD8586818683198A8E8562E0E1
:100B100070E00E94A80D8F8561E070E00E945D0D7D
:100B20008F8561E070E00E94A80D80912311E82F6D
:100B3000880FFF0BDF01BC5FA50194010E946A1DB5
:100B40000C851D85AF01F7FF03C0519541955109F3
:100B500020E034E0241B350B032E000C440B550B16
:100B60000E94401DF80120873187EC85FD85E782D2
:100B7000EC85FD858681806C8683EC85FD8585818D
:100B800080688583FFBEDF91CF911F910F91FF9009
:100B9000EF90BF90AF909F908F900895CF93E3E533
:100BA000F1E0C491CF3FD9F08AE00E942F0DEAE234
:100BB000F1E0A49180E2A89FD0011124BC5F1896B7
:100BC000EC91EC2361F08091B2299091B329A0912E
:100BD000B429B091B5290197A109B1090BC0809141
:100BE000B2299091B329A091B429B091B529019669
:100BF000A11DB11D8093B2299093B329A093B4296C
:100C0000B093B529CF9108951F920F920FB60F920E
:100C100011242F933F934F935F936F937F938F9301
:100C20009F93AF93BF93EF93FF9385E00E940E01D4
:100C3000FF91EF91BF91AF919F918F917F916F91B4
:100C40005F914F913F912F910F900FBE0F901F908A
:100C500018951F920F920FB60F9211242F933F9366
:100C60004F935F936F937F938F939F93AF93BF93B4
:100C7000EF93FF9384E00E940E01FF91EF91BF91EB
:100C8000AF919F918F917F916F915F914F913F9124
:100C90002F910F900FBE0F901F9018951F920F92DB
:100CA0000FB60F9211242F933F934F935F936F933F
:100CB0007F938F939F93AF93BF93EF93FF9383E0C3
:100CC0000E940E01FF91EF91BF91AF919F918F9183
:100CD0007F916F915F914F913F912F910F900FBE38
:100CE0000F901F9018951F920F920FB60F9211241C
:100CF0002F933F934F935F936F937F938F939F9324
:100D0000AF93BF93EF93FF9382E00E940E01FF9198
:100D1000EF91BF91AF919F918F917F916F915F9173
:100D20004F913F912F910F900FBE0F901F901895EC
:100D30001F920F920FB60F9211242F933F934F9350
:100D40005F936F937F938F939F93AF93BF93EF9333
:100D5000FF9381E00E940E01FF91EF91BF91AF914F
:100D60009F918F917F916F915F914F913F912F91C3
:100D70000F900FBE0F901F9018951F920F920FB6F5
:100D80000F9211242F933F934F935F936F937F9311
:100D90008F939F93AF93BF93EF93FF9380E00E9455
:100DA0000E01FF91EF91BF91AF919F918F917F9134
:100DB0006F915F914F913F912F910F900FBE0F90C8
:100DC0001F9018951F920F920FB60F9211242F9318
:100DD0003F934F935F936F937F938F939F93AF93C3
:100DE000BF93EF93FF938CED99E20E94AE01FF91C8
:100DF000EF91BF91AF919F918F917F916F915F9193
:100E00004F913F912F910F900FBE0F901F9018950B
:100E10001F920F920FB60F9211242F933F934F936F
:100E20005F936F937F938F939F93AF93BF93EF9352
:100E3000FF938CED99E20E94160DFF91EF91BF9107
:100E4000AF919F918F917F916F915F914F913F9162
:100E50002F910F900FBE0F901F9018951F920F9219
:100E60000FB60F9211242F933F934F935F936F937D
:100E70007F938F939F93AF93BF93EF93FF9385E7F8
:100E80009AE20E94AE01FF91EF91BF91AF919F91C5
:100E90008F917F916F915F914F913F912F910F9023
:100EA0000FBE0F901F9018951F920F920FB60F92C2
:100EB00011242F933F934F935F936F937F938F935F
:100EC0009F93AF93BF93EF93FF9385E79AE20E94BE
:100ED000160DFF91EF91BF91AF919F918F917F91EF
:100EE0006F915F914F913F912F910F900FBE0F9097
:100EF0001F9018951F920F920FB60F9211242F93E7
:100F00003F934F935F936F937F938F939F93AF9391
:100F1000BF93CF93EF93FF93C091AB08C2FF08C07C
:100F20001092202910921F2910921E2984E07DC062
:100F3000C6FF1EC080911D29813051F48091202967
:100F4000E0911B29F0911C2990E0099510921D2930
:100F5000C0FF03C00E94FC026AC080E48093AB081B
:100F600081E00E94EC028091AB0885FF60C0F2CF67
:100F7000C7FF5AC0C3FF08C01092202910921F2932
:100F800010921E2983E051C08091A9088066809349
:100F9000A9088091AB0881FF28C080911F29882370
:100FA00049F08091AB0884FF05C082E08093AA08D5
:100FB00081E03BC090911F2980911E29981788F4E9
:100FC00080911F29E0911629F0911729E80FF11D52
:100FD00080818093AD0880911F298F5F80931F29A6
:100FE0001AC082E08093AA0820C0909120298091A5
:100FF0001A299817A0F48091AD0890912029E091CA
:101000001829F0911929E90FF11D80838091202979
:101010008F5F8093202983E08093AA0808C086E030
:101020008093AA0882E001C085E00E94EC02FF9153
:10103000EF91CF91BF91AF919F918F917F916F91E0
:101040005F914F913F912F910F900FBE0F901F9086
:1010500018951F920F920FB60F9211242F938F9312
:101060009F93EF93FF938091A508982F9C70A1F018
:101070008091A50882FF02C094E001C093E09093A4
:101080002B298093A50881E090E0809321299093FB
:10109000222910922C2991C086FF40C02091282936
:1010A000909127298091A50884FF0BC08091242965
:1010B000882311F083E001C081E08093A40885E0DB
:1010C00072C080912629821788F480912629E091A8
:1010D0002929F0912A29E80FF11D80818093A80821
:1010E000809126298F5F8093262967C080912529CA
:1010F000891760F484E090E080932129909322295D
:101100008091232981608093A70857C0809124296A
:10111000882311F083E042C081E040C087FF42C0D5
:1011200090912529809127299817D0F48091A808BB
:1011300090912529E0911429F0911529E90FF11DCD
:101140008083809125298F5F80932529909127297D
:10115000809125298917D8F482E08093A4082DC0B6
:1011600080912429882311F087E001C085E08093D5
:10117000A40882E080932B2910922C2981E090E032
:1011800080932129909322291092272916C08091BB
:101190002429882311F087E001C085E08093A4080A
:1011A00081E001C086E080932B2910922C2981E0F8
:1011B00090E08093212990932229FF91EF919F91B4
:1011C0008F912F910F900FBE0F901F9018958F92B7
:1011D0009F92AF92BF92CF92DF92EF92FF92609375
:1011E000A2297093A3298093A4299093A529C09044
:1011F0009129D0909229E0909329F0909429C0925F
:101200009D29D0929E29E0929F29F092A02980905A
:10121000992990909A29A0909B29B0909C29A5018A
:101220009401C701B6010E94731C181684F08090C7
:10123000952990909629A0909729B0909829A5017A
:101240009401C701B6010E94ED1A87FF08C0809281
:101250009D2990929E29A0929F29B092A029FF904B
:10126000EF90DF90CF90BF90AF909F908F900895B8
:101270004F925F926F927F928F929F92AF92BF92A6
:10128000CF92DF92EF92FF920F931F932B013C01BD
:1012900049015A016701780120E030E0A9010E946C
:1012A000ED1A87FD3AC020E030E0A901C501B40184
:1012B0000E94ED1A87FD31C020E030E0A901C7018E
:1012C000B6010E94ED1A87FD28C04092A6295092CF
:1012D000A7296092A8297092A9292AE037ED43EA4C
:1012E0005CE3C501B4010E94801C6093AA2970933D
:1012F000AB298093AC299093AD292AE037ED43EADE
:101300005CE3C701B6010E94F21A6093AE297093A4
:10131000AF298093B0299093B1291F910F91FF902D
:10132000EF90DF90CF90BF90AF909F908F907F9085
:101330006F905F904F900895CF93DF93EC0197FFEC
:1013400009C060E070E084E00E945D0DD195C19518
:10135000D1090AC061E070E084E00E945D0D209731
:1013600019F460E070E080C0C630D1051CF460E084
:1013700070E083C0CB30D1051CF460E070E086C023
:10138000C031D1051CF460E070E089C0C531D105E1
:101390001CF460E070E08CC0C931D1051CF460E041
:1013A00070E08FC0CE31D10594F460E070E08EE043
:1013B0000E945D0D60E070E08FE00E945D0D61E0D5
:1013C00070E080E10E945D0D61E070E0CDC0C3324D
:1013D000D1051CF460E070E081C0C732D1056CF427
:1013E00060E070E08EE00E945D0D61E070E08FE0F3
:1013F0000E945D0D60E070E0B2C0CC32D1051CF4FB
:1014000060E070E078C0C033D1051CF460E070E0AB
:1014100080C0C433D1051CF460E070E088C0C933DB
:10142000D10524F460E070E08EE090C0CD33D105AA
:1014300024F460E070E08EE0A0C0C034D10544F434
:1014400060E070E08EE00E945D0D61E070E0B4CF7E
:10145000C434D10524F460E070E08EE09DC061E00A
:1014600070E0C834D10534F48EE00E945D0D60E078
:1014700070E0BDCFCB34D10534F48EE00E945D0D19
:1014800060E070E03DC0CE34D10534F48EE00E94BF
:101490005D0D60E070E042C0C135D10534F48EE0EE
:1014A0000E945D0D60E070E047C0C435D10534F4A2
:1014B0008EE00E945D0D60E070E04CC0C735D10544
:1014C00034F48EE00E945D0D60E070E05AC0C935D2
:1014D000D1050CF46CCFCB35D10534F48EE00E94ED
:1014E0005D0D60E070E05CC0CD35D1050CF47ACFC5
:1014F000CF35D1055CF48EE00E945D0D61E070E0B7
:101500008FE00E945D0D60E070E040C0C136D10503
:101510005CF48EE00E945D0D61E070E08FE00E945F
:101520005D0D60E070E04DCFC136D10559F48EE01D
:101530000E945D0D61E070E08FE00E945D0D60E053
:1015400070E033C08EE0C236D105A1F40E945D0D7B
:1015500061E070E08FE00E945D0D61E070E080E18D
:101560000E945D0D60E070E081E10E945D0D60E031
:1015700070E025C0C336D10579F40E945D0D61E0AD
:1015800070E08FE00E945D0D61E070E080E10E94FC
:101590005D0D60E070E00EC00E945D0D61E070E0E6
:1015A0008FE00E945D0D61E070E080E10E945D0DC2
:1015B00061E070E081E10E945D0D61E070E082E138
:1015C000DF91CF910C945D0D80E090E00E949C092A
:1015D00060E070E089E00E945D0D6091B229709139
:1015E000B3298091B4299091B5292091A129222372
:1015F00031F10E949C1B20E030E040E85DE30E9456
:10160000801C20E030E040EF51E40E94F21A20E01C
:1016100030E040E450E40E94F21A9B01AC010E94C9
:101620000F1A2BED3FE049E450E40E94801C20E0BB
:1016300030E040EA50E40E94801C0E94E7081092CB
:10164000A129109204280895CF93DF938FB7F894BF
:101650002091D8293091D9294091DA295091DB295C
:10166000E091BA0A9091B60A90FF06C02F5F3F4FF3
:101670004F4F5F4FE091BA0A8FBFA091D629B0912A
:10168000D729C091D429D091D5290E945F1DEC9F04
:101690009001ED9F300D1124620F731F811D911D6C
:1016A000DF91CF9108956115710551F0FB01019013
:1016B0000020E9F73197AF01461B570B0C94E4006B
:1016C00080E090E008958F929F92AF92BF92EF9248
:1016D000FF920F931F93CF93DF93CDB7DEB7A19700
:1016E000CDBFDEBF7C01FA01CB0119A2223008F484
:1016F0002AE08E010F5D1F4F822E912CA12CB12C60
:10170000BF01A50194010E941E1DF901CA010150EB
:1017100011096A3014F4605D01C0695CD8016C93F2
:10172000232B242B252B61F7B801C7010E94530BF3
:10173000A196CDBFDEBFDF91CF911F910F91FF909A
:10174000EF90BF90AF909F908F9008950C94530BA3
:10175000CF93DF93BC0185E79AE20E94530BEC0123
:101760006EE57BE785E79AE20E94530B8C0F9D1F85
:10177000DF91CF9108957F928F929F92AF92BF9207
:10178000CF92DF92EF92FF920F931F93CF93DF934D
:101790008C016A017B01722E9A01AB01C701B6016F
:1017A0000E94F11C882319F06CE57CE727C04601F4
:1017B0005701E894B7F82FEF3FEF4FE75FE7C50118
:1017C000B4010E94F11C81110DC02FEF3FEF4FE7D4
:1017D0005FE7C501B4010E94ED1A18161CF460E61B
:1017E0007CE70CC02FEF3FEF4FE75FE4C701B60186
:1017F0000E94731C181694F464E67CE7C801DF911C
:10180000CF911F910F91FF90EF90DF90CF90BF90FD
:10181000AF909F908F907F900C94530B2FEF3FEFE2
:101820004FE75FECC701B6010E94ED1A87FDE4CFD8
:1018300020E030E0A901C701B6010E94ED1A87FF40
:101840000AC06DE2C8010E94ED01EC01F7FAF094C4
:10185000F7F8F09402C0C0E0D0E0B12C60E070E096
:1018600080E09FE37B1441F020E030E040E251E46F
:101870000E94F21AB394F6CFA70196010E940F1AA4
:101880006B017C010E946B1B4B015C012AE0AB01E8
:10189000BC01C8010E94630BC80FD91F7720C9F192
:1018A000C501B4010E949A1B9B01AC01C701B6019E
:1018B0000E940E1A6B017C0167EB7BE7C8010E9456
:1018C000530BC80FD91F20E030E040E251E4C701BC
:1018D000B6010E94801C4B015C010E946B1B6B01D6
:1018E000E12CF12C2AE0B701A601C8010E94630B8C
:1018F000C80FD91FC701B6010E949A1B9B01AC01FA
:10190000C501B4010E940E1A6B017C017A9471101A
:10191000DACFCE01DF91CF911F910F91FF90EF9021
:10192000DF90CF90BF90AF909F908F907F90089561
:10193000CF93DF93AB01BC0122E085E79AE20E94DE
:10194000BB0BEC016EE57BE785E79AE20E94530B47
:101950008C0F9D1FDF91CF910895DC01ED91FC91DB
:101960000488F589E02D68E609940F931F93CF93BF
:10197000DF93082F162FCAE1DBE2888199810E944C
:10198000AD0C88819981DC01ED91FC910190F08191
:10199000E02D602F099588819981DC01ED91FC9102
:1019A0000190F081E02D612F099588819981DC01FA
:1019B000ED91FC91008CF18DE02DDF91CF911F9185
:1019C0000F910994CF92DF92EF92FF92CF93DF9322
:1019D0006C01990FEE08FF08F7FE1BC06DE28CED5D
:1019E00099E20E94ED01EC0144275527BA014C19F8
:1019F0005D096E097F092AE08CED99E20E94630B74
:101A00008C0F9D1FDF91CF91FF90EF90DF90CF90D3
:101A100008952AE0B701A6018CED99E2DF91CF91FC
:101A2000FF90EF90DF90CF900C94630BFC01A485A6
:101A3000B58511968C91119781FD0FC09C9182897B
:101A40008F5F8F732389821749F02289DF01A20FEC
:101A5000B11D59969C93828B08958C91089589327B
:101A600058F590E0FC01E253FF4FE491EE2321F1A1
:101A7000E13021F008F1E630B0F00895FC01E950C2
:101A8000FF4F84914091010A8C5F21E030E0B90161
:101A900002C0660F771F8A95E2F7CB0180958423F9
:101AA0008093010A089570E1E79FF0011124E05A44
:101AB000F54F81818F7E81830895FF920F931F934D
:101AC000CF93DF93893208F03DC0082F10E0F80172
:101AD000E75BFE4FF4909FEFF916A1F1EB010E9436
:101AE0002F0DF801E05EFE4FA49180E2A89FD00187
:101AF0001124BC5F8C918F2169F0209719F4169600
:101B0000FC9220C0229719F41796FC921BC01596E0
:101B1000FC9218C0F801E950FF4FE491109731F0A2
:101B2000EF3F21F05096AE0FB11D02C0A0E0B0E033
:101B30009FB7F8948C91CD2B11F4877F01C08860FA
:101B40008C939FBFDF91CF911F910F91FF900895CC
:101B5000CF93DF93893298F590E0FC01E75BFE4F6D
:101B600024912F3F61F16330710548F5FC01E05E7F
:101B7000FE4FA49130E2A39FD0011124BC5F6130DD
:101B8000710519F411962C931AC0FC01E950FF4F0E
:101B900084918F3F29F0ED016096C80FD11D02C0DE
:101BA000C0E0D0E09FB7F89412962C938881623001
:101BB000710511F4886001C0877F88839FBFDF9122
:101BC000CF9108958F929F92AF92BF92CF92DF9262
:101BD000EF92FF924B015C010E94240B6B017C0190
:101BE000A8EEB3E0A50194010E945F1DC60ED71EAA
:101BF000E81EF91EC616D706E806F90638F40E9454
:101C0000240BC616D706E806F906C8F30E94240B73
:101C10006C157D058E059F05C8F3FF90EF90DF9052
:101C2000CF90BF90AF909F908F9008952FB7F8946A
:101C30006091D0297091D1298091D2299091D32996
:101C40002FBF08954F925F926F927F928F929F92D3
:101C5000AF92BF92CF92DF92EF92FF92CF93DF933A
:101C6000CDB7DEB72897CDBFDEBF80911A2B9091FC
:101C70001B2B0E94AD0C80911A2B90911B2BDC0129
:101C8000ED91FC910190F081E02D6BE3099580913D
:101C90001A2B90911B2BDC01ED91FC910688F789A2
:101CA000E02D60E0099580911A2B90911B2BDC01AF
:101CB000ED91FC91028CF38DE02D21E04EE050E09F
:101CC00068E6099580911A2B90911B2BDC01ED9110
:101CD000FC910680F781E02D0995F82E80911A2B52
:101CE00090911B2BDC01ED91FC910680F781E02D9A
:101CF000099520E030E03F2D822B932B80931C2B05
:101D000090931D2B80911A2B90911B2BDC01ED9150
:101D1000FC910680F781E02D0995F82E80911A2B11
:101D200090911B2BDC01ED91FC910680F781E02D59
:101D3000099520E030E03F2D822B932B80931E2BC2
:101D400090931F2B80911A2B90911B2BDC01ED910E
:101D5000FC910680F781E02D0995F82E80911A2BD1
:101D600090911B2BDC01ED91FC910680F781E02D19
:101D7000099520E030E03F2D822B932B8093202B80
:101D80009093212B80911A2B90911B2BDC01ED91CC
:101D9000FC910680F781E02D0995F82E80911A2B91
:101DA00090911B2BDC01ED91FC910680F781E02DD9
:101DB000099520E030E03F2D822B932B8093222B3E
:101DC0009093232B80911A2B90911B2BDC01ED918A
:101DD000FC910680F781E02D0995F82E80911A2B51
:101DE00090911B2BDC01ED91FC910680F781E02D99
:101DF000099520E030E03F2D822B932B8093242BFC
:101E00009093252B80911A2B90911B2BDC01ED9147
:101E1000FC910680F781E02D0995F82E80911A2B10
:101E200090911B2BDC01ED91FC910680F781E02D58
:101E3000099520E030E03F2D822B932B8093262BB9
:101E40009093272B80911A2B90911B2BDC01ED9105
:101E5000FC910680F781E02D0995D82E80911A2BF0
:101E600090911B2BDC01ED91FC910680F781E02D18
:101E70000995E12CF12CFD2C8E299F2989839A83C9
:101E80008093282B9093292B6091222B7091232BE8
:101E9000072E000C880B990B0E949C1B20E030EF52
:101EA00041E456E40E940F1A20E030E04AEA53E48D
:101EB0000E94F21A6093362B7093372B8093382B45
:101EC0009093392B60911C2B70911D2B072E000CC9
:101ED000880B990B0E949C1B20E030E040E858E3FF
:101EE0000E94801C4B015C0160933A2B70933B2B4A
:101EF00080933C2B90933D2B60911E2B70911F2B58
:101F0000072E000C880B990B0E949C1B20E030E0F0
:101F100040E858E30E94801C6B017C0160933E2BDB
:101F200070933F2B8093402B9093412B6091202BFB
:101F30007091212B072E000C880B990B0E949C1B83
:101F400020E030E040E858E30E94801C2B013C0177
:101F50006093422B7093432B8093442B9093452B9B
:101F6000C501B4010E94641B9B0177FF04C02227B6
:101F70003327261B370BB901330F880B990B0E94AF
:101F80009C1BA30192010E940F1A9B01AC01C70187
:101F9000B6010E948E1A20E030E044EB53E40E9428
:101FA000801C20E030E040E05FE30E94801C2BEDCD
:101FB0003FE049E450E40E94F21A60935E2B709374
:101FC0005F2B8093602B9093612BC701B6010E9419
:101FD000641B9B0177FF04C022273327261B370B86
:101FE000B901330F880B990B0E949C1BA30192012E
:101FF0000E940F1A9B01AC01C501B4010E948E1A08
:1020000020E030E044EB53E40E94801C20E030E00C
:1020100040E05FEB0E94801C2BED3FE049E450E480
:102020000E94F21A6093622B7093632B8093642B4F
:102030009093652B6091262B7091272B072E000C17
:10204000880B990B0E949C1B20E030E043E852E48F
:102050000E94F21A4B015C016091242B7091252B98
:10206000072E000C880B990B0E949C1B20E030E08F
:1020700043E852E40E94F21A20912A2B30912B2B34
:1020800040912C2B50912D2B0E940E1A6093462BC1
:102090007093472B8093482B9093492B20912E2BA4
:1020A00030912F2B4091302B5091312BC501B40131
:1020B0000E940E1A60934A2B70934B2B80934C2BEB
:1020C00090934D2B29813A81B901330F880B990BDD
:1020D0000E949C1B20E030E043E852E40E94F21A88
:1020E0002091322B3091332B4091342B5091352B52
:1020F0000E940E1A60934E2B70934F2B8093502B9F
:102100009093512B0E94160EC0907A2BD0907B2B6F
:10211000E0907C2BF0907D2B6C197D098E099F0936
:102120000E949A1B2FE632E143E85AE30E94801C8A
:102130006B017C016093762B7093772B8093782BC7
:102140009093792B2091462B3091472B4091482B2F
:102150005091492B0E94801C2B013C019B01AC013A
:102160006091522B7091532B8091542B9091552B51
:102170000E940F1A6093522B7093532B8093542B11
:102180009093552B20914A2B30914B2B40914C2B07
:1021900050914D2BC701B6010E94801C4B015C0180
:1021A0009B01AC016091562B7091572B8091582B5D
:1021B0009091592B0E940F1A6093562B7093572BB6
:1021C0008093582B9093592B20914E2B30914F2B6D
:1021D0004091502B5091512BC701B6010E94801C99
:1021E00020915A2B30915B2B40915C2B50915D2BB1
:1021F0000E940F1A6D837E838F83988760935A2B7A
:1022000070935B2B80935C2B90935D2BC090822B03
:10221000D090832BE090842BF090852B80917E2BA7
:1022200090917F2BA091802BB091812B89839A83F1
:10223000AB83BC8320916A2B30916B2B40916C2B2C
:1022400050916D2BC301B2010E940F1AA701960194
:102250000E94801C2B013C0120915E2B30915F2B52
:102260004091602B5091612B69817A818B819C8197
:102270000E94801C9B01AC01C301B2010E940F1A95
:1022800060936A2B70936B2B80936C2B90936D2BC8
:1022900020916E2B30916F2B4091702B5091712BB0
:1022A000C501B4010E940F1AA70196010E94801C6B
:1022B0006B017C012091622B3091632B4091642B48
:1022C0005091652B69817A818B819C810E94801C51
:1022D0009B01AC01C701B6010E940F1A60936E2BDF
:1022E00070936F2B8093702B9093712B8D819E81B7
:1022F000AF81B8858093722B9093732BA093742B2E
:10230000B093752B0E94160E60937A2B70937B2BE3
:1023100080937C2B90937D2B2896CDBFDEBFDF91E1
:10232000CF91FF90EF90DF90CF90BF90AF909F90B4
:102330008F907F906F905F904F9008951F920F92B3
:102340000FB60F9211242F933F934F935F936F9388
:102350007F938F939F93AF93BF934091D0295091D8
:10236000D1296091D2297091D32920918A2B309163
:102370008B2B8091882B9091892B480F591F611DC1
:10238000711D8091862B9091872B820F931F883E21
:1023900023E0920730F0885E93404F5F5F4F6F4FAE
:1023A0007F4F80938A2B90938B2B4093D02950930F
:1023B000D1296093D2297093D3298091D829909103
:1023C000D929A091DA29B091DB290196A11DB11D6F
:1023D0008093D8299093D929A093DA29B093DB2947
:1023E00081E08093B60ABF91AF919F918F917F91C9
:1023F0006F915F914F913F912F910F900FBE0F9072
:102400001F901895CF93DF93CDB7DEB76197CDBFFF
:10241000DEBF90E088ED84BF9093610080E094E29D
:10242000A4EFB0E08093002890930128A0930228A5
:10243000B093032880910206866080930206809103
:102440000006816080930006809102068F7C809355
:1024500002068091A0008F788093A00080910206F0
:102460008061809302061092E20581E08093E4058A
:1024700083E08093010A8FEF90E08093260A909387
:10248000270A80E890E08093380A9093390A809375
:102490003A0A90933B0A80933C0A90933D0A8BE062
:1024A0008093000A8091E50581608093E505809125
:1024B000E50582608093E505E0E8FAE037E02FEF7C
:1024C00090E885E031832487958780837096E03C8F
:1024D0004AE0F407B9F780E094E08093D62990931E
:1024E000D7298091D6299091D7292FEF30E0B901D3
:1024F0000E94F61C6093D4297093D5298091D62927
:102500009091D729E8EEF3E0BF010E94F61C60939A
:10251000882B7093892B8091D6299091D729BF0160
:102520000E94F61C8093862B9093872B2093BC0AE5
:102530003093BD0A8091B50A81608093B50A84E02A
:102540008093B00A8091B00A81608093B00A789439
:1025500061E070E08CE10E94A80D61E070E08CE128
:102560000E945D0D61E070E08DE10E94A80D61E0C8
:1025700070E08DE10E945D0D61E070E083E20E94F9
:10258000A80D61E070E083E20E945D0D61E070E003
:102590008EE10E94A80D61E070E08EE10E945D0D69
:1025A00061E070E084E00E94A80D61E070E089E0E5
:1025B0000E94A80D61E070E088E00E94A80D61E033
:1025C00070E087E00E94A80D61E070E08EE00E945C
:1025D000A80D61E070E08FE00E94A80D61E070E05E
:1025E00080E10E94A80D61E070E081E10E94A80DE9
:1025F00061E070E082E10E94A80D60E070E082E09E
:102600000E94A80D60E070E088E00E945D0D61E02E
:1026100070E087E00E945D0D8091CA299091CB29DE
:102620000E949C098EE09BE20E94CC0460E089E15C
:102630000E94B50C60E08AE10E94B50C68E08BE175
:102640000E94B50C60E08CE10E94B50C61E08BE665
:102650000E94B50C0E94220E1092522B1092532B06
:102660001092542B1092552B1092562B1092572BE0
:102670001092582B1092592B80915E2B90915F2BCA
:10268000A091602BB091612B80936A2B90936B2B60
:10269000A0936C2BB0936D2B8091622B9091632B48
:1026A000A091642BB091652B80936E2B90936F2B30
:1026B000A093702BB093712B0E94160E60937A2B0F
:1026C00070937B2B80937C2B90937D2B68EE73E033
:1026D00080E090E00E94E20D6EE57BE785E79AE2FC
:1026E0000E94530B81E69BE70E94A80B8AE89BE7B8
:1026F0000E94A80B63EA7BE785E79AE20E94A60B9B
:10270000812C912C54012401350175016401212C87
:10271000312CC10168EE73E00E940A1D892B31F44F
:1027200067EB7BE785E79AE20E94A60B80911A2B64
:1027300090911B2B0E94AD0C80911A2B90911B2B1A
:10274000DC01ED91FC910190F081E02D63E40995AD
:1027500080911A2B90911B2BDC01ED91FC91068846
:10276000F789E02D60E0099580911A2B90911B2B41
:10277000DC01ED91FC91028CF38DE02D21E046E02F
:1027800050E068E6099580911A2B90911B2BDC0193
:10279000ED91FC910680F781E02D09958D87809160
:1027A0001A2B90911B2BDC01ED91FC910680F78197
:1027B000E02D0995BD85BA83198229813A81282B9C
:1027C000392B2D873E8780911A2B90911B2BDC0192
:1027D000ED91FC910680F781E02D09958F8780911E
:1027E0001A2B90911B2BDC01ED91FC910680F78157
:1027F000E02D0995BF85BA87198609851A85082BAA
:10280000192B80911A2B90911B2BDC01ED91FC91DF
:102810000680F781E02D09958F8780911A2B909182
:102820001B2BDC01ED91FC910680F781E02D0995D1
:10283000888B998B2D853E85B901330F880B990BB9
:102840000E949C1B20E030E043E852E40E94F21A10
:102850009B01AC01C701B6010E940F1A6B017C01FC
:10286000B801110F880B990B0E949C1B20E030E0EF
:1028700043E852E40E94F21A9B01AC01C301B20189
:102880000E940F1A2B013C013F853C871B866B85FC
:102890007C8588899989682B792B072E000C880BF9
:1028A000990B0E949C1B20E030E043E852E40E9418
:1028B000F21A9B01AC01C501B4010E940F1A4B0131
:1028C0005C019FEF291A390AA8EB2A16ABE03A06F9
:1028D00009F01FCF20E030E84BE355E4C701B60113
:1028E0000E94F21A60932A2B70932B2B80932C2B2F
:1028F00090932D2B20E030E84BE355E4C301B20167
:102900000E94F21A60932E2B70932F2B8093302B02
:102910009093312B20E030E84BE355E4C501B4013E
:102920000E94F21A6093322B7093332B8093342BD6
:102930009093352B6EE57BE785E79AE20E94530B77
:1029400089EB9BE70E94A80B6FEB7BE785E79AE298
:102950000E94A60B60912A2B70912B2B80912C2B1F
:1029600090912D2B0E94980C64EC7BE785E79AE20E
:102970000E94A60B60912E2B70912F2B8091302BF3
:102980009091312B0E94980C69EC7BE785E79AE2E5
:102990000E94A60B6091322B7091332B8091342BC7
:1029A0009091352B0E94980C8EEC9BE70E94A80B0F
:1029B00061E67BE785E79AE20E94A60B68EB7BE085
:1029C00080E090E00E94E20D80E090E0A0EFB1E4B2
:1029D0008093A6299093A729A093A829B093A92909
:1029E0008CEC9CECACE4BEE38093AA299093AB29D9
:1029F000A093AC29B093AD2980E090E0AAE7B3E4BE
:102A00008093AE299093AF29A093B029B093B129B8
:102A100080E090E0A8ECB2EC809395299093962901
:102A2000A0939729B093982980E090E0A8ECB2E4B5
:102A30008093992990939A29A0939B29B0939C29DC
:102A400040E052EC61E070E08CED99E20E943105CB
:102A50000E94E40A60E070E085E00E94A80D60E05A
:102A600070E08AE00E94A80DECEFF0E084918F3FC7
:102A700011F1E5E2F1E09491A82FB8E09B9FA00D41
:102A80001124A033C0F4B0E0AA0FBB1FA35DB64D64
:102A90002EEC35E02D933C93E49120E2E29FF0018F
:102AA0001124FC5F7096E80FF11D8081887F808380
:102AB0008081826080831092B2291092B329109293
:102AC000B4291092B5298CED99E20E94750118166F
:102AD00019060CF0E7C18CED99E20E945301803792
:102AE00079F52AE037ED43EA5CE36091AE29709115
:102AF000AF298091B0299091B1290E94801C6B016F
:102B00007C012AE037ED43EA5CE36091AA297091E9
:102B1000AB298091AC299091AD290E94F21A4B010A
:102B20005C012DEC3CEC4CEC5DE36091A6297091CE
:102B3000A7298091A8299091A9290E940F1A30C035
:102B40008F3699F52AE037ED43EA5CE36091AE29D0
:102B50007091AF298091B0299091B1290E94801C79
:102B60006B017C012AE037ED43EA5CE36091AA291E
:102B70007091AB298091AC299091AD290E94F21AF5
:102B80004B015C012DEC3CEC4CEC5DE36091A62923
:102B90007091A7298091A8299091A9290E940E1AC5
:102BA00087017601A501940197C0893629F52AE0AD
:102BB00037ED43EA5CE36091AE297091AF298091D3
:102BC000B0299091B1290E94801C6B017C012AE000
:102BD00037ED43EA5CE36091AA297091AB298091BB
:102BE000AC299091AD290E94F21A2DEC3CEC4CECF2
:102BF0005DE30E940F1A64C0853729F52AE037ED9E
:102C000043EA5CE36091AE297091AF298091B029CD
:102C10009091B1290E94801C6B017C012AE037ED64
:102C200043EA5CE36091AA297091AB298091AC29B9
:102C30009091AD290E94F21A2DEC3CEC4CEC5DE336
:102C40000E940E1A3DC08436A9F42AE037ED43EA0B
:102C50005CE36091AE297091AF298091B029909189
:102C6000B1290E94801C2DEC3CEC4CEC5DE30E94F1
:102C70000F1A16C0863699F52AE037ED43EA5CE371
:102C80006091AE297091AF298091B0299091B129BE
:102C90000E94801C2DEC3CEC4CEC5DE30E940E1A73
:102CA0006B017C012AE037ED43EA5CE36091AA29DD
:102CB0007091AB298091AC299091AD290E94F21AB4
:102CC0009B01AC016091A6297091A7298091A82948
:102CD0009091A929870176010E943809E3C08032CA
:102CE00019F40E94E40ADEC0823709F088C06091BE
:102CF000B2297091B3298091B4299091B5290E948D
:102D00009C1B20E030E040E85DE30E94801C20E056
:102D100030E040EF51E40E94F21A20E030E040E45D
:102D200050E40E94F21A9B01AC010E940F1A2BED95
:102D30003FE049E450E40E94801C20E030E040EA9B
:102D400050E40E94801C6B017C0120E030E046E1F1
:102D500054E40E94731C18166CF480E090E0A6E125
:102D6000B4E48093C2299093C329A093C429B0935B
:102D7000C52908C0C092C229D092C329E092C429B3
:102D8000F092C52961E070E089E00E945D0D6091DC
:102D9000B2297091B3298091B4299091B5292091DD
:102DA000A129211126C00E949C1B20E030E040E8B0
:102DB0005DE30E94801C20E030E040EF51E40E947F
:102DC000F21A20E030E040E450E40E94F21A9B0145
:102DD000AC010E940F1A2BED3FE049E450E40E9441
:102DE000801C20E030E040EA50E40E94801C0E94F9
:102DF000E70831E03093A1293093042853C083378A
:102E000029F520E030E040E85FE36091C22970914D
:102E1000C3298091C4299091C5290E940F1A6B0182
:102E20007C0120E030E046E154E40E94731C181657
:102E3000F4F480E090E0A6E1B4E48093C22990939A
:102E4000C329A093C429B093C5292CC08837C1F4E5
:102E500020E030E040E85FE36091C2297091C3292F
:102E60008091C4299091C5290E940E1AD8CFC09292
:102E7000C229D092C329E092C429F092C52912C078
:102E8000833681F480916A2B90916B2BA0916C2BEF
:102E9000B0916D2B8093BE299093BF29A093C02938
:102EA000B093C1296091B2297091B3298091B4295E
:102EB0009091B5290E949C1B20E030E040E85DE342
:102EC0000E94801C20E030E040EF51E40E94F21AA2
:102ED00020E030E040E450E40E94F21A9B01AC0193
:102EE0000E940F1A2BED3FE049E450E40E94801C41
:102EF00020E030E040EA50E40E94801C6093CC293E
:102F00007093CD298093CE299093CF290E94220ED1
:102F1000C090CC29D090CD29E090CE29F090CF2937
:102F2000C092A229D092A329E092A429F092A529C7
:102F30008091A129882309F4F3C00E94160E6983A9
:102F40007A838B839C838091BA299091BB29A98134
:102F5000BA81A81BB90B54970CF4E6C0A7019601DF
:102F60006091C2297091C3298091C4299091C5298B
:102F70000E940E1A6B017C012091AA293091AB2985
:102F80004091AC295091AD290E94801C20919D292F
:102F900030919E2940919F295091A0290E940F1A9B
:102FA0004B015C0160939D2970939E2980939F291A
:102FB0009093A0294090992950909A2960909B293C
:102FC00070909C29A30192010E94731C18164CF466
:102FD00040929D2950929E2960929F297092A0292B
:102FE00020C08091952990919629A0919729B09120
:102FF00098298D839E83AF83B8879C01AD01C5015D
:10300000B4010E94ED1A87FF0CC08D819E81AF81B3
:10301000B88580939D2990939E29A0939F29B09372
:10302000A0292091A6293091A7294091A829509143
:10303000A929C701B6010E94801C20919D293091C9
:103040009E2940919F295091A0290E940F1A4B015F
:103050005C012091B6293091B7294091B82950914F
:10306000B929C701B6010E940E1A2091AE293091EC
:10307000AF294091B0295091B1290E94801C9B0139
:10308000AC01C501B4010E940F1A4B015C016093B1
:1030900091297093922980939329909394299B016D
:1030A000AC01C301B2010E94ED1A87FD10C040902F
:1030B0009529509096296090972970909829A3019E
:1030C0009201C501B4010E94ED1A87FF08C0409229
:1030D0009129509292296092932970929429898122
:1030E0009A81AB81BC818093BA299093BB29A0932C
:1030F000BC29B093BD29C092B629D092B729E092DD
:10310000B829F092B9298091912990919229A091A2
:103110009329B09194298D839E83AF83B88704C08F
:103120001D821E821F8218866D817E818F81988507
:103130000E94641B6093CA297093CB29CB010E9423
:103140009C090E94160E0091C6291091C729209152
:10315000C8293091C929AB01BC01401B510B620B3E
:10316000730B4A3F51056105710508F4EFC0D901A1
:10317000C80186509F4FAF4FBF4F8093C629909391
:10318000C729A093C829B093C92961EF7BE78CEDCB
:1031900099E20E94A60B66EF7BE78CED99E20E9414
:1031A000A60B8091CA299091CB290E94E20C6EE572
:1031B0007BE78CED99E20E94A60B66E07CE78CED44
:1031C00099E20E94A60B2091BE293091BF2940911F
:1031D000C0295091C12960916A2B70916B2B80910D
:1031E0006C2B90916D2B0E940E1A20E030E040E095
:1031F00050EC0E94801CAB01BC0122E08CED99E2F6
:103200000E94BB0B6EE57BE78CED99E20E94A60B5A
:1032100062E17CE78CED99E20E94A60B4091CC29FB
:103220005091CD296091CE297091CF2922E08CED6B
:1032300099E20E94BB0B6EE57BE78CED99E20E9460
:10324000A60B65E27CE78CED99E20E94A60B40910B
:10325000C2295091C3296091C4297091C52922E0E7
:103260008CED99E20E94BB0B6EE57BE78CED99E259
:103270000E94A60B69E37CE78CED99E20E94A60B05
:103280004091A6295091A7296091A8297091A92958
:1032900022E08CED99E20E94BB0B6EE57BE78CEDA2
:1032A00099E20E94A60B6EE37CE78CED99E20E9406
:1032B000A60B2AE037ED43EA5CE36091AA297091FE
:1032C000AB298091AC299091AD290E94F21AAB01F3
:1032D000BC0122E08CED99E20E94BB0B6EE57BE71E
:1032E0008CED99E20E94A60B63E47CE78CED99E2F9
:1032F0000E94A60B2AE037ED43EA5CE36091AE2919
:103300007091AF298091B0299091B1290E94801CC1
:10331000AB01BC0122E08CED99E20E94BB0B6EE593
:103320007BE78CED99E20E94A60B68E47CE78CEDCC
:1033300099E20E94A60B8091042890E00E94E20C82
:103340006EE57BE78CED99E20E94A60B0E9471026C
:10335000BACBECEDF9E21282138288EE93E0A0E0A2
:10336000B0E084839583A683B78342E25BE7408322
:10337000518320E238E024873587168621E02787AD
:1033800024E0208B128A138A148A158A2BE1268B5B
:10339000178A108EE5E7FAE21282138284839583FE
:1033A000A683B7834083518340E658E0448755871E
:1033B0003AE13687278720E4208B128A138A148A01
:1033C000158A26E2268B178A108EEEE0FBE2128227
:1033D000138284839583A683B7838CE39BE78083E2
:1033E0009183E0931A2BF0931B2B8AE097EDA3EACD
:1033F000BCE380937E2B90937F2BA093802BB09384
:10340000812B88E491EEAAE7BFE38093822B90930F
:10341000832BA093842BB093852B08955058BB2702
:10342000AA270E94261A0C94391C0E942B1C38F0E3
:103430000E94321C20F039F49F3F19F426F40C94BA
:10344000011C0EF4E095E7FB0C94FB1BE92F0E9496
:103450004A1C58F3BA17620773078407950720F0D0
:1034600079F4A6F50C946C1C0EF4E0950B2EBA2F93
:10347000A02D0B01B90190010C01CA01A00111247A
:10348000FF27591B99F0593F50F4503E68F11A1626
:10349000F040A22F232F342F4427585FF3CF4695B7
:1034A00037952795A795F0405395C9F77EF41F16D9
:1034B000BA0B620B730B840BBAF09150A1F0FF0FA3
:1034C000BB1F661F771F881FC2F70EC0BA0F621F8F
:1034D000731F841F48F4879577956795B795F7957F
:1034E0009E3F08F0B0CF9395880F08F09927EE0F14
:1034F0009795879508950E942B1C60F080E891E0D5
:1035000009F49EEF0E94321C28F040E851E071F46B
:103510005EEF0CC00C94011C0C946C1CE92FE0783D
:103520000E944A1C40F3092E052AB1F326173707DB
:103530004807590738F00E2E07F8E02569F0E02516
:10354000E0640AC0EF6307F8009407FADB01B901F1
:103550009D01DC01CA01AD01EF930E94091B0E948D
:10356000391C0E94BE1A5F91552339F02BED3FE0C4
:1035700049E450FD49EC0C940F1A0895DF93DD27C0
:10358000B92FBF7740E85FE31616170648075B07B9
:1035900018F4D92F0E94781C9F938F937F936F9379
:1035A0000E94ED1CE0EAF0E00E94041C0E94391C1D
:1035B0002F913F914F915F910E94931CDD2351F019
:1035C0009058A2EA2AED3FE049EC5FE3D0785D270E
:1035D0000E94261ADF910C94391C0E94D71B08F414
:1035E00081E008950E94061B0C94391C0E94321C35
:1035F00058F00E942B1C40F029F45F3F29F00C94F6
:10360000FB1B51110C946D1C0C94011C0E944A1C54
:1036100068F39923B1F3552391F3951B550BBB2701
:10362000AA2762177307840738F09F5F5F4F220F46
:10363000331F441FAA1FA9F335D00E2E3AF0E0E83D
:1036400032D091505040E695001CCAF72BD0FE2F87
:1036500029D0660F771F881FBB1F2617370748071B
:10366000AB07B0E809F0BB0B802DBF01FF279358D3
:103670005F4F3AF09E3F510578F00C94FB1B0C9481
:103680006D1C5F3FE4F3983ED4F38695779567957C
:10369000B795F7959F5FC9F7880F911D9695879508
:1036A00097F90895E1E0660F771F881FBB1F621727
:1036B00073078407BA0720F0621B730B840BBA0BE5
:1036C000EE1F88F7E09508950E946B1B6894B11176
:1036D0000C946D1C08950E94521C88F09F5798F01E
:1036E000B92F9927B751B0F0E1F0660F771F881F07
:1036F000991F1AF0BA95C9F714C0B13091F00E9421
:103700006C1CB1E008950C946C1C672F782F8827EF
:10371000B85F39F0B93FCCF3869577956795B39547
:10372000D9F73EF490958095709561957F4F8F4FB6
:103730009F4F0895E89409C097FB3EF490958095BB
:10374000709561957F4F8F4F9F4F9923A9F0F92F67
:1037500096E9BB279395F695879577956795B795E5
:10376000F111F8CFFAF4BB0F11F460FF1BC06F5FCB
:103770007F4F8F4F9F4F16C0882311F096E911C0DD
:10378000772321F09EE8872F762F05C0662371F0FE
:1037900096E8862F70E060E02AF09A95660F771F12
:1037A000881FDAF7880F9695879597F90895990FEE
:1037B0000008550FAA0BE0E8FEEF16161706E807FB
:1037C000F907C0F012161306E407F50798F0621B1C
:1037D000730B840B950B39F40A2661F0232B242BF1
:1037E000252B21F408950A2609F4A140A6958FEF10
:1037F000811D811D089597F99F6780E870E060E062
:1038000008959FEF80EC0895DF93CF931F930F935C
:10381000FF92EF92DF927B018C01689406C0DA2E52
:10382000EF010E94931CFE01E894A591259135912A
:1038300045915591A6F3EF010E94261AFE019701CA
:10384000A801DA9469F7DF90EF90FF900F911F9134
:10385000CF91DF91089500240A94161617061806D2
:103860000906089500240A94121613061406050684
:103870000895092E0394000C11F4882352F0BB0F15
:1038800040F4BF2B11F460FF04C06F5F7F4F8F4F78
:103890009F4F089557FD9058440F551F59F05F3FB3
:1038A00071F04795880F97FB991F61F09F3F79F062
:1038B00087950895121613061406551FF2CF4695E4
:1038C000F1DF08C0161617061806991FF1CF869566
:1038D0007105610508940895E894BB27662777274A
:1038E000CB0197F908950E94D71B08F48FEF089534
:1038F0009B01AC0160E070E080E89FE30C94F21A59
:103900000E94931C0C94391C0E942B1C38F00E94BE
:10391000321C20F0952311F00C94FB1B0C94011C1D
:1039200011240C946D1C0E944A1C70F3959FC1F3E6
:10393000950F50E0551F629FF001729FBB27F00D5D
:10394000B11D639FAA27F00DB11DAA1F649F6627B2
:10395000B00DA11D661F829F2227B00DA11D621F01
:10396000739FB00DA11D621F839FA00D611D221FBB
:10397000749F3327A00D611D231F849F600D211D9F
:10398000822F762F6A2F11249F5750409AF0F1F022
:1039900088234AF0EE0FFF1FBB1F661F771F881F8B
:1039A00091505040A9F79E3F510580F00C94FB1BAD
:1039B0000C946D1C5F3FE4F3983ED4F386957795A5
:1039C0006795B795F795E7959F5FC1F7FE2B880F31
:1039D000911D9695879597F908959B01AC010C94DC
:1039E000801C0E94D71B880B990B0895AA1BBB1B38
:1039F00051E107C0AA1FBB1FA617B70710F0A61BEF
:103A0000B70B881F991F5A95A9F780959095BC010F
:103A1000CD01089597FB072E16F4009407D077FD8B
:103A200009D00E94F61C07FC05D03EF490958195C4
:103A30009F4F0895709561957F4F0895A1E21A2ECA
:103A4000AA1BBB1BFD010DC0AA1FBB1FEE1FFF1F42
:103A5000A217B307E407F50720F0A21BB30BE40B92
:103A6000F50B661F771F881F991F1A9469F76095D9
:103A70007095809590959B01AC01BD01CF01089593
:103A8000052E97FB1EF400940E94571D57FD07D08A
:103A90000E941E1D07FC03D04EF40C94571D509538
:103AA0004095309521953F4F4F4F5F4F089590952A
:103AB0008095709561957F4F8F4F9F4F08950E941D
:103AC000781DA59F900DB49F900DA49F800D911D12
:103AD00011240895B7FF0C945F1D0E945F1D821B87
:103AE000930B0895EE0FFF1F0590F491E02D0994BC
:103AF000A29FB001B39FC001A39F700D811D11242F
:103B0000911DB29F700D811D1124911D089581E0BA
:0C3B100090E0F8940C948C1DF894FFCF0A
:103B1C00B00A00000000ED01E400750153016701DB
:103B2C00490231053C059501970244010000000053
:103B3C009C0377036F035B034C034B03CC04870498
:103B4C007A041604DE03BF03B703ED03E503240375
:103B5C001F030D0A003D3D3D3D3D3D3D3D3D3D3D81
:103B6C003D3D3D3D3D3D3D3D3D3D3D3D3D3D3D3D79
:103B7C003D3D3D3D3D3D3D3D3D3D3D3D3D0043617C
:103B8C006C63756C6174696E67206779726F206FF6
:103B9C0066667365747300444F204E4F54204D4F2E
:103BAC005645204D505536303530002E00446F6E42
:103BBC0065210058203A200059203A20005A203A1A
:103BCC00200050726F6772616D2077696C6C207386
:103BDC00746172742061667465722033207365633E
:103BEC006F6E6473001B5B324A006D6F746F7220D2
:103BFC0063757272656E743A2000494D5520616E82
:103C0C00676C653A200063757272656E7420706F14
:103C1C00736974696F6E3A2000506F736974696FC1
:103C2C006E20536574706F696E743A20004B703A55
:103C3C0020004B693A20004B643A20004B696C6CB5
:103C4C00207377697463682073746174653A20001B
:0C3C5C006E616E00696E66006F76660097
:063C68000024F40001003D
:00000001FF
