:100000000C94A3000C94CB000C94CB000C94CB006C
:100010000C94CB000C94CB000C94F1060C94CB0008
:100020000C94CB000C94CB000C94CB000C94CB0024
:100030000C94CB000C94CB000C94CB000C94CB0014
:100040000C94CB000C94CB000C94CB000C94CB0004
:100050000C9482060C94CB000C94CB000C94CB0037
:100060000C94A7060C94CB000C9449030C94230326
:100070000C94CB000C9438060C94CB000C94CB0061
:100080000C94CB000C94CB000C94CC060C945D0625
:100090000C9419090C94CB000C94CB000C94CB005D
:1000A0000000000300010200000101000000000048
:1000B0000000000000000000000000000000000040
:1000C0000000000000000000000504000506020416
:1000D0000103000100010200010203040502030301
:1000E00005040605040607030700010202030001D8
:1000F00007060202000502010500040101040404D0
:1001000003030303030300000200000301010000D6
:100110000102020202050505050305201001204029
:100120000410020801020102040102040810200464
:1001300008082010402010408008800102040408B4
:10014000010280407D0911241FBECFEFCDBFDFE348
:10015000DEBF18E2A0E0B8E2E6E1F4E202C00590FA
:100160000D92A630B107D9F729E2A6E0B8E201C0A6
:100170001D92AC34B207E1F710E0C3EAD0E004C04E
:100180002197FE010E949F11C23AD107C9F70E9430
:100190009F090C94C4110C940000FC0154894589FA
:1001A000252F30E0842F90E0821B930B541710F022
:1001B000CF96089501970895FC0192898389981735
:1001C00061F08389DF01A80FB11D59968C91938945
:1001D0009F5F9F73938B90E008958FEF9FEF08953B
:1001E000FC0192898389981731F08389E80FF11D0A
:1001F000818D90E008958FEF9FEF0895FC01928923
:100200002389892F90E0805C9F4F821B91098F7317
:10021000992708958DEA98E20E94FE0021E0892B3B
:1002200009F420E0822F0895CF93DF93EC01E88159
:10023000F9810284F385E02D0995EC85FD858681A1
:100240008F738683EC85FD8585818F7585838B898A
:100250008A8B198ADF91CF910895CF93DF93FC01A8
:1002600094898589A485B585981307C015968C91C6
:1002700015978F7D15968C932CC08589EF01C80F3B
:10028000D11DC75ADF4F2881858990E001968F7371
:100290009927858B80E414968C93A485B585129656
:1002A0002C93A485B58514968C91149785FFFBCF6C
:1002B0009489858998130DC015968C9115978F7D1B
:1002C00015968C938789882321F0808D8093130164
:1002D000178ADF91CF910895EF92FF920F931F93AA
:1002E000CF93DF93FC0181E0818B948985899813FA
:1002F00007C0A485B58514968C91149785FD2EC0F2
:100300008091110180FF08C080911301808F868940
:100310008093130181E0878BF62EEF01048910E0B2
:100320000F5F1F4F0F731127E02E8D89E81209C050
:100330000FB607FE29C0EC85FD85858185FDF5CFCB
:1003400023C08C89FE01E80FF11DE75AFF4FF082B0
:100350000C8BEC85FD85858180620CC012966C93B8
:10036000A485B58580E414968C930484F585E02DEE
:1003700085818F7D858381E090E0DF91CF911F9112
:100380000F91FF90EF900895CE010E942D01CDCFE7
:10039000CF93DF93FC0121892223F9F0EC018091B6
:1003A000110180FF08C080911301808F868980939E
:1003B000130181E0878BEC85FD85858185FD03C078
:1003C000848186FD0AC00FB607FE03C0858185FDC6
:1003D000F4CFCE010E942D01EECFDF91CF91089591
:1003E00080E090E0892B41F080E090E0892B21F0C3
:1003F0000E940000811115C080E090E0892B21F05F
:100400000E940A01811110C080E090E0892B89F0E0
:1004100080E090E0892B69F00E940000811107C004
:1004200008950E940000E8CF0E940000EDCF0C94D8
:100430000000089581E00895DC01ED91FC910684AF
:10044000F785E02D23E030E009948F929F92AF92E0
:10045000BF92EF92FF920F931F93CF93DF93EC0124
:100460004A015B01E22E8989882339F0E881F9810C
:100470000088F189E02DCE01099598898091E205E7
:10048000892B8093E205FFB6F89480910028909123
:100490000128A0910228B0910328BC01CD0123E0DE
:1004A000660F771F881F991F2A95D1F7A501940120
:1004B0000E94561149015A018FEF881A980AA80A1A
:1004C000B80AB694A79497948794EC85FD858681A5
:1004D0008D7F8683EC85FD8586818683198A8E854E
:1004E00062E070E00E94DF088F8561E070E00E94AA
:1004F00094088F8561E070E00E94DF0880912311ED
:10050000E82F880FFF0BDF01BC5FA50194010E945B
:1005100097110C851D85AF01F7FF03C051954195DB
:10052000510920E034E0241B350B032E000C440B52
:10053000550B0E947811F80120873187EC85FD85E5
:10054000E782EC85FD858681806C8683EC85FD8560
:10055000858180688583FFBEDF91CF911F910F91C8
:10056000FF90EF90BF90AF909F908F900895CF93A2
:10057000E5E2F1E0C491CF3FD9F08AE00E9466083D
:10058000ECEFF0E0A49180E2A89FD0011124BC5FC1
:100590001896EC91EC2361F080918F28909190282F
:1005A000A0919128B09192280197A109B1090BC09F
:1005B00080918F2890919028A0919128B0919228B5
:1005C0000196A11DB11D80938F2890939028A09330
:1005D0009128B0939228CF910895EF92FF920F93B4
:1005E0001F93CF93DF93863030F490E2899FE00130
:1005F0001124DC5F02C0C0E0D0E0E984182F110FA5
:10060000110F110FFF24F39400E08E2D8F2179F04C
:10061000E12FE00FF0E0EE0FFF1FEA5FF74D808162
:100620009181892B21F00190F081E02D09950F5FD8
:10063000FF0C083051F7E986DF91CF911F910F91A0
:10064000FF90EF9008951F920F920FB60F92112412
:100650002F933F934F935F936F937F938F939F93CA
:10066000AF93BF93EF93FF938DEA98E20E942D0121
:10067000FF91EF91BF91AF919F918F917F916F917A
:100680005F914F913F912F910F900FBE0F901F9050
:1006900018951F920F920FB60F9211242F938F93DC
:1006A0009F93EF93FF93E091B928F091BA2881814D
:1006B00081FD12C090818091BF288F5F8F73209140
:1006C000C028821751F0E091BF28F0E0E355F74DC4
:1006D000918F8093BF2801C08081FF91EF919F91FE
:1006E0008F912F910F900FBE0F901F9018958F92A2
:1006F0009F92AF92BF92CF92DF92EF92FF92609360
:100700007B2870937C2880937D2890937E2860932B
:100710006A2870936B2880936C2890936D28C09002
:100720006628D0906728E0906828F0906928C092E9
:100730007628D0927728E0927828F09279288090D5
:10074000722890907328A0907428B0907528A50105
:100750009401C701B6010E94CB10181684F0809056
:100760006E2890906F28A0907028B0907128A501F5
:100770009401C701B6010E946C0F87FF08C08092E8
:10078000762890927728A0927828B0927928FF90C6
:10079000EF90DF90CF90BF90AF909F908F90089593
:1007A0004F925F926F927F928F929F92AF92BF9281
:1007B000CF92DF92EF92FF920F931F932B013C0198
:1007C00049015A016701780120E030E0A9010E9447
:1007D0006C0F87FD3AC020E030E0A901C501B401EB
:1007E0000E946C0F87FD31C020E030E0A901C701F5
:1007F000B6010E946C0F87FD28C04092832850925A
:10080000842860928528709286282DEC3CEC4CE47C
:100810005DE3C501B4010E94D010609387287093F6
:1008200088288093892890938A282DEC3CEC4CE40E
:100830005DE3C701B6010E94710F60938B2870932E
:100840008C2880938D2890938E281F910F91FF9074
:10085000EF90DF90CF90BF90AF909F908F907F9060
:100860006F905F904F900895CF93DF93EC0197FFC7
:1008700009C060E070E084E00E949408D195C195C1
:10088000D1090AC061E070E084E00E9494082097DA
:1008900019F460E070E080C0C630D1051CF460E05F
:1008A00070E083C0CB30D1051CF460E070E086C0FE
:1008B000C031D1051CF460E070E089C0C531D105BC
:1008C0001CF460E070E08CC0C931D1051CF460E01C
:1008D00070E08FC0CE31D10594F460E070E08EE01E
:1008E0000E94940860E070E08FE00E94940861E04C
:1008F00070E080E10E94940861E070E0CDC0C332F6
:10090000D1051CF460E070E081C0C732D1056CF401
:1009100060E070E08EE00E94940861E070E08FE09B
:100920000E94940860E070E0B2C0CC32D1051CF4A3
:1009300060E070E078C0C033D1051CF460E070E086
:1009400080C0C433D1051CF460E070E088C0C933B6
:10095000D10524F460E070E08EE090C0CD33D10585
:1009600024F460E070E08EE0A0C0C034D10544F40F
:1009700060E070E08EE00E94940861E070E0B4CF27
:10098000C434D10524F460E070E08EE09DC061E0E5
:1009900070E0C834D10534F48EE00E94940860E021
:1009A00070E0BDCFCB34D10534F48EE00E949408C2
:1009B00060E070E03DC0CE34D10534F48EE00E949A
:1009C000940860E070E042C0C135D10534F48EE097
:1009D0000E94940860E070E047C0C435D10534F44B
:1009E0008EE00E94940860E070E04CC0C735D105ED
:1009F00034F48EE00E94940860E070E05AC0C9357B
:100A0000D1050CF46CCFCB35D10534F48EE00E94C7
:100A1000940860E070E05CC0CD35D1050CF47ACF6D
:100A2000CF35D1055CF48EE00E94940861E070E05F
:100A30008FE00E94940860E070E040C0C136D105AC
:100A40005CF48EE00E94940861E070E08FE00E9408
:100A5000940860E070E04DCFC136D10559F48EE0C6
:100A60000E94940861E070E08FE00E94940860E0CA
:100A700070E033C08EE0C236D105A1F40E94940824
:100A800061E070E08FE00E94940861E070E080E136
:100A90000E94940860E070E081E10E94940860E0A8
:100AA00070E025C0C336D10579F40E94940861E056
:100AB00070E08FE00E94940861E070E080E10E94A5
:100AC000940860E070E00EC00E94940861E070E05D
:100AD0008FE00E94940861E070E080E10E94940839
:100AE00061E070E081E10E94940861E070E082E1E1
:100AF000DF91CF910C949408CF92DF92EF92FF9206
:100B000060918F28709190288091912890919228DF
:100B10000E941B1020E030E040E85DE30E94D0100E
:100B200020E030E040EF51E40E94710F20E030E01F
:100B300040E450E40E94710F9B01AC010E94000F41
:100B40002BED3FE049E450E40E94D01020E030E07B
:100B500040EA50E40E94D0106B017C0120E030E0BC
:100B600046E154E40E94CB1018166CF480E090E04B
:100B7000A6E1B4E480937F2890938028A0938128F5
:100B8000B093822808C0C0927F28D0928028E0923B
:100B90008128F092822861E070E089E00E94940848
:100BA00060918F287091902880919128909192283F
:100BB00020917A28211126C00E941B1020E030E0ED
:100BC00040E85DE30E94D01020E030E040EF51E4C7
:100BD0000E94710F20E030E040E450E40E94710F69
:100BE0009B01AC010E94000F2BED3FE049E450E473
:100BF0000E94D01020E030E040EA50E40E94D01083
:100C00000E94770381E080937A2880930428FF90E4
:100C1000EF90DF90CF900895CF92DF92EF92FF9206
:100C20000F931F93CF93DF936C017A018B01C0E088
:100C3000D0E0CE15DF0581F0D8016D918D01D60190
:100C4000ED91FC910190F081E02DC6010995892B71
:100C500011F02196EECF7E01C701DF91CF911F9158
:100C60000F91FF90EF90DF90CF9008950E94BF11F9
:100C70001F920F920FB60F9211242F933F934F9311
:100C80005F936F937F938F939F93AF93BF93EF93F4
:100C9000FF9385E00E94ED02FF91EF91BF91AF912C
:100CA0009F918F917F916F915F914F913F912F9184
:100CB0000F900FBE0F901F9018951F920F920FB6B6
:100CC0000F9211242F933F934F935F936F937F93D2
:100CD0008F939F93AF93BF93EF93FF9384E00E9412
:100CE000ED02FF91EF91BF91AF919F918F917F9115
:100CF0006F915F914F913F912F910F900FBE0F9089
:100D00001F9018951F920F920FB60F9211242F93D8
:100D10003F934F935F936F937F938F939F93AF9383
:100D2000BF93EF93FF9383E00E94ED02FF91EF9159
:100D3000BF91AF919F918F917F916F915F914F91F3
:100D40003F912F910F900FBE0F901F9018951F92FB
:100D50000F920FB60F9211242F933F934F935F93EF
:100D60006F937F938F939F93AF93BF93EF93FF9373
:100D700082E00E94ED02FF91EF91BF91AF919F91B0
:100D80008F917F916F915F914F913F912F910F9034
:100D90000FBE0F901F9018951F920F920FB60F92D3
:100DA00011242F933F934F935F936F937F938F9370
:100DB0009F93AF93BF93EF93FF9381E00E94ED0267
:100DC000FF91EF91BF91AF919F918F917F916F9123
:100DD0005F914F913F912F910F900FBE0F901F90F9
:100DE00018951F920F920FB60F9211242F933F93D5
:100DF0004F935F936F937F938F939F93AF93BF9323
:100E0000EF93FF9380E00E94ED02FF91EF91BF917D
:100E1000AF919F918F917F916F915F914F913F9192
:100E20002F910F900FBE0F901F901895009769F0AB
:100E3000FC0101900020E9F73197AF01481B590BE5
:100E4000BC018DEA98E20C940C0680E090E00895D5
:100E50008F929F92AF92BF920F931F93CF93DF9386
:100E6000CDB7DEB7A197CDBFDEBF19A2423008F4DF
:100E70004AE08E010F5D1F4F842E912CA12CB12CC6
:100E8000A50194010E945611E62FB901CA01015033
:100E90001109EA3014F4E05D01C0E95CD801EC937B
:100EA000232B242B252B61F7C8010E941607A1963E
:100EB000CDBFDEBFDF91CF911F910F91BF90AF905B
:100EC0009F908F9008950C941607CF92DF92EF9227
:100ED000FF92CF93DF936C01990FEE08FF08F7FEA6
:100EE00019C06DE28DEA98E20E946C01EC01662760
:100EF0007727CB016C197D098E099F094AE00E9472
:100F000028078C0F9D1FDF91CF91FF90EF90DF900E
:100F1000CF9008954AE0C701B601DF91CF91FF90CD
:100F2000EF90DF90CF900C9428078F929F92AF9212
:100F3000BF92CF92DF92EF92FF920F931F93CF93C6
:100F4000DF936B017C01142F9B01AC010E943D11CA
:100F5000882319F088E094E627C046015701E894F9
:100F6000B7F82FEF3FEF4FE75FE7C501B4010E94ED
:100F70003D1181110DC02FEF3FEF4FE75FE7C50136
:100F8000B4010E946C0F18161CF48CE094E60CC09F
:100F90002FEF3FEF4FE75FE4C701B6010E94CB1090
:100FA000181684F480E194E6DF91CF911F910F91A0
:100FB000FF90EF90DF90CF90BF90AF909F908F9079
:100FC0000C9416072FEF3FEF4FE75FECC701B60118
:100FD0000E946C0F87FDE6CF20E030E0A901C70139
:100FE000B6010E946C0F87FF0BC06DE28DEA98E29C
:100FF0000E946C01EC01F7FAF094F7F8F09402C04B
:10100000C0E0D0E000E060E070E080E09FE3101717
:1010100041F020E030E040E251E40E94710F0F5FA8
:10102000F6CFA70196010E94000F6B017C010E9480
:10103000EA0F4B015C014AE00E942807C80FD91F44
:101040001123B1F1C501B4010E9419109B01AC013B
:10105000C701B6010E94FF0E6B017C0184E194E69A
:101060000E941607C80FD91F20E030E040E251E48B
:10107000C701B6010E94D0104B015C010E94EA0F2B
:101080006B01E12CF12C4AE0C701B6010E94280750
:10109000C80FD91FC701B6010E9419109B01AC01EE
:1010A000C501B4010E94FF0E6B017C011150E1F6F5
:1010B000CE01DF91CF911F910F91FF90EF90DF90C4
:1010C000CF90BF90AF909F908F900895893258F540
:1010D00090E0FC01E056FF4FE491EE2321F1E13076
:1010E00021F008F1E630B0F00895FC01E753FF4F1E
:1010F00084914091010A8C5F21E030E0B90102C087
:10110000660F771F8A95E2F7CB0180958423809341
:10111000010A089570E1E79FF0011124E05AF54FAC
:1011200081818F7E81830895FF920F931F93CF93C8
:10113000DF93893208F03DC0082F10E0F801E55E2A
:10114000FE4FF4909FEFF916A1F1EB010E946608A3
:10115000F801EE50FF4FA49180E2A89FD001112426
:10116000BC5F8C918F2169F0209719F41696FC9240
:1011700020C0229719F41796FC921BC01596FC927A
:1011800018C0F801E753FF4FE491109731F0EF3F9B
:1011900021F05096AE0FB11D02C0A0E0B0E09FB7A5
:1011A000F8948C91CD2B11F4877F01C088608C93CB
:1011B0009FBFDF91CF911F910F91FF900895CF9323
:1011C000DF93893298F590E0FC01E55EFE4F2491B3
:1011D0002F3F61F16330710548F5FC01EE50FF4F80
:1011E000A49130E2A39FD0011124BC5F613071054E
:1011F00019F411962C931AC0FC01E753FF4F849108
:101200008F3F29F0ED016096C80FD11D02C0C0E0EC
:10121000D0E09FB7F89412962C93888162307105C4
:1012200011F4886001C0877F88839FBFDF91CF91D1
:1012300008951F920F920FB60F9211242F933F9390
:101240004F935F936F937F938F939F93AF93BF93CE
:101250004091A9285091AA286091AB287091AC28A0
:1012600020914A2930914B298091A7289091A82854
:10127000480F591F611D711D8091A5289091A628C6
:10128000820F931F883E23E0920730F0885E9340E0
:101290004F5F5F4F6F4F7F4F80934A2990934B2949
:1012A0004093A9285093AA286093AB287093AC2848
:1012B0008091462990914729A0914829B0914929C8
:1012C0000196A11DB11D8093462990934729A093B3
:1012D0004829B093492981E08093B60ABF91AF9124
:1012E0009F918F917F916F915F914F913F912F913E
:1012F0000F900FBE0F901F901895EDEAF8E2128242
:10130000138288EE93E0A0E0B0E084839583A68307
:10131000B78380E993E68083918380E298E08487B5
:101320009587168681E0878784E0808B128A138AEE
:10133000148A158A8BE1868B178A108E0895CF93B5
:10134000DF93CDB7DEB72C97CDBFDEBF90E088ED41
:1013500084BF9093610080E094E2A4EFB0E08093BA
:10136000002890930128A0930228B093032880912D
:101370000206866080930206809100068160809359
:101380000006809102068F7C809302068091A00067
:101390008F788093A000809102068061809302067E
:1013A0001092E20581E08093E40583E08093010AD6
:1013B0008FEF90E08093260A9093270A80E890E0D0
:1013C0008093380A9093390A80933A0A90933B0AA3
:1013D00080933C0A90933D0A8BE08093000A8091B1
:1013E000E50581608093E5058091E5058260809345
:1013F000E505E0E8FAE037E02FEF90E885E031839B
:101400002487958780837096E03C4AE0F407B9F71B
:1014100080E094E080939528909396288091952879
:10142000909196282FEF30E0B9010E94421160930D
:101430009328709394288091952890919628E8EEAF
:10144000F3E0BF010E9442116093A7287093A8287F
:101450008091952890919628BF010E944211809317
:10146000A5289093A6282093BC0A3093BD0A8091AA
:10147000B50A81608093B50A84E08093B00A8091B8
:10148000B00A81608093B00A789461E070E08CE1EA
:101490000E94DF0861E070E08CE10E94940861E046
:1014A00070E08DE10E94DF0861E070E08DE10E9454
:1014B000940861E070E083E20E94DF0861E070E080
:1014C00083E20E94940861E070E08EE10E94DF08F0
:1014D00061E070E08EE10E94940861E070E084E0D9
:1014E0000E94DF0861E070E089E00E94DF0861E0AF
:1014F00070E088E00E94DF0861E070E087E00E9411
:10150000DF0861E070E08EE00E94DF0861E070E0DB
:101510008FE00E94DF0861E070E080E10E94DF0858
:1015200061E070E081E10E94DF0861E070E082E14B
:101530000E94DF0860E070E082E00E94DF0860E067
:1015400070E088E00E94940861E070E087E00E940B
:10155000940880919F289091A0280E94340480E0F4
:1015600090E0A0E8BFE38093832890938428A09321
:101570008528B09386288DEC9CECACE4BDE3809389
:10158000872890938828A0938928B0938A2880E0A0
:1015900090E0A0EAB1E480938B2890938C28A093EC
:1015A0008D28B0938E2880E090E0A8E4B2EC809380
:1015B0006E2890936F28A0937028B093712880E0D4
:1015C00090E0A8E4B2E48093722890937328A093EB
:1015D0007428B093752860918F287091902880911D
:1015E0009128909192280E941B1020E030E040E862
:1015F0005DE30E94D01020E030E040EF51E40E9413
:10160000710F20E030E040E450E40E94710F9B0134
:10161000AC010E94000F2BED3FE049E450E40E9432
:10162000D01020E030E040EA50E40E94D010209139
:101630007A28211102C00E94770381E080937A28E2
:1016400040E052EC61E070E08DEA98E20E941C02FA
:101650000E947C0560E070E085E00E94DF0860E0A9
:1016600070E08AE00E94DF08EEECF0E084918F3FAA
:1016700011F1E7EFF0E09491A82F58E0959FA00DAD
:101680001124A033C0F4B0E0AA0FBB1FAA5FB74D6E
:1016900027EB32E02D933C93E49190E2E99FF00137
:1016A0001124FC5F7096E80FF11D8081887F808394
:1016B00080818260808310928F28109290281092EF
:1016C0009128109292288DEA98E20E94FE00181646
:1016D00019060CF08CC18DEA98E20E94DC0080377C
:1016E00079F52DEC3CEC4CE45DE360918B28709136
:1016F0008C2880918D2890918E280E94D0106B01AB
:101700007C012DEC3CEC4CE45DE36091872870910A
:1017100088288091892890918A280E94710F2B0136
:101720003C012DEC3CEC4CEC5DE360918328709126
:10173000842880918528909186280E94000F30C0CF
:101740008F3699F52DEC3CEC4CE45DE360918B28F1
:1017500070918C2880918D2890918E280E94D010B5
:101760006B017C012DEC3CEC4CE45DE3609187283F
:10177000709188288091892890918A280E94710F01
:101780002B013C012DEC3CEC4CEC5DE3609183289B
:101790007091842880918528909186280E94FF0E60
:1017A00087017601A301920197C0893629F52DECB6
:1017B0003CEC4CE45DE360918B2870918C28809127
:1017C0008D2890918E280E94D0106B017C012DEC09
:1017D0003CEC4CE45DE3609187287091882880910F
:1017E000892890918A280E94710F2DEC3CEC4CECDA
:1017F0005DE30E94000F64C0853729F52DEC3CECB9
:101800004CE45DE360918B2870918C2880918D2849
:1018100090918E280E94D0106B017C012DEC3CEC45
:101820004CE45DE360918728709188288091892835
:1018300090918A280E94710F2DEC3CEC4CEC5DE3FA
:101840000E94FF0E3DC08436A9F42DEC3CEC4CE424
:101850005DE360918B2870918C2880918D28909108
:101860008E280E94D0102DEC3CEC4CEC5DE30E94E5
:10187000000F16C0863699F52DEC3CEC4CE45DE388
:1018800060918B2870918C2880918D2890918E2862
:101890000E94D0102DEC3CEC4CEC5DE30E94FF0E5E
:1018A0006B017C012DEC3CEC4CE45DE360918728FE
:1018B000709188288091892890918A280E94710FC0
:1018C0009B01AC01609183287091842880918528C8
:1018D00090918628870176010E94D00388C08032CB
:1018E00009F040C080E090E00E94340460E070E0C5
:1018F00089E00E94940860918F28709190288091CF
:1019000091289091922820917A28222331F10E94E7
:101910001B1020E030E040E85DE30E94D01020E0A2
:1019200030E040EF51E40E94710F20E030E040E4ED
:1019300050E40E94710F9B01AC010E94000F2BED3F
:101940003FE049E450E40E94D01020E030E040EA5B
:1019500050E40E94D0100E94770310927A281092CF
:10196000042845C0823719F40E947C0540C08337A3
:1019700079F420E030E040E85FE360917F287091E7
:10198000802880918128909182280E94000F10C0A9
:10199000883769F520E030E040E85FE360917F2818
:1019A0007091802880918128909182280E94FF0E5A
:1019B0006B017C0120E030E046E154E40E94CB1052
:1019C00018166CF480E090E0A6E1B4E480937F28E0
:1019D00090938028A0938128B093822808C0C09259
:1019E0007F28D0928028E0928128F092822860910E
:1019F0008F287091902880919128909192280E9430
:101A00001B1020E030E040E85DE30E94D01020E0B1
:101A100030E040EF51E40E94710F20E030E040E4FC
:101A200050E40E94710F9B01AC010E94000F2BED4E
:101A30003FE049E450E40E94D01020E030E040EA6A
:101A400050E40E94D0106093A1287093A228809344
:101A5000A3289093A42860937B2870937C2880937C
:101A60007D2890937E2880917A28882309F403C1E9
:101A70008FB7F8942091A9283091AA284091AB28DB
:101A80005091AC2829873A874B875C878FBF80911C
:101A9000972890919828281B390B223331050CF494
:101AA000EDC040907B2850907C2860907D287090FD
:101AB0007E28A301920160917F28709180288091F7
:101AC0008128909182280E94FF0E69837A838B83FC
:101AD0009C832091872830918828409189285091B3
:101AE0008A280E94D0102091762830917728409142
:101AF0007828509179280E94000F4B015C01609377
:101B00007628709377288093782890937928C090CE
:101B10007228D0907328E0907428F0907528A7015F
:101B200096010E94CB1018164CF4C0927628D092E1
:101B30007728E0927828F092792820C080916E284A
:101B400090916F28A0917028B09171288D839E8309
:101B5000AF83B8879C01AD01C501B4010E946C0F31
:101B600087FF0CC02D813E814F81588520937628B8
:101B700030937728409378285093792820918328B0
:101B800030918428409185285091862869817A81F6
:101B90008B819C810E94D0102091762830917728EB
:101BA00040917828509179280E94000F4B015C01E8
:101BB00020916A2830916B2840916C2850916D28B3
:101BC000C301B2010E94FF0E20918B2830918C2816
:101BD00040918D2850918E280E94D0109B01AC011D
:101BE000C501B4010E94FF0E4B015C0160936628A1
:101BF0007093672880936828909369289B01AC01B3
:101C0000C701B6010E946C0F87FD10C0C0906E28FE
:101C1000D0906F28E0907028F0907128A70196016D
:101C2000C501B4010E946C0F87FF08C0C0926628EE
:101C3000D0926728E0926828F092692840926A283A
:101C400050926B2860926C2870926D2889859A85D5
:101C5000AB85BC858093972890939828A09399286A
:101C6000B0939A288090662890906728A090682862
:101C7000B090692803C0812C912C5401C501B40196
:101C80000E94E30F60939F287093A028CB010E94CD
:101C900034048FB7F8944091A9285091AA286091F4
:101CA000AB287091AC288FBF80919B2890919C2885
:101CB000A0919D28B0919E28481B590B6A0B7B0B65
:101CC0004A3F51056105710508F496C086509F4F43
:101CD000AF4FBF4F80939B2890939C28A0939D2843
:101CE000B0939E2886EA93E60E9463078BEA93E608
:101CF0000E94630780919F289091A0280E94650709
:101D00008BEB93E60E9463078EEB93E60E946307DA
:101D10006091A1287091A2288091A3289091A42875
:101D200042E00E9495078BEB93E60E94630781EDEA
:101D300093E60E94630760917F28709180288091CC
:101D400081289091822842E00E9495078BEB93E6D0
:101D50000E94630785EE93E60E94630760918328E3
:101D600070918428809185289091862842E00E9475
:101D700095078BEB93E60E9463078AEE93E60E9439
:101D800063072DEC3CEC4CE45DE360918728709197
:101D900088288091892890918A280E94710F42E0BA
:101DA0000E9495078BEB93E60E9463078FEE93E604
:101DB0000E9463072DEC3CEC4CE45DE360918B28C2
:101DC00070918C2880918D2890918E280E94D0103F
:101DD00042E00E9495078BEB93E60E94630784EF35
:101DE00093E60E9463078091042890E00E946507B3
:101DF0008BEB93E60E9463070E94F00164CC50587D
:101E0000BB27AA270E94170F0C9491100E948310E1
:101E100038F00E948A1020F039F49F3F19F426F41C
:101E20000C9480100EF4E095E7FB0C947A10E92FE7
:101E30000E94A21058F3BA17620773078407950728
:101E400020F079F4A6F50C94C4100EF4E0950B2E56
:101E5000BA2FA02D0B01B90190010C01CA01A001FC
:101E60001124FF27591B99F0593F50F4503E68F157
:101E70001A16F040A22F232F342F4427585FF3CF98
:101E8000469537952795A795F0405395C9F77EF469
:101E90001F16BA0B620B730B840BBAF09150A1F0B2
:101EA000FF0FBB1F661F771F881FC2F70EC0BA0F38
:101EB000621F731F841F48F4879577956795B795C0
:101EC000F7959E3F08F0B0CF9395880F08F09927BB
:101ED000EE0F9795879508950E94561008F481E0BB
:101EE00008950E94850F0C9491100E948A1058F05A
:101EF0000E94831040F029F45F3F29F00C947A107F
:101F000051110C94C5100C9480100E94A21068F31B
:101F10009923B1F3552391F3951B550BBB27AA27A2
:101F200062177307840738F09F5F5F4F220F331FDC
:101F3000441FAA1FA9F335D00E2E3AF0E0E832D0A4
:101F400091505040E695001CCAF72BD0FE2F29D0A7
:101F5000660F771F881FBB1F261737074807AB0779
:101F6000B0E809F0BB0B802DBF01FF2793585F4FEE
:101F70003AF09E3F510578F00C947A100C94C510FD
:101F80005F3FE4F3983ED4F3869577956795B795D0
:101F9000F7959F5FC9F7880F911D9695879597F9DB
:101FA0000895E1E0660F771F881FBB1F6217730754
:101FB0008407BA0720F0621B730B840BBA0BEE1F69
:101FC00088F7E09508950E94EA0F6894B1110C9487
:101FD000C51008950E94AA1088F09F5798F0B92F55
:101FE0009927B751B0F0E1F0660F771F881F991F4E
:101FF0001AF0BA95C9F714C0B13091F00E94C4101C
:10200000B1E008950C94C410672F782F8827B85F2B
:1020100039F0B93FCCF3869577956795B395D9F7A5
:102020003EF490958095709561957F4F8F4F9F4FAF
:102030000895E89409C097FB3EF4909580957095BB
:1020400061957F4F8F4F9F4F9923A9F0F92F96E904
:10205000BB279395F695879577956795B795F11179
:10206000F8CFFAF4BB0F11F460FF1BC06F5F7F4F16
:102070008F4F9F4F16C0882311F096E911C0772328
:1020800021F09EE8872F762F05C0662371F096E831
:10209000862F70E060E02AF09A95660F771F881F00
:1020A000DAF7880F9695879597F90895990F0008A4
:1020B000550FAA0BE0E8FEEF16161706E807F9071A
:1020C000C0F012161306E407F50798F0621B730BB5
:1020D000840B950B39F40A2661F0232B242B252B36
:1020E00021F408950A2609F4A140A6958FEF811DD9
:1020F000811D089597F99F6780E870E060E008957A
:102100009FEF80EC089500240A941616170618060F
:102110000906089500240A941216130614060506EB
:102120000895092E0394000C11F4882352F0BB0F7C
:1021300040F4BF2B11F460FF04C06F5F7F4F8F4FDF
:102140009F4F089557FD9058440F551F59F05F3F1A
:1021500071F04795880F97FB991F61F09F3F79F0C9
:1021600087950895121613061406551FF2CF46954B
:10217000F1DF08C0161617061806991FF1CF8695CD
:102180007105610508940895E894BB2766277727B1
:10219000CB0197F908950E94561008F48FEF089527
:1021A0000E94E3100C9491100E94831038F00E945A
:1021B0008A1020F0952311F00C947A100C94801062
:1021C00011240C94C5100E94A21070F3959FC1F3C6
:1021D000950F50E0551F629FF001729FBB27F00DD5
:1021E000B11D639FAA27F00DB11DAA1F649F66272A
:1021F000B00DA11D661F829F2227B00DA11D621F79
:10220000739FB00DA11D621F839FA00D611D221F32
:10221000749F3327A00D611D231F849F600D211D16
:10222000822F762F6A2F11249F5750409AF0F1F099
:1022300088234AF0EE0FFF1FBB1F661F771F881F02
:1022400091505040A9F79E3F510580F00C947A10B0
:102250000C94C5105F3FE4F3983ED4F386957795D0
:102260006795B795F795E7959F5FC1F7FE2B880FA8
:10227000911D9695879597F908950E945610880BA1
:10228000990B0895AA1BBB1B51E107C0AA1FBB1FD6
:10229000A617B70710F0A61BB70B881F991F5A95F2
:1022A000A9F780959095BC01CD010895A1E21A2E61
:1022B000AA1BBB1BFD010DC0AA1FBB1FEE1FFF1FEA
:1022C000A217B307E407F50720F0A21BB30BE40B3A
:1022D000F50B661F771F881F991F1A9469F7609581
:1022E0007095809590959B01AC01BD01CF0108953B
:1022F000052E97FB1EF400940E948F1157FD07D006
:102300000E94561107FC03D04EF40C948F11509587
:102310004095309521953F4F4F4F5F4F08959095D1
:102320008095709561957F4F8F4F9F4F0895B7FFB0
:102330000C94A5110E94A511821B930B0895EE0F1A
:10234000FF1F0590F491E02D09940E94B011A59F04
:10235000900DB49F900DA49F800D911D11240895A0
:10236000A29FB001B39FC001A39F700D811D1124D6
:10237000911DB29F700D811D1124911D089581E062
:0C23800090E0F8940C94C411F894FFCF86
:10238C00000000006C010C06FE00DC00F000C8012F
:10239C001C02250214011A02CD001B5B324A006D8F
:1023AC006F746F722063757272656E743A20000DD3
:1023BC000A0063757272656E7420706F736974694C
:1023CC006F6E3A2000506F736974696F6E2053659D
:1023DC0074706F696E743A20004B703A20004B6930
:1023EC003A20004B643A20004B696C6C207377697F
:1023FC007463682073746174653A20006E616E00BA
:0A240C00696E66006F7666002E0010
:062416000024F4000100A7
:00000001FF
