:100000000C94A3000C94CB000C94CB000C94CB006C
:100010000C94CB000C94CB000C9408060C94CB00F1
:100020000C94CB000C94CB000C94CB000C94CB0024
:100030000C94CB000C94CB000C94CB000C94CB0014
:100040000C94CB000C94CB000C94CB000C94CB0004
:100050000C9499050C94CB000C94CB000C94CB0021
:100060000C94BE050C94CB000C9449030C94230310
:100070000C94CB000C944F050C94CB000C94CB004B
:100080000C94CB000C94CB000C94E3050C947405F9
:100090000C9430080C94CB000C94CB000C94CB0047
:1000A0000000000300010200000101000000000048
:1000B0000000000000000000000000000000000040
:1000C0000000000000000000000504000506020416
:1000D0000103000100010200010203040502030301
:1000E00005040605040607030700010202030001D8
:1000F00007060202000502010500040101040404D0
:1001000003030303030300000200000301010000D6
:100110000102020202050505050305201001204029
:100120000410020801020102040102040810200464
:1001300008082010402010408008800102040408B4
:1001400001028040940811241FBECFEFCDBFDFE332
:10015000DEBF18E2A0E0B8E2E8EAFFE102C00590E5
:100160000D92A630B107D9F729E2A6E0B8E201C0A6
:100170001D92A333B207E1F710E0C3EAD0E004C058
:100180002197FE010E94680FC23AD107C9F70E9469
:10019000B6080C948D0F0C940000FC01548945891D
:1001A000252F30E0842F90E0821B930B541710F022
:1001B000CF96089501970895FC0192898389981735
:1001C00061F08389DF01A80FB11D59968C91938945
:1001D0009F5F9F73938B90E008958FEF9FEF08953B
:1001E000FC0192898389981731F08389E80FF11D0A
:1001F000818D90E008958FEF9FEF0895FC01928923
:100200002389892F90E0805C9F4F821B91098F7317
:100210009927089584E998E20E94FE0021E0892B45
:1002200009F420E0822F0895CF93DF93EC01E88159
:10023000F9810284F385E02D0995EC85FD858681A1
:100240008F738683EC85FD8585818F7585838B898A
:100250008A8B198ADF91CF910895CF93DF93FC01A8
:1002600094898589A485B585981307C015968C91C6
:1002700015978F7D15968C932CC08589EF01C80F3B
:10028000D11DC75ADF4F2881858990E001968F7371
:100290009927858B80E414968C93A485B585129656
:1002A0002C93A485B58514968C91149785FFFBCF6C
:1002B0009489858998130DC015968C9115978F7D1B
:1002C00015968C938789882321F0808D8093130164
:1002D000178ADF91CF910895EF92FF920F931F93AA
:1002E000CF93DF93FC0181E0818B948985899813FA
:1002F00007C0A485B58514968C91149785FD2EC0F2
:100300008091110180FF08C080911301808F868940
:100310008093130181E0878BF62EEF01048910E0B2
:100320000F5F1F4F0F731127E02E8D89E81209C050
:100330000FB607FE29C0EC85FD85858185FDF5CFCB
:1003400023C08C89FE01E80FF11DE75AFF4FF082B0
:100350000C8BEC85FD85858180620CC012966C93B8
:10036000A485B58580E414968C930484F585E02DEE
:1003700085818F7D858381E090E0DF91CF911F9112
:100380000F91FF90EF900895CE010E942D01CDCFE7
:10039000CF93DF93FC0121892223F9F0EC018091B6
:1003A000110180FF08C080911301808F868980939E
:1003B000130181E0878BEC85FD85858185FD03C078
:1003C000848186FD0AC00FB607FE03C0858185FDC6
:1003D000F4CFCE010E942D01EECFDF91CF91089591
:1003E00080E090E0892B41F080E090E0892B21F0C3
:1003F0000E940000811115C080E090E0892B21F05F
:100400000E940A01811110C080E090E0892B89F0E0
:1004100080E090E0892B69F00E940000811107C004
:1004200008950E940000E8CF0E940000EDCF0C94D8
:100430000000089581E00895DC01ED91FC910684AF
:10044000F785E02D23E030E009948F929F92AF92E0
:10045000BF92EF92FF920F931F93CF93DF93EC0124
:100460004A015B01E22E8989882339F0E881F9810C
:100470000088F189E02DCE01099598898091E205E7
:10048000892B8093E205FFB6F89480910028909123
:100490000128A0910228B0910328BC01CD0123E0DE
:1004A000660F771F881F991F2A95D1F7A501940120
:1004B0000E941F0F49015A018FEF881A980AA80A53
:1004C000B80AB694A79497948794EC85FD858681A5
:1004D0008D7F8683EC85FD8586818683198A8E854E
:1004E00062E070E00E94F6078F8561E070E00E9494
:1004F000AB078F8561E070E00E94F60780912311C1
:10050000E82F880FFF0BDF01BC5FA50194010E945B
:10051000600F0C851D85AF01F7FF03C05195419514
:10052000510920E034E0241B350B032E000C440B52
:10053000550B0E94410FF80120873187EC85FD851E
:10054000E782EC85FD858681806C8683EC85FD8560
:10055000858180688583FFBEDF91CF911F910F91C8
:10056000FF90EF90BF90AF909F908F900895CF93A2
:10057000E5E2F1E0C491CF3FD9F08AE00E947D0727
:10058000ECEFF0E0A49180E2A89FD0011124BC5FC1
:100590001896EC91EC2361F0809172289091732869
:1005A000A0917428B09175280197A109B1090BC0D9
:1005B0008091722890917328A0917428B091752829
:1005C0000196A11DB11D8093722890937328A0936A
:1005D0007428B0937528CF910895EF92FF920F93EE
:1005E0001F93CF93DF93863030F490E2899FE00130
:1005F0001124DC5F02C0C0E0D0E0E984182F110FA5
:10060000110F110FFF24F39400E08E2D8F2179F04C
:10061000E12FE00FF0E0EE0FFF1FEA5FF74D808162
:100620009181892B21F00190F081E02D09950F5FD8
:10063000FF0C083051F7E986DF91CF911F910F91A0
:10064000FF90EF9008951F920F920FB60F92112412
:100650002F933F934F935F936F937F938F939F93CA
:10066000AF93BF93EF93FF9384E998E20E942D012B
:10067000FF91EF91BF91AF919F918F917F916F917A
:100680005F914F913F912F910F900FBE0F901F9050
:1006900018951F920F920FB60F9211242F938F93DC
:1006A0009F93EF93FF93E091A028F091A12881817F
:1006B00081FD12C090818091A6288F5F8F73209159
:1006C000A728821751F0E091A628F0E0EC56F74DEC
:1006D000918F8093A62801C08081FF91EF919F9117
:1006E0008F912F910F900FBE0F901F9018954F92E2
:1006F0005F926F927F928F929F92AF92BF92CF92B2
:10070000DF92EF92FF920F931F932B013C0149015F
:100710005A016701780120E030E0A9010E943C0DF8
:1007200087FD3AC020E030E0A901C501B4010E9474
:100730003C0D87FD31C020E030E0A901C701B601C2
:100740000E943C0D87FD28C0409266285092672881
:1007500060926828709269282DEC3CEC4CE45EE3D2
:10076000C501B4010E94990E60936A2870936B28AA
:1007700080936C2890936D282DEC3CEC4CE45EE368
:10078000C701B6010E94410D60936E2870936F28D7
:1007900080937028909371281F910F91FF90EF9094
:1007A000DF90CF90BF90AF909F908F907F906F9091
:1007B0005F904F900895CF93DF93EC0197FF09C0AE
:1007C00060E070E084E00E94AB07D195C195D1094B
:1007D0000AC061E070E084E00E94AB07209719F442
:1007E00060E070E080C0C630D1051CF460E070E0CD
:1007F00083C0CB30D1051CF460E070E086C0C0310E
:10080000D1051CF460E070E089C0C531D1051CF44D
:1008100060E070E08CC0C931D1051CF460E070E08C
:100820008FC0CE31D10594F460E070E08EE00E947C
:10083000AB0760E070E08FE00E94AB0761E070E022
:1008400080E10E94AB0761E070E0CDC0C332D1050A
:100850001CF460E070E081C0C732D1056CF460E048
:1008600070E08EE00E94AB0761E070E08FE00E94D4
:10087000AB0760E070E0B2C0CC32D1051CF460E0A0
:1008800070E078C0C033D1051CF460E070E080C037
:10089000C433D1051CF460E070E088C0C933D105D1
:1008A00024F460E070E08EE090C0CD33D10524F4F4
:1008B00060E070E08EE0A0C0C034D10544F460E098
:1008C00070E08EE00E94AB0761E070E0B4CFC4340A
:1008D000D10524F460E070E08EE09DC061E070E03E
:1008E000C834D10534F48EE00E94AB0760E070E0BC
:1008F000BDCFCB34D10534F48EE00E94AB0760E06D
:1009000070E03DC0CE34D10534F48EE00E94AB07D8
:1009100060E070E042C0C135D10534F48EE00E9441
:10092000AB0760E070E047C0C435D10534F48EE019
:100930000E94AB0760E070E04CC0C735D10534F4CD
:100940008EE00E94AB0760E070E05AC0C935D10567
:100950000CF46CCFCB35D10534F48EE00E94AB079C
:1009600060E070E05CC0CD35D1050CF47ACFCF35B6
:10097000D1055CF48EE00E94AB0761E070E08FE08F
:100980000E94AB0760E070E040C0C136D1055CF466
:100990008EE00E94AB0761E070E08FE00E94AB0741
:1009A00060E070E04DCFC136D10559F48EE00E9471
:1009B000AB0761E070E08FE00E94AB0760E070E0A1
:1009C00033C08EE0C236D105A1F40E94AB0761E0CE
:1009D00070E08FE00E94AB0761E070E080E10E9470
:1009E000AB0760E070E081E10E94AB0760E070E07F
:1009F00025C0C336D10579F40E94AB0761E070E0F1
:100A00008FE00E94AB0761E070E080E10E94AB07DD
:100A100060E070E00EC00E94AB0761E070E08FE024
:100A20000E94AB0761E070E080E10E94AB0761E0EB
:100A300070E081E10E94AB0761E070E082E1DF914C
:100A4000CF910C94AB07CF92DF92EF92FF920F936E
:100A50001F93CF93DF936C017A018B01C0E0D0E04C
:100A6000CE15DF0581F0D8016D918D01D601ED9194
:100A7000FC910190F081E02DC6010995892B11F0C0
:100A80002196EECF7E01C701DF91CF911F910F918B
:100A9000FF90EF90DF90CF9008950E94880F1F92F3
:100AA0000F920FB60F9211242F933F934F935F93A2
:100AB0006F937F938F939F93AF93BF93EF93FF9326
:100AC00085E00E94ED02FF91EF91BF91AF919F9160
:100AD0008F917F916F915F914F913F912F910F90E7
:100AE0000FBE0F901F9018951F920F920FB60F9286
:100AF00011242F933F934F935F936F937F938F9323
:100B00009F93AF93BF93EF93FF9384E00E94ED0216
:100B1000FF91EF91BF91AF919F918F917F916F91D5
:100B20005F914F913F912F910F900FBE0F901F90AB
:100B300018951F920F920FB60F9211242F933F9387
:100B40004F935F936F937F938F939F93AF93BF93D5
:100B5000EF93FF9383E00E94ED02FF91EF91BF912D
:100B6000AF919F918F917F916F915F914F913F9145
:100B70002F910F900FBE0F901F9018951F920F92FC
:100B80000FB60F9211242F933F934F935F936F9360
:100B90007F938F939F93AF93BF93EF93FF9382E0E5
:100BA0000E94ED02FF91EF91BF91AF919F918F91C4
:100BB0007F916F915F914F913F912F910F900FBE59
:100BC0000F901F9018951F920F920FB60F9211243D
:100BD0002F933F934F935F936F937F938F939F9345
:100BE000AF93BF93EF93FF9381E00E94ED02FF91DB
:100BF000EF91BF91AF919F918F917F916F915F9195
:100C00004F913F912F910F900FBE0F901F9018950D
:100C10001F920F920FB60F9211242F933F934F9371
:100C20005F936F937F938F939F93AF93BF93EF9354
:100C3000FF9380E00E94ED02FF91EF91BF91AF9191
:100C40009F918F917F916F915F914F913F912F91E4
:100C50000F900FBE0F901F901895009769F0FC0140
:100C600001900020E9F73197AF01481B590BBC01F7
:100C700084E998E20C94230580E090E008958F9237
:100C80009F92AF92BF920F931F93CF93DF93CDB7F5
:100C9000DEB7A197CDBFDEBF19A2423008F44AE00B
:100CA0008E010F5D1F4F842E912CA12CB12CA5011C
:100CB00094010E941F0FE62FB901CA0101501109CA
:100CC000EA3014F4E05D01C0E95CD801EC93232B19
:100CD000242B252B61F7C8010E942D06A196CDBFBC
:100CE000DEBFDF91CF911F910F91BF90AF909F908A
:100CF0008F9008950C942D06CF92DF92EF92FF9281
:100D0000CF93DF936C01990FEE08FF08F7FE19C02F
:100D10006DE284E998E20E946C01EC016627772776
:100D2000CB016C197D098E099F094AE00E943F069C
:100D30008C0F9D1FDF91CF91FF90EF90DF90CF90B0
:100D400008954AE0C701B601DF91CF91FF90EF907F
:100D5000DF90CF900C943F068F929F92AF92BF92FC
:100D6000CF92DF92EF92FF920F931F93CF93DF9377
:100D70006B017C01142F9B01AC010E94060F88239C
:100D800019F08AE99FE527C046015701E894B7F8B2
:100D90002FEF3FEF4FE75FE7C501B4010E94060F59
:100DA00081110DC02FEF3FEF4FE75FE7C501B401A1
:100DB0000E943C0D18161CF48EE99FE50CC02FEF25
:100DC0003FEF4FE75FE4C701B6010E94940E18168B
:100DD00084F482EA9FE5DF91CF911F910F91FF90FC
:100DE000EF90DF90CF90BF90AF909F908F900C943A
:100DF0002D062FEF3FEF4FE75FECC701B6010E94D2
:100E00003C0D87FDE6CF20E030E0A901C701B60127
:100E10000E943C0D87FF0BC06DE284E998E20E94BE
:100E20006C01EC01F7FAF094F7F8F09402C0C0E01E
:100E3000D0E000E060E070E080E09FE3101741F058
:100E400020E030E040E251E40E94410D0F5FF6CF18
:100E5000A70196010E94D00C6B017C010E94B30D8A
:100E60004B015C014AE00E943F06C80FD91F1123C5
:100E7000B1F1C501B4010E94E20D9B01AC01C701B3
:100E8000B6010E94CF0C6B017C0186EA9FE50E94AF
:100E90002D06C80FD91F20E030E040E251E4C70121
:100EA000B6010E94990E4B015C010E94B30D6B01CB
:100EB000E12CF12C4AE0C701B6010E943F06C80FA1
:100EC000D91FC701B6010E94E20D9B01AC01C5010B
:100ED000B4010E94CF0C6B017C011150E1F6CE01F0
:100EE000DF91CF911F910F91FF90EF90DF90CF9006
:100EF000BF90AF909F908F900895893258F590E001
:100F0000FC01E056FF4FE491EE2321F1E13021F0A6
:100F100008F1E630B0F00895FC01E753FF4F8491EB
:100F20004091010A8C5F21E030E0B90102C0660FF8
:100F3000771F8A95E2F7CB01809584238093010A7D
:100F4000089570E1E79FF0011124E05AF54F818187
:100F50008F7E81830895FF920F931F93CF93DF932A
:100F6000893208F03DC0082F10E0F801E55EFE4F21
:100F7000F4909FEFF916A1F1EB010E947D07F801B3
:100F8000EE50FF4FA49180E2A89FD0011124BC5FD6
:100F90008C918F2169F0209719F41696FC9220C04D
:100FA000229719F41796FC921BC01596FC9218C054
:100FB000F801E753FF4FE491109731F0EF3F21F034
:100FC0005096AE0FB11D02C0A0E0B0E09FB7F894FC
:100FD0008C91CD2B11F4877F01C088608C939FBFCB
:100FE000DF91CF911F910F91FF900895CF93DF93E1
:100FF000893298F590E0FC01E55EFE4F24912F3F89
:1010000061F16330710548F5FC01EE50FF4FA4918A
:1010100030E2A39FD0011124BC5F6130710519F447
:1010200011962C931AC0FC01E753FF4F84918F3F18
:1010300029F0ED016096C80FD11D02C0C0E0D0E0DC
:101040009FB7F89412962C9388816230710511F441
:10105000886001C0877F88839FBFDF91CF9108950B
:101060001F920F920FB60F9211242F933F934F931D
:101070005F936F937F938F939F93AF93BF934091B1
:1010800090285091912860919228709193282091F6
:1010900031293091322980918E2890918F28480FE4
:1010A000591F611D711D80918C2890918D28820F90
:1010B000931F883E23E0920730F0885E93404F5F95
:1010C0005F4F6F4F7F4F8093312990933229409328
:1010D0009028509391286093922870939328809140
:1010E0002D2990912E29A0912F29B0913029019678
:1010F000A11DB11D80932D2990932E29A0932F29F6
:10110000B093302981E08093B60ABF91AF919F914F
:101110008F917F916F915F914F913F912F910F90A0
:101120000FBE0F901F901895E4E9F8E21282138227
:1011300088EE93E0A0E0B0E084839583A683B78334
:1011400082E29FE58083918380E298E0848795879F
:10115000168681E0878784E0808B128A138A148A3E
:10116000158A8BE1868B178A108E089590E088EDA2
:1011700084BF9093610080E094E2A4EFB0E080939C
:10118000002890930128A0930228B093032880910F
:10119000020686608093020680910006816080933B
:1011A0000006809102068F7C809302068091A00049
:1011B0008F788093A0008091020680618093020660
:1011C0001092E20581E08093E40583E08093010AB8
:1011D0008FEF90E08093260A9093270A80E890E0B2
:1011E0008093380A9093390A80933A0A90933B0A85
:1011F00080933C0A90933D0A8BE08093000A809193
:10120000E50581608093E5058091E5058260809326
:10121000E505E0E8FAE037E02FEF90E885E031837C
:101220002487958780837096E03C4AE0F407B9F7FD
:1012300080E094E0809378289093792880917828B2
:10124000909179282FEF30E0B9010E940B0F609345
:101250007628709377288091782890917928E8EE05
:10126000F3E0BF010E940B0F60938E2870938F28CC
:101270008091782890917928BF010E940B0F80936C
:101280008C2890938D282093BC0A3093BD0A8091BE
:10129000B50A81608093B50A84E08093B00A80919A
:1012A000B00A81608093B00A789461E070E08CE1CC
:1012B0000E94F60761E070E08CE10E94AB0761E0FC
:1012C00070E08DE10E94F60761E070E08DE10E9420
:1012D000AB0761E070E083E20E94F60761E070E036
:1012E00083E20E94AB0761E070E08EE10E94F607A6
:1012F00061E070E08EE10E94AB0761E070E084E0A5
:101300000E94F60761E070E089E00E94F60761E064
:1013100070E088E00E94F60761E070E087E00E94DC
:10132000F60761E070E08EE00E94F60761E070E091
:101330008FE00E94F60761E070E080E10E94F6070E
:1013400061E070E081E10E94F60761E070E082E117
:101350000E94F60760E070E082E00E94F60760E01D
:1013600070E088E00E94AB0761E070E087E00E94D7
:10137000AB0780918628909187280E94DB038DEC33
:101380009CECACECBDE38093662890936728A09317
:101390006828B09369288BE097EDA3EABCE38093BB
:1013A0006A2890936B28A0936C28B0936D2880E0F6
:1013B00090E0A0E0BFE380936E2890936F28A09305
:1013C0007028B093712840E052EC61E070E084E94D
:1013D00098E20E941C0260E070E085E00E94F6073F
:1013E00060E070E08AE00E94F607EEECF0E08491A5
:1013F0008F3F11F1E7EFF0E09491A82F28E0929F42
:10140000A00D1124A033C0F4B0E0AA0FBB1FAA5F47
:10141000B74D27EB32E02D933C93E49140E2E49FFB
:10142000F0011124FC5F7096E80FF11D8081887F28
:10143000808380818260808310927228109273284A
:101440001092742810927528C1E084E998E20E94F5
:10145000FE00181619060CF0A8C184E998E20E9453
:10146000DC00803779F52DEC3CEC4CE45EE36091D8
:101470006E2870916F2880917028909171280E9439
:10148000990E6B017C012DEC3CEC4CE45EE3609129
:101490006A2870916B2880916C2890916D280E9429
:1014A000410D4B015C012AE037ED43E25CE36091C2
:1014B00066287091672880916828909169280E9419
:1014C000D00C30C08F3699F52DEC3CEC4CE45EE34B
:1014D00060916E2870916F2880917028909171288A
:1014E0000E94990E6B017C012DEC3CEC4CE45EE318
:1014F00060916A2870916B2880916C2890916D287A
:101500000E94410D4B015C012AE037ED43E25CE3B0
:101510006091662870916728809168289091692869
:101520000E94CF0C87017601A501940197C08936EE
:1015300029F52DEC3CEC4CE45EE360916E28709153
:101540006F2880917028909171280E94990E6B01EC
:101550007C012DEC3CEC4CE45EE360916A287091D8
:101560006B2880916C2890916D280E94410D2AE093
:1015700037ED43E25CE30E94D00C64C0853729F567
:101580002DEC3CEC4CE45EE360916E2870916F288A
:1015900080917028909171280E94990E6B017C01B6
:1015A0002DEC3CEC4CE45EE360916A2870916B2872
:1015B00080916C2890916D280E94410D2AE037EDB2
:1015C00043E25CE30E94CF0C3DC08436A9F42DECCD
:1015D0003CEC4CE45EE360916E2870916F28809142
:1015E0007028909171280E94990E2AE037ED43E20D
:1015F0005CE30E94D00C16C0863699F52DEC3CECCD
:101600004CE45EE360916E2870916F2880917028A1
:10161000909171280E94990E2AE037ED43E25CE335
:101620000E94CF0C6B017C012DEC3CEC4CE45EE3A2
:1016300060916A2870916B2880916C2890916D2838
:101640000E94410D9B01AC01609166287091672852
:101650008091682890916928870176010E9477031C
:10166000A4C0803261F480E090E00E94DB0360E07F
:1016700070E089E00E94AB071092042896C0823780
:1016800009F053C06091722870917328809174287A
:10169000909175280E94E40D20E030E040E85DE381
:1016A0000E94990E20E030E040EF51E40E94410D8D
:1016B00020E030E040E450E40E94410D9B01AC0189
:1016C0000E94D00C2BED3FE049E450E40E94990EBB
:1016D00020E030E040EA50E40E94990E6B017C016A
:1016E00020E030E046E154E40E94940E18166CF4B9
:1016F00080E090E0A6E1B4E480937E2890937F2878
:10170000A0938028B093812808C0C0927E28D092F0
:101710007F28E0928028F092812861E070E089E0E3
:101720000E94AB07C093042840C0833779F420E0BF
:1017300030E040E251E460917E2870917F288091F2
:101740008028909181280E94D00C10C0883769F5BC
:1017500020E030E040E251E460917E2870917F28E3
:1017600080918028909181280E94CF0C6B017C0190
:1017700020E030E046E154E40E94940E18166CF428
:1017800080E090E0A6E1B4E480937E2890937F28E7
:10179000A0938028B093812808C0C0927E28D09260
:1017A0007F28E0928028F0928128609172287091C1
:1017B000732880917428909175280E94E40D20E090
:1017C00030E040E85DE30E94990E20E030E040EF19
:1017D00051E40E94410D20E030E040E450E40E94DA
:1017E000410D9B01AC010E94D00C2BED3FE049E480
:1017F00050E40E94990E20E030E040EA50E40E945C
:10180000990E609388287093892880938A289093F2
:101810008B2860937A2870937B2880937C28909300
:101820007D28109286281092872880E090E00E9400
:10183000DB038FB7F89440919028509191286091E4
:101840009228709193288FBF80918228909183284D
:10185000A0918428B0918528481B590B6A0B7B0BFB
:101860004A3F51056105710508F496C086509F4FA7
:10187000AF4FBF4F8093822890938328A0938428F2
:10188000B093852888E39FE50E947A068DE39FE563
:101890000E947A0680918628909187280E947C0673
:1018A0008DE49FE50E947A0680E59FE50E947A0616
:1018B000609188287091892880918A2890918B283E
:1018C00042E00E94AC068DE49FE50E947A0683E622
:1018D0009FE50E947A0660917E2870917F28809112
:1018E00080289091812842E00E94AC068DE49FE51B
:1018F0000E947A0687E79FE50E947A066091662833
:1019000070916728809168289091692842E00E9430
:10191000AC068DE49FE50E947A068CE79FE50E9465
:101920007A062DEC3CEC4CE45EE360916A28709101
:101930006B2880916C2890916D280E94410D42E0A7
:101940000E94AC068DE49FE50E947A0681E89FE53F
:101950000E947A062DEC3CEC4CE45EE360916E282C
:1019600070916F2880917028909171280E94990E33
:1019700042E00E94AC068DE49FE50E947A0686E86C
:101980009FE50E947A068091042890E00E947C06E0
:101990008DE49FE50E947A060E94F00156CD5058D2
:1019A000BB27AA270E94E70C0C945A0E0E944C0EEB
:1019B00038F00E94530E20F039F49F3F19F426F4BA
:1019C0000C94490E0EF4E095E7FB0C94430EE92FBE
:1019D0000E946B0E58F3BA176207730784079507C6
:1019E00020F079F4A6F50C948D0E0EF4E0950B2EF4
:1019F000BA2FA02D0B01B90190010C01CA01A00161
:101A00001124FF27591B99F0593F50F4503E68F1BB
:101A10001A16F040A22F232F342F4427585FF3CFFC
:101A2000469537952795A795F0405395C9F77EF4CD
:101A30001F16BA0B620B730B840BBAF09150A1F016
:101A4000FF0FBB1F661F771F881FC2F70EC0BA0F9C
:101A5000621F731F841F48F4879577956795B79524
:101A6000F7959E3F08F0B0CF9395880F08F099271F
:101A7000EE0F9795879508950E941F0E08F481E058
:101A800008950E94550D0C945A0E0E94530E58F062
:101A90000E944C0E40F029F45F3F29F00C94430E55
:101AA00051110C948E0E0C94490E0E946B0E68F32B
:101AB0009923B1F3552391F3951B550BBB27AA2707
:101AC00062177307840738F09F5F5F4F220F331F41
:101AD000441FAA1FA9F335D00E2E3AF0E0E832D009
:101AE00091505040E695001CCAF72BD0FE2F29D00C
:101AF000660F771F881FBB1F261737074807AB07DE
:101B0000B0E809F0BB0B802DBF01FF2793585F4F52
:101B10003AF09E3F510578F00C94430E0C948E0ED3
:101B20005F3FE4F3983ED4F3869577956795B79534
:101B3000F7959F5FC9F7880F911D9695879597F93F
:101B40000895E1E0660F771F881FBB1F62177307B8
:101B50008407BA0720F0621B730B840BBA0BEE1FCD
:101B600088F7E09508950E94730E88F09F5798F0CB
:101B7000B92F9927B751B0F0E1F0660F771F881F92
:101B8000991F1AF0BA95C9F714C0B13091F00E94AC
:101B90008D0EB1E008950C948D0E672F782F882755
:101BA000B85F39F0B93FCCF3869577956795B395D3
:101BB000D9F73EF490958095709561957F4F8F4F42
:101BC0009F4F0895E89409C097FB3EF49095809547
:101BD000709561957F4F8F4F9F4F9923A9F0F92FF3
:101BE00096E9BB279395F695879577956795B79571
:101BF000F111F8CFFAF4BB0F11F460FF1BC06F5F57
:101C00007F4F8F4F9F4F16C0882311F096E911C068
:101C1000772321F09EE8872F762F05C0662371F089
:101C200096E8862F70E060E02AF09A95660F771F9D
:101C3000881FDAF7880F9695879597F90895990F79
:101C40000008550FAA0BE0E8FEEF16161706E80786
:101C5000F907C0F012161306E407F50798F0621BA7
:101C6000730B840B950B39F40A2661F0232B242B7C
:101C7000252B21F408950A2609F4A140A6958FEF9B
:101C8000811D811D089597F99F6780E870E060E0ED
:101C900008959FEF80EC089500240A941616170605
:101CA00018060906089500240A941216130614064D
:101CB00005060895092E0394000C11F4882352F0B0
:101CC000BB0F40F4BF2B11F460FF04C06F5F7F4F68
:101CD0008F4F9F4F089557FD9058440F551F59F04F
:101CE0005F3F71F04795880F97FB991F61F09F3F09
:101CF00079F087950895121613061406551FF2CF32
:101D00004695F1DF08C0161617061806991FF1CF81
:101D100086957105610508940895E894BB276627A8
:101D20007727CB0197F908950E941F0E08F48FEFD3
:101D300008950E94AC0E0C945A0E0E944C0E38F07E
:101D40000E94530E20F0952311F00C94430E0C9436
:101D5000490E11240C948E0E0E946B0E70F3959F09
:101D6000C1F3950F50E0551F629FF001729FBB2792
:101D7000F00DB11D639FAA27F00DB11DAA1F649F2E
:101D80006627B00DA11D661F829F2227B00DA11DE1
:101D9000621F739FB00DA11D621F839FA00D611D67
:101DA000221F749F3327A00D611D231F849F600D88
:101DB000211D822F762F6A2F11249F5750409AF0B1
:101DC000F1F088234AF0EE0FFF1FBB1F661F771F3D
:101DD000881F91505040A9F79E3F510580F00C9408
:101DE000430E0C948E0E5F3FE4F3983ED4F3869539
:101DF00077956795B795F795E7959F5FC1F7FE2BA8
:101E0000880F911D9695879597F908950E941F0E4A
:101E1000880B990B0895AA1BBB1B51E107C0AA1F91
:101E2000BB1FA617B70710F0A61BB70B881F991F7B
:101E30005A95A9F780959095BC01CD010895A1E22E
:101E40001A2EAA1BBB1BFD010DC0AA1FBB1FEE1F34
:101E5000FF1FA217B307E407F50720F0A21BB30B7F
:101E6000E40BF50B661F771F881F991F1A9469F7FB
:101E700060957095809590959B01AC01BD01CF0157
:101E80000895052E97FB1EF400940E94580F57FDED
:101E900007D00E941F0F07FC03D04EF40C94580F7C
:101EA00050954095309521953F4F4F4F5F4F089586
:101EB00090958095709561957F4F8F4F9F4F0895B6
:101EC000B7FF0C946E0F0E946E0F821B930B089548
:101ED000EE0FFF1F0590F491E02D09940E94790FF9
:101EE000A59F900DB49F900DA49F800D911D11246E
:101EF0000895A29FB001B39FC001A39F700D811DE3
:101F00001124911DB29F700D811D1124911D089502
:0E1F100081E090E0F8940C948D0FF894FFCFD0
:101F1E00000000006C012305FE00DC00F000C8018B
:101F2E001C02250214011A02CD001B5B324A006D01
:101F3E006F746F722063757272656E743A20000D45
:101F4E000A0063757272656E7420706F73697469BE
:101F5E006F6E3A2000506F736974696F6E2053650F
:101F6E0074706F696E743A20004B703A20004B69A2
:101F7E003A20004B643A20004B696C6C20737769F1
:101F8E007463682073746174653A20006E616E002C
:0A1F9E00696E66006F7666002E0083
:061FA8000024F40001001A
:00000001FF
