:100000000C94A3000C94CB000C94CB000C94CB006C
:100010000C94CB000C94CB000C94CB000C94CB0034
:100020000C94CB000C94CB000C94CB000C94CB0024
:100030000C94CB000C94CB000C9440070C94EF076D
:100040000C94CB000C94CB000C94CB000C94CB0004
:100050000C94CB000C94CB000C94CB000C94CB00F4
:100060000C94CB000C94CB000C9412070C94EC066F
:100070000C94CB000C94CB000C94CB000C94CB00D4
:100080000C94CB000C94CB000C94CB000C94CB00C4
:100090000C9488060C94CB000C94CB000C94CB00F1
:1000A0000000000300010200000101000000000048
:1000B0000000000000000000000000000000000040
:1000C0000000000000000000000504000506020416
:1000D0000103000100010200010203040502030301
:1000E00005040605040607030700010202030001D8
:1000F00007060202000502010500040101040404D0
:1001000003030303030300000200000301010000D6
:100110000102020202050505050305201001204029
:100120000410020801020102040102040810200464
:1001300008082010402010408008800102040408B4
:1001400001028040AD0811241FBECFEFCDBFDFE319
:10015000DEBF18E2A0E0B8E2EDE3F6E102C00590F0
:100160000D92A430B107D9F729E2A4E0B8E201C0AA
:100170001D92A43EB207E1F710E0C3EAD0E004C04C
:100180002197FE010E94E10AC23AD107C9F70E94F5
:10019000DB080C94FB0A0C940000FC01548945898F
:1001A000252F30E0842F90E0821B930B541710F022
:1001B000CF96089501970895FC0192898389981735
:1001C00061F08389DF01A80FB11D59968C91938945
:1001D0009F5F9F73938B90E008958FEF9FEF08953B
:1001E000FC0192898389981731F08389E80FF11D0A
:1001F000818D90E008958FEF9FEF0895FC01928923
:100200002389892F90E0805C9F4F821B91098F7317
:1002100099270895CF93DF93EC01E881F981028457
:10022000F385E02D0995EC85FD8586818F738683A6
:10023000EC85FD8585818F7585838B898A8B198AED
:10024000DF91CF910895CF93DF93FC019489858945
:10025000A485B585981307C015968C9115978F7D49
:1002600015968C932CC08589EF01C80FD11DC75AF4
:10027000DF4F2881858990E001968F739927858BC0
:1002800080E414968C93A485B58512962C93A4854E
:10029000B58514968C91149785FFFBCF9489858939
:1002A00098130DC015968C9115978F7D15968C938C
:1002B0008789882321F0808D80931301178ADF912D
:1002C000CF910895EF92FF920F931F93CF93DF93F7
:1002D000FC0181E0818B94898589981307C0A485EE
:1002E000B58514968C91149785FD2EC080911101CF
:1002F00080FF08C080911301808F8689809313014D
:1003000081E0878BF62EEF01048910E00F5F1F4F0D
:100310000F731127E02E8D89E81209C00FB607FE72
:1003200029C0EC85FD85858185FDF5CF23C08C89AD
:10033000FE01E80FF11DE75AFF4FF0820C8BEC85B0
:10034000FD85858180620CC012966C93A485B5856D
:1003500080E414968C930484F585E02D85818F7D4F
:10036000858381E090E0DF91CF911F910F91FF9005
:10037000EF900895CE010E942301CDCFCF93DF935C
:10038000FC0121892223F9F0EC018091110180FF09
:1003900008C080911301808F86898093130181E0CA
:1003A000878BEC85FD85858185FD03C0848186FD75
:1003B0000AC00FB607FE03C0858185FDF4CFCE01CC
:1003C0000E942301EECFDF91CF9108958FE399E250
:1003D0000E94FE0021E0892B09F420E0822F08957D
:1003E00080E090E0892B41F080E090E0892B21F0C3
:1003F0000E940000811115C080E090E0892B21F05F
:100400000E94E601811110C080E090E0892B89F004
:1004100080E090E0892B69F00E940000811107C004
:1004200008950E940000E8CF0E940000EDCF0C94D8
:1004300000000895893208F064C090E0FC01E55E98
:10044000FE4F24912F3F09F45CC0FC01E056FF4FA2
:10045000A491AA2319F1A13081F000F1A630F0F4A3
:1004600030E1A39FD0011124A05AB54F11963C91C1
:1004700011973F7E11963C9311C0FC01E753FF4F4B
:10048000E4913091010AEC5F41E050E001C0440F7B
:10049000EA95EAF7409543234093010AFC01EE50A8
:1004A000FF4FA49130E2A39FD0011124BC5F3C9187
:1004B000322379F06115710519F416962C9308957D
:1004C0006230710519F417962C93089515962C93A4
:1004D0000895FC01E753FF4F8491109731F08F3F4F
:1004E00021F05096A80FB11D02C0A0E0B0E09FB768
:1004F000F8948C91672B11F4877F01C088608C93EE
:100500009FBF0895CF93DF93893298F590E0FC0167
:10051000E55EFE4F24912F3F61F16330710548F590
:10052000FC01EE50FF4FA49130E2A39FD0011124B3
:10053000BC5F6130710519F411962C931AC0FC014F
:10054000E753FF4F84918F3F29F0ED016096C80F6C
:10055000D11D02C0C0E0D0E09FB7F89412962C9352
:1005600088816230710511F4886001C0877F8883BB
:100570009FBFDF91CF9108958F929F92AF92BF92CC
:10058000EF92FF920F931F93CF93DF93EC014A01F9
:100590005B01E22E8989882339F0E881F98100889E
:1005A000F189E02DCE01099598898091E205892B8A
:1005B0008093E205FFB6F89480910028909101287D
:1005C000A0910228B0910328BC01CD0123E0660F61
:1005D000771F881F991F2A95D1F7A50194010E94C2
:1005E0008D0A49015A018FEF881A980AA80AB80A99
:1005F000B694A79497948794EC85FD8586818D7F2A
:100600008683EC85FD8586818683198A8E8562E0E6
:1006100070E00E9482028F8561E070E00E941A0201
:100620008F8561E070E00E94820280912311E82FA3
:10063000880FFF0BDF01BC5FA50194010E94D90A5E
:100640000C851D85AF01F7FF03C0519541955109F8
:1006500020E034E0241B350B032E000C440B550B1B
:100660000E94AF0AF80120873187EC85FD85E7827B
:10067000EC85FD858681806C8683EC85FD85858192
:1006800080688583FFBEDF91CF911F910F91FF900E
:10069000EF90BF90AF909F908F900895CF93DF938E
:1006A0008FB7F89420913B2930913C2940913D2906
:1006B00050913E29E091BA0A9091B60A90FF06C087
:1006C0002F5F3F4F4F4F5F4FE091BA0A8FBFA0910E
:1006D0003929B0913A29C0913729D09138290E94FF
:1006E000CE0AEC9F9001ED9F300D1124620F731F15
:1006F000811D911DDF91CF910895CF92DF92EF92EE
:10070000FF920E944E036B017C0120E4C20E22E4A2
:10071000D21E2FE0E21EF11C80E4C81682E4D80647
:100720008FE0E806F10438F40E944E03C616D7069F
:10073000E806F906C8F30E944E036C157D058E0588
:100740009F05C8F3FF90EF90DF90CF900895CF9270
:10075000DF92EF92FF920F931F93CF93DF936C0181
:100760007A018B01C0E0D0E0CE15DF0581F0D80121
:100770006D918D01D601ED91FC910190F081E02DFC
:10078000C6010995892B11F02196EECF7E01C70194
:10079000DF91CF911F910F91FF90EF90DF90CF905D
:1007A000089581E008950F9391E090932A29109283
:1007B000292960932729709328294093262920937B
:1007C0002529109224291092232900932229880F89
:1007D0008093212923E030E044E050E080912629F5
:1007E000811114C080912529882341F040931F294D
:1007F000509320298091212981600FC08091262962
:1008000081110DC080912529811109C020931F29D4
:1008100030932029809121298E7F8093A708809191
:1008200029298823E1F3809129298330B9F2809125
:100830002529882319F08091232906C09091292920
:1008400081E0913009F480E00F910895E0EAF8E04A
:1008500091859066918722E030E020931F293093A4
:1008600020298093112910921029089581E0809306
:1008700010291092112993E09093AA089091AB0847
:1008800091FF0CC010921D29E0910E29F0910F29C3
:10089000099580931C2985E090E006C010921E29DE
:1008A00080931B2986E090E080931F299093202954
:1008B000089560930C2970930D29089560930A2977
:1008C00070930B290895E0910C29F0910D29309730
:1008D00041F0109209291092082909958091082960
:1008E000089580E00895E0910A29F0910B2930974E
:1008F00059F03091072920910629321728F01092DB
:10090000072980930629099408950895E0910729FD
:1009100080910629E81730F4F0E0EA57F74D80811E
:1009200090E008958FEF9FEF0895909107298091AF
:100930000629981750F4E92FF0E0EA57F74D208187
:1009400030E09F5F9093072902C02FEF3FEFC9016E
:1009500008958091062990E020910729821B910932
:100960000895CF92DF92EF92FF920F931F93CF9350
:10097000DF937C018A01EB016B01C40ED51ECC15FF
:10098000DD0551F06991D701ED91FC910190F08165
:10099000E02DC7010995F3CFC801DF91CF911F91D9
:1009A0000F91FF90EF90DF90CF900895209108294C
:1009B00027FF08C021E030E0FC012283338380E080
:1009C00090E0089580910929E82FF0E0EA5FF74D63
:1009D00060838F5F809309298093082981E090E0EC
:1009E0000895DC01ED91FC910688F789E02D61E026
:1009F00009940F9380911F2990912029019779F4F0
:100A000080912A2981110DC0062F20E040910829EC
:100A100066E078E2809105280E94D30303C080E05D
:100A200001C081E010920929109208290F910895C0
:100A30006093052810920929109208290895DC0175
:100A4000ED91FC91028CF38DE02D21E009940F9340
:100A500086E898E2809312299093132980911F29A8
:100A600090912029019799F480912A29811111C030
:100A7000FA014138510510F0E0E8F0E0022F862F2E
:100A80002E2F40E060E070E00E94D30303C080E0BE
:100A900001C081E010920729809306290F910895E3
:100AA0008F929F92AF92BF92CF92DF92EF92FF927E
:100AB000CF93DF9340348DE0580783E068077105DA
:100AC000D0F0411585E358078CE06807710560F0A8
:100AD00040385F446241710570F4C8E7D0E020E41B
:100AE00032E44FE050E00DC0CCE2D1E020E83AE142
:100AF00046E050E006C0C8EED3E020EA36E841E028
:100B000050E08090002890900128A0900228B0909A
:100B10000328C501B4010E948D0A69017A018AE0A7
:100B2000C81AD108E108F108DE01A50194010E946C
:100B3000CE0A20E03AEC4AE95BE30E948D0AC21A31
:100B4000D30AE40AF50AF694E794D794C794C092BE
:100B5000A608DF91CF91FF90EF90DF90CF90BF90EC
:100B6000AF909F908F900895E0EAF8E0138216828C
:100B700081E085831486118610921F291092202906
:100B800008951092072910920629109209291092AF
:100B9000082980911F2990912029892BD9F482E07E
:100BA00090E080931F299093202910921E29109283
:100BB0001D291092102910921129109204281092C8
:100BC0001B29660F6093AC0881EE8093A90881E031
:100BD0008093A30883E694E080930E2990930F29D5
:100BE00086E098E2809314299093152983E794E096
:100BF0008093192990931A2986E898E28093162900
:100C00009093172980E88093182908958F929F92D6
:100C1000AF92BF92CF92DF92EF92FF92109207298C
:100C200010920629109209291092082980911F29F3
:100C300090912029892B09F045C08091E30580938C
:100C4000E30581E090E080931F2990932029109282
:100C500023291092242910922A291092292981EC03
:100C60008093A3088090002890900128A0900228EB
:100C7000B0900328C501B40120EA36E841E050E015
:100C80000E948D0A69017A018AE0C81AD108E10838
:100C9000F108A8EEB3E0A50194010E94CE0A20E07D
:100CA0003AEC4AE95BE30E948D0AC21AD30AE40ACD
:100CB000F50AF694E794D794C794C092A60881E009
:100CC0008093A508FF90EF90DF90CF90BF90AF90FA
:100CD0009F908F900895DC01ED91FC910684F7853B
:100CE000E02D23E030E00994009769F0FC010190C9
:100CF0000020E9F73197AF01481B590BBC018FE386
:100D000099E20C94A70380E090E008950E94F60A0F
:100D10001F920F920FB60F9211242F933F934F9370
:100D20005F936F937F938F939F93AF93BF93409104
:100D300033295091342960913529709136292091B9
:100D400031293091322980912F2990913029480FF3
:100D5000591F611D711D80912D2990912E29820F9F
:100D6000931F883E23E0920730F0885E93404F5FE8
:100D70005F4F6F4F7F4F809331299093322940937B
:100D80003329509334296093352970933629809103
:100D90003B2990913C29A0913D29B0913E29019693
:100DA000A11DB11D80933B2990933C29A0933D291F
:100DB000B0933E2981E08093B60ABF91AF919F9195
:100DC0008F917F916F915F914F913F912F910F90F4
:100DD0000FBE0F901F9018951F920F920FB60F9293
:100DE00011242F933F934F935F936F937F938F9330
:100DF0009F93AF93BF93EF93FF938FE399E20E948A
:100E00002301FF91EF91BF91AF919F918F917F91BE
:100E10006F915F914F913F912F910F900FBE0F9067
:100E20001F9018951F920F920FB60F9211242F93B7
:100E30008F939F93EF93FF93E0914B29F0914C296F
:100E4000818181FD12C09081809151298F5F8F73C4
:100E500020915229821751F0E0915129F0E0E15C94
:100E6000F64D918F8093512901C08081FF91EF91C0
:100E70009F918F912F910F900FBE0F901F901895FB
:100E80001F920F920FB60F9211242F933F934F93FF
:100E90005F936F937F938F939F93AF93BF93CF9302
:100EA000EF93FF93C091AB08C2FF08C010921E29B8
:100EB00010921D2910921C2984E07DC0C6FF1EC01F
:100EC00080911B29813051F480911E29E0911929CC
:100ED000F0911A2990E0099510921B29C0FF03C0D8
:100EE0000E9436046AC080E48093AB0881E00E94CF
:100EF00026048091AB0885FF60C0F2CFC7FF5AC0BF
:100F0000C3FF08C010921E2910921D2910921C299F
:100F100083E051C08091A90880668093A9088091E0
:100F2000AB0881FF28C080911D29882349F080915A
:100F3000AB0884FF05C082E08093AA0881E03BC033
:100F400090911D2980911C29981788F480911D2962
:100F5000E0911429F0911529E80FF11D808180930B
:100F6000AD0880911D298F5F80931D291AC082E0F2
:100F70008093AA0820C090911E2980911829981763
:100F8000A0F48091AD0890911E29E0911629F0916E
:100F90001729E90FF11D808380911E298F5F8093AF
:100FA0001E2983E08093AA0808C086E08093AA08DF
:100FB00082E001C085E00E942604FF91EF91CF916D
:100FC000BF91AF919F918F917F916F915F914F9161
:100FD0003F912F910F900FBE0F901F9018951F9269
:100FE0000F920FB60F9211242F938F939F93EF932D
:100FF000FF938091A508982F9C70A1F08091A5087F
:1010000082FF02C094E001C093E09093292980936D
:10101000A50881E090E080931F29909320291092E9
:101020002A2991C086FF40C0209126299091252928
:101030008091A50884FF0BC080912229882311F09C
:1010400083E001C081E08093A40885E072C08091B4
:101050002429821788F480912429E0912729F0918E
:101060002829E80FF11D80818093A8088091242908
:101070008F5F8093242967C080912329891760F4AA
:1010800084E090E080931F2990932029809121296A
:1010900081608093A70857C080912229882311F08E
:1010A00083E042C081E040C087FF42C09091232985
:1010B000809125299817D0F48091A8089091232930
:1010C000E0911229F0911329E90FF11D808380919D
:1010D00023298F5F809323299091252980912329AB
:1010E0008917D8F482E08093A4082DC0809122292A
:1010F000882311F087E001C085E08093A40882E096
:101100008093292910922A2981E090E080931F2959
:10111000909320291092252916C080912229882396
:1011200011F087E001C085E08093A40881E001C050
:1011300086E08093292910922A2981E090E080930B
:101140001F2990932029FF91EF919F918F912F91CB
:101150000F900FBE0F901F901895EFE3F9E21282E7
:10116000138288EE93E0A0E0B0E084839583A683A9
:10117000B7832EEF35E52083318320E238E02487E2
:101180003587168621E0278724E0208B128A138A70
:10119000148A158A2BE1268B178A108EE8EDF9E266
:1011A0001282138284839583A683B78388E196E5B0
:1011B000808391830895CF93DF93CDB7DEB7A19756
:1011C000CDBFDEBF90E088ED84BF9093610080E0EA
:1011D00094E2A4EFB0E08093002890930128A093BC
:1011E0000228B0930328809102068660809302064D
:1011F00080910006816080930006809102068F7CBA
:10120000809302068091A0008F788093A000809147
:1012100002068061809302061092E20581E08093CD
:10122000E40583E08093010A8FEF90E08093260A23
:101230009093270A80E890E08093380A9093390AC7
:1012400080933A0A90933B0A80933C0A90933D0A1C
:101250008BE08093000A8091E50581608093E5052D
:101260008091E50582608093E505E0E8FAE037E0EB
:101270002FEF90E885E031832487958780837096EF
:10128000E03C4AE0F407B9F780E094E08093392924
:1012900090933A298091392990913A292FEF30E0A3
:1012A000B9010E94790A6093372970933829809197
:1012B000392990913A29E8EEF3E0BF010E94790ABA
:1012C00060932F29709330298091392990913A2980
:1012D000BF010E94790A80932D2990932E29209393
:1012E000BC0A3093BD0A8091B50A81608093B50A2B
:1012F00084E08093B00A8091B00A81608093B00A44
:10130000789461E070E08CE10E94820261E070E01C
:101310008CE10E941A0261E070E08DE10E9482027D
:1013200061E070E08DE10E941A0261E070E083E20A
:101330000E94820261E070E083E20E941A0261E092
:1013400070E08EE10E94820261E070E08EE10E9416
:101350001A0261E070E08BE00E94820261E070E0BE
:101360008CE00E94820240E855E260E070E08FE38A
:1013700099E20E946B0661E070E084E00E948202C4
:1013800061E070E089E00E94820261E070E088E044
:101390000E94820261E070E087E00E94820261E0C8
:1013A00070E08EE00E94820261E070E08FE00E94B7
:1013B000820261E070E080E10E94820261E070E000
:1013C00081E10E94820261E070E082E10E9482027B
:1013D00061E070E084E00E941A0261E070E089E060
:1013E0000E941A0260E070E088E00E941A0261E048
:1013F00070E087E00E941A0261E070E080E10E94E4
:101400001A0261E070E081E10E941A028AE0882EEF
:10141000912CA12CB12CC0902B29D0902C290D2CD3
:10142000000CEE08FF08F7FE20C06DE28FE399E2A2
:101430000E94620122273327A9012C193D094E0978
:101440005F0919A2CE0181967C01CA01B901A501EB
:1014500094010E948D0A605DF70162937F0121155E
:1014600031054105510589F715C0A701960119A25B
:10147000CE0181967C01CA01B901A50194010E94A7
:101480008D0A605DF70162937F01211531054105E9
:10149000510589F7C7010E94740642E050E06AE3F3
:1014A00076E58FE399E20E94A70380912B29909122
:1014B0002C29019680932B2990932C2961E070E0D0
:1014C0008BE00E941A0260E070E08CE00E941A0239
:1014D0000E947D0360E070E08BE00E941A0261E0F0
:1014E00070E08CE00E941A020E947D030E94F001CD
:1014F00092CFAA1BBB1B51E107C0AA1FBB1FA61797
:10150000B70710F0A61BB70B881F991F5A95A9F7AC
:1015100080959095BC01CD010895A1E21A2EAA1BD9
:10152000BB1BFD010DC0AA1FBB1FEE1FFF1FA21793
:10153000B307E407F50720F0A21BB30BE40BF50B90
:10154000661F771F881F991F1A9469F76095709519
:10155000809590959B01AC01BD01CF010895052EAA
:1015600097FB1EF400940E94C60A57FD07D00E9404
:101570008D0A07FC03D04EF40C94C60A5095409592
:10158000309521953F4F4F4F5F4F0895909580952F
:10159000709561957F4F8F4F9F4F08950E94E70A86
:1015A000A59F900DB49F900DA49F800D911D1124B7
:1015B0000895B7FF0C94CE0A0E94CE0A821B930BAB
:1015C0000895EE0FFF1F0590F491E02D0994A29F5E
:1015D000B001B39FC001A39F700D811D1124911D07
:1015E000B29F700D811D1124911D089581E090E03E
:0A15F000F8940C94FB0AF894FFCF66
:1015FA00000000006201A703FE00DC00F000BE014B
:10160A006B06BC020A01D103CD0000000000D6041B
:10161A00B104A9049504860485040606C105B40527
:10162A0050051805F904F10427051F055E0459043D
:03163A000D0A0096
:04163D000024F40091
:00000001FF
