:100000000C94A3000C94CB000C94CB000C94CB006C
:100010000C94CB000C94CB000C94CB000C94CB0034
:100020000C94CB000C94CB000C94CB000C94CB0024
:100030000C94CB000C94CB000C94CB000C94CB0014
:100040000C94CB000C94CB000C94CB000C94CB0004
:100050000C94CB000C94CB000C94CB000C94CB00F4
:100060000C94CB000C94CB000C9469050C944305C4
:100070000C94CB000C94CB000C94CB000C94CB00D4
:100080000C94CB000C94CB000C94CB000C94CB00C4
:100090000C94DF040C94CB000C94CB000C94CB009C
:1000A0000000000300010200000101000000000048
:1000B0000000000000000000000000000000000040
:1000C0000000000000000000000504000506020416
:1000D0000103000100010200010203040502030301
:1000E00005040605040607030700010202030001D8
:1000F00007060202000502010500040101040404D0
:1001000003030303030300000200000301010000D6
:100110000102020202050505050305201001204029
:100120000410020801020102040102040810200464
:1001300008082010402010408008800102040408B4
:1001400001028040820711241FBECFEFCDBFDFE345
:10015000DEBF18E2A0E0B8E2E5E8F0E102C00590F9
:100160000D92A430B107D9F728E2A4E0B8E201C0AB
:100170001D92A63BB207E1F710E0C3EAD0E004C04D
:100180002197FE010E940108C23AD107C9F70E94D7
:1001900097050C9426080C940000893208F064C07E
:1001A00090E0FC01E55EFE4F24912F3F09F45CC016
:1001B000FC01E056FF4FA491AA2319F1A13081F070
:1001C00000F1A630F0F430E1A39FD0011124A05A31
:1001D000B54F11963C9111973F7E11963C9311C0FB
:1001E000FC01E753FF4FE4913091010AEC5F41E0DD
:1001F00050E001C0440FEA95EAF74095432340934D
:10020000010AFC01EE50FF4FA49130E2A39FD00100
:100210001124BC5F3C91322379F06115710519F40A
:1002200016962C9308956230710519F417962C9345
:10023000089515962C930895FC01E753FF4F849180
:10024000109731F08F3F21F05096A80FB11D02C0DA
:10025000A0E0B0E09FB7F8948C91672B11F4877FF2
:1002600001C088608C939FBF0895CF93DF9389323C
:1002700098F590E0FC01E55EFE4F24912F3F61F17F
:100280006330710548F5FC01EE50FF4FA49130E258
:10029000A39FD0011124BC5F6130710519F4119640
:1002A0002C931AC0FC01E753FF4F84918F3F29F034
:1002B000ED016096C80FD11D02C0C0E0D0E09FB72D
:1002C000F89412962C9388816230710511F488603D
:1002D00001C0877F88839FBFDF91CF910895CF9220
:1002E000DF92EF92FF920F931F93CF93DF936C01F6
:1002F0007A018B01C0E0D0E0CE15DF0581F0D80196
:100300006D918D01D601ED91FC910190F081E02D70
:10031000C6010995892B11F02196EECF7E01C70108
:10032000DF91CF911F910F91FF90EF90DF90CF90D1
:100330000895FC0154894589252F30E0842F90E0F1
:10034000821B930B541710F0CF96089501970895D0
:10035000FC0192898389981761F08389DF01A80FD6
:10036000B11D59968C9193899F5F9F73938B90E0F9
:1003700008958FEF9FEF0895FC0192898389981764
:1003800031F08389E80FF11D818D90E008958FEFA2
:100390009FEF0895FC0192892389892F90E0805C6A
:1003A0009F4F821B91098F73992708958DE198E2E1
:1003B0000E94CA0121E0892B09F420E0822F0895D0
:1003C000CF93DF93EC01E881F9810284F385E02D7E
:1003D0000995EC85FD8586818F738683EC85FD8587
:1003E00085818F7585838B898A8B198ADF91CF915F
:1003F00008958F929F92AF92BF92EF92FF920F93C8
:100400001F93CF93DF93EC014A015B01E22E8989B0
:10041000882339F0E881F9810088F189E02DCE0147
:10042000099598898091E205892B8093E205FFB6B2
:10043000F8948091002890910128A0910228B09111
:100440000328BC01CD0123E0660F771F881F991F89
:100450002A95D1F7A50194010E94B80749015A01D4
:100460008FEF881A980AA80AB80AB694A7949794A6
:100470008794EC85FD8586818D7F8683EC85FD855F
:1004800086818683198A8E8562E070E00E9435013C
:100490008F8561E070E00E94CD008F8561E070E0A3
:1004A0000E94350180912311E82F880FFF0BDF0197
:1004B000BC5FA50194010E94F9070C851D85AF0161
:1004C000F7FF03C051954195510920E034E0241B0A
:1004D000350B032E000C440B550B0E94DA07F80174
:1004E00020873187EC85FD85E782EC85FD85868157
:1004F000806C8683EC85FD85858180688583FFBE61
:10050000DF91CF911F910F91FF90EF90BF90AF902F
:100510009F908F900895CF93DF93FC0194898589F4
:10052000A485B585981307C015968C9115978F7D76
:1005300015968C932CC08589EF01C80FD11DC75A21
:10054000DF4F2881858990E001968F739927858BED
:1005500080E414968C93A485B58512962C93A4857B
:10056000B58514968C91149785FFFBCF9489858966
:1005700098130DC015968C9115978F7D15968C93B9
:100580008789882321F0808D80931301178ADF915A
:10059000CF910895EF92FF920F931F93CF93DF9324
:1005A000FC0181E0818B94898589981307C0A4851B
:1005B000B58514968C91149785FD2EC080911101FC
:1005C00080FF08C080911301808F8689809313017A
:1005D00081E0878BF62EEF01048910E00F5F1F4F3B
:1005E0000F731127E02E8D89E81209C00FB607FEA0
:1005F00029C0EC85FD85858185FDF5CF23C08C89DB
:10060000FE01E80FF11DE75AFF4FF0820C8BEC85DD
:10061000FD85858180620CC012966C93A485B5859A
:1006200080E414968C930484F585E02D85818F7D7C
:10063000858381E090E0DF91CF911F910F91FF9032
:10064000EF900895CE010E948B02CDCFCF93DF9320
:10065000FC0121892223F9F0EC018091110180FF36
:1006600008C080911301808F86898093130181E0F7
:10067000878BEC85FD85858185FD03C0848186FDA2
:100680000AC00FB607FE03C0858185FDF4CFCE01F9
:100690000E948B02EECFDF91CF91089580E090E031
:1006A000892B41F080E090E0892B21F00E9400002E
:1006B000811115C080E090E0892B21F00E94D601C5
:1006C000811110C080E090E0892B89F080E090E0FB
:1006D000892B69F00E940000811107C008950E94D3
:1006E0000000E8CF0E940000EDCF0C9400000895B8
:1006F00081E00895CF93DF93EC0197FF09C060E09C
:1007000070E084E00E94CD00D195C195D1090AC066
:1007100061E070E084E00E94CD00209719F460E071
:1007200070E080C0C630D1051CF460E070E083C08A
:10073000CB30D1051CF460E070E086C0C031D1053B
:100740001CF460E070E089C0C531D1051CF460E0A4
:1007500070E08CC0C931D1051CF460E070E08FC03E
:10076000CE31D10594F460E070E08EE00E94CD00BF
:1007700060E070E08FE00E94CD0061E070E080E119
:100780000E94CD0061E070E0CDC0C332D1051CF401
:1007900060E070E081C0C732D1056CF460E070E0C9
:1007A0008EE00E94CD0061E070E08FE00E94CD00FD
:1007B00060E070E0B2C0CC32D1051CF460E070E0C3
:1007C00078C0C033D1051CF460E070E080C0C43351
:1007D000D1051CF460E070E088C0C933D10524F471
:1007E00060E070E08EE090C0CD33D10524F460E08D
:1007F00070E08EE0A0C0C034D10544F460E070E049
:100800008EE00E94CD0061E070E0B4CFC434D10529
:1008100024F460E070E08EE09DC061E070E0C834D8
:10082000D10534F48EE00E94CD0060E070E0BDCFD1
:10083000CB34D10534F48EE00E94CD0060E070E04E
:100840003DC0CE34D10534F48EE00E94CD0060E08E
:1008500070E042C0C135D10534F48EE00E94CD0075
:1008600060E070E047C0C435D10534F48EE00E94EA
:10087000CD0060E070E04CC0C735D10534F48EE0A7
:100880000E94CD0060E070E05AC0C935D1050CF47B
:100890006CCFCB35D10534F48EE00E94CD0060E002
:1008A00070E05CC0CD35D1050CF47ACFCF35D105E1
:1008B0005CF48EE00E94CD0061E070E08FE00E9469
:1008C000CD0060E070E040C0C136D1055CF48EE040
:1008D0000E94CD0061E070E08FE00E94CD0060E0FA
:1008E00070E04DCFC136D10559F48EE00E94CD00A5
:1008F00061E070E08FE00E94CD0060E070E033C006
:100900008EE0C236D105A1F40E94CD0061E070E016
:100910008FE00E94CD0061E070E080E10E94CD0098
:1009200060E070E081E10E94CD0060E070E025C0F1
:10093000C336D10579F40E94CD0061E070E08FE00C
:100940000E94CD0061E070E080E10E94CD0060E097
:1009500070E00EC00E94CD0061E070E08FE00E9468
:10096000CD0061E070E080E10E94CD0061E070E0C8
:1009700081E10E94CD0061E070E082E1DF91CF91E2
:100980000C94CD00DC01ED91FC910684F785E02DFF
:1009900023E030E00994009769F0FC010190002009
:1009A000E9F73197AF01481B590BBC018DE198E283
:1009B0000C946F0180E090E008950E9421081F923E
:1009C0000F920FB60F9211242F933F934F935F9383
:1009D0006F937F938F939F93AF93BF934091192809
:1009E00050911A2860911B2870911C28209117287B
:1009F000309118288091152890911628480F591F7A
:100A0000611D711D8091132890911428820F931FEE
:100A1000883E23E0920730F0885E93404F5F5F4F3F
:100A20006F4F7F4F80931728909318284093192871
:100A300050931A2860931B2870931C2880910F28CC
:100A400090911028A0911128B09112280196A11D13
:100A5000B11D80930F2890931028A0931128B09374
:100A6000122881E08093B60ABF91AF919F918F9138
:100A70007F916F915F914F913F912F910F900FBE9A
:100A80000F901F9018951F920F920FB60F9211247E
:100A90002F933F934F935F936F937F938F939F9386
:100AA000AF93BF93EF93FF938DE198E20E948B0287
:100AB000FF91EF91BF91AF919F918F917F916F9136
:100AC0005F914F913F912F910F900FBE0F901F900C
:100AD00018951F920F920FB60F9211242F938F9398
:100AE0009F93EF93FF93E0912928F0912A28818129
:100AF00081FD12C0908180912F288F5F8F7320918C
:100B00003028821751F0E0912F28F0E0E35EF74D96
:100B1000918F80932F2801C08081FF91EF919F9149
:100B20008F912F910F900FBE0F901F901895CF931C
:100B3000DF93CDB7DEB7A197CDBFDEBF90E088EDE4
:100B400084BF9093610080E094E2A4EFB0E08093D2
:100B5000002890930128A0930228B0930328809145
:100B60000206866080930206809100068160809371
:100B70000006809102068F7C809302068091A0007F
:100B80008F788093A0008091020680618093020696
:100B90001092E20581E08093E40583E08093010AEE
:100BA0008FEF90E08093260A9093270A80E890E0E8
:100BB0008093380A9093390A80933A0A90933B0ABB
:100BC00080933C0A90933D0A8BE08093000A8091C9
:100BD000E50581608093E5058091E505826080935D
:100BE000E505E0E8FAE037E02FEF90E885E03183B3
:100BF0002487958780837096E03C4AE0F407B9F734
:100C000080E094E08093062890930728809106283E
:100C1000909107282FEF30E0B9010E94A40760935C
:100C20000428709305288091062890910728E8EE03
:100C3000F3E0BF010E94A407609315287093162863
:100C40008091062890910728BF010E94A4078093F5
:100C50001328909314282093BC0A3093BD0A8091E6
:100C6000B50A81608093B50A84E08093B00A8091D0
:100C7000B00A81608093B00A789461E070E08CE102
:100C80000E94350161E070E08CE10E94CD0061E0DE
:100C900070E08DE10E94350161E070E08DE10E941D
:100CA000CD0061E070E083E20E94350161E070E018
:100CB00083E20E94CD0061E070E08EE10E94350188
:100CC00061E070E08EE10E94CD0061E070E084E0C0
:100CD0000E94350161E070E089E00E94350161E029
:100CE00070E088E00E94350161E070E087E00E94DA
:100CF000350161E070E08EE00E94350161E070E056
:100D00008FE00E94350161E070E080E10E943501D2
:100D100061E070E081E10E94350161E070E082E114
:100D20000E94350160E070E082E00E94350161E0E0
:100D300070E088E00E94CD0061E070E087E00E94F2
:100D4000CD0080910D2890910E280E947A0361E0D9
:100D500070E089E00E94CD0040E855E260E070E07C
:100D60008DE198E20E94C20461E070E08BE00E9495
:100D7000350161E070E08BE00E94CD0011E08AE077
:100D8000882E912CA12CB12C8DE198E20E94CA01F1
:100D9000181619066CF58DE198E20E94A8018137BA
:100DA000910549F480910D2890910E288931910583
:100DB000CCF405960CC08136910571F480910D2814
:100DC00090910E28883EEFEF9E0764F00597809380
:100DD0000D2890930E2806C0809721F410920D28BC
:100DE00010920E2880910D2890910E280E947A036F
:100DF0008FB7F8944091192850911A2860911B28B8
:100E000070911C288FBF8091092890910A28A09189
:100E10000B28B0910C28481B590B6A0B7B0B483CE4
:100E200051056105710508F46AC088539F4FAF4FA3
:100E3000BF4F8093092890930A28A0930B28B09362
:100E40000C288AE690E50E94CB048FE690E50E948C
:100E5000CB04C0900D28D0900E280D2C000CEE086D
:100E6000FF08F7FE20C06DE28DE198E20E94CA0201
:100E700022273327A9012C193D094E095F0919A220
:100E8000CE0181967C01CA01B901A50194010E949D
:100E9000B807605DF70162937F01211531054105B7
:100EA000510589F715C0A701960119A2CE018196B7
:100EB0007C01CA01B901A50194010E94B807605DD7
:100EC000F70162937F01211531054105510589F72D
:100ED000C7010E94CB0483E890E50E94CB04809177
:100EE0000828811105C01093082861E070E004C053
:100EF0001092082860E070E08BE00E94CD000E9414
:100F00004E0342CFEDE1F8E21282138288EE93E0C5
:100F1000A0E0B0E084839583A683B78384E590E561
:100F20008083918380E298E084879587168681E0AC
:100F3000878784E0808B128A138A148A158A8BE152
:100F4000868B178A108E0895AA1BBB1B51E107C020
:100F5000AA1FBB1FA617B70710F0A61BB70B881F49
:100F6000991F5A95A9F780959095BC01CD010895D8
:100F7000A1E21A2EAA1BBB1BFD010DC0AA1FBB1F9D
:100F8000EE1FFF1FA217B307E407F50720F0A21B0F
:100F9000B30BE40BF50B661F771F881F991F1A947C
:100FA00069F760957095809590959B01AC01BD01A6
:100FB000CF010895052E97FB1EF400940E94F107BF
:100FC00057FD07D00E94B80707FC03D04EF40C94DD
:100FD000F10750954095309521953F4F4F4F5F4F0A
:100FE000089590958095709561957F4F8F4F9F4F95
:100FF0000895B7FF0C9407080E940708821B930B03
:101000000895EE0FFF1F0590F491E02D09940E94C2
:101010001208A59F900DB49F900DA49F800D911D67
:1010200011240895A29FB001B39FC001A39F700D2A
:10103000811D1124911DB29F700D811D1124911DE0
:10104000089581E090E0F8940C942608F894FFCF7E
:1010500000000000CA026F01CA01A801BC012603FA
:10106000C204F901E001780399011B5B324A006D6B
:101070006F746F7220706F776572206C6576656C27
:051080003A20000D0004
:041085000024F4004F
:00000001FF
