:100000000C94A3000C94CB000C94CB000C94CB006C
:100010000C94CB000C94CB000C94D5060C94CB0024
:100020000C94CB000C94CB000C94CB000C94CB0024
:100030000C94CB000C94CB000C94CB000C94CB0014
:100040000C94CB000C94CB000C94CB000C94CB0004
:100050000C9466060C94CB000C94CB000C94CB0053
:100060000C948B060C94CB000C9420070C94FA068D
:100070000C94CB000C941C060C94CB000C94CB007D
:100080000C94CB000C94CB000C94B0060C9441065D
:100090000C94B8050C94CB000C94CB000C94CB00C2
:1000A0000000000300010200000101000000000048
:1000B0000000000000000000000000000000000040
:1000C0000000000000000000000504000506020416
:1000D0000103000100010200010203040502030301
:1000E00005040605040607030700010202030001D8
:1000F00007060202000502010500040101040404D0
:1001000003030303030300000200000301010000D6
:100110000102020202050505050305201001204029
:100120000410020801020102040102040810200464
:1001300008082010402010408008800102040408B4
:10014000010280403D0A11241FBECFEFCDBFDFE387
:10015000DEBF18E2A0E0B8E2E1EAFAE102C00590F1
:100160000D92A430B107D9F729E2A4E0B8E201C0AA
:100170001D92AE31B207E1F710E0C3EAD0E004C04F
:100180002197FE010E94F80CC23AD107C9F70E94DC
:100190004E070C941D0D0C940000893258F590E028
:1001A000FC01E056FF4FE491EE2321F1E13021F014
:1001B00008F1E630B0F00895FC01E753FF4F849159
:1001C0004091010A8C5F21E030E0B90102C0660F66
:1001D000771F8A95E2F7CB01809584238093010AEB
:1001E000089570E1E79FF0011124E05AF54F8181F5
:1001F0008F7E81830895FF920F931F93CF93DF9398
:10020000893208F03DC0082F10E0F801E55EFE4F8E
:10021000F4909FEFF916A1F1EB010E94CD00F801D7
:10022000EE50FF4FA49180E2A89FD0011124BC5F43
:100230008C918F2169F0209719F41696FC9220C0BA
:10024000229719F41796FC921BC01596FC9218C0C1
:10025000F801E753FF4FE491109731F0EF3F21F0A1
:100260005096AE0FB11D02C0A0E0B0E09FB7F89469
:100270008C91CD2B11F4877F01C088608C939FBF38
:10028000DF91CF911F910F91FF900895CF93DF934E
:10029000893298F590E0FC01E55EFE4F24912F3FF6
:1002A00061F16330710548F5FC01EE50FF4FA491F8
:1002B00030E2A39FD0011124BC5F6130710519F4B5
:1002C00011962C931AC0FC01E753FF4F84918F3F86
:1002D00029F0ED016096C80FD11D02C0C0E0D0E04A
:1002E0009FB7F89412962C9388816230710511F4AF
:1002F000886001C0877F88839FBFDF91CF91089579
:10030000CF92DF92EF92FF920F931F93CF93DF93E1
:100310006C017A018B01C0E0D0E0CE15DF0581F0E1
:10032000D8016D918D01D601ED91FC910190F08184
:10033000E02DC6010995892B11F02196EECF7E01A3
:10034000C701DF91CF911F910F91FF90EF90DF9048
:10035000CF900895EF92FF920F931F93CF93DF9367
:10036000863030F490E2899FE0011124DC5F02C006
:10037000C0E0D0E0E984182F110F110F110FFF24F6
:10038000F39400E08E2D8F2179F0E12FE00FF0E063
:10039000EE0FFF1FE85FF74D80819181892B21F0DF
:1003A0000190F081E02D09950F5FFF0C083051F7A7
:1003B000E986DF91CF911F910F91FF90EF90089503
:1003C000FC0154894589252F30E0842F90E0821B61
:1003D000930B541710F0CF96089501970895FC01E0
:1003E00092898389981761F08389DF01A80FB11D75
:1003F00059968C9193899F5F9F73938B90E008959A
:100400008FEF9FEF0895FC0192898389981731F04F
:100410008389E80FF11D818D90E008958FEF9FEFA4
:100420000895FC0192892389892F90E0805C9F4F79
:10043000821B91098F739927089585E898E20E949D
:10044000110221E0892B09F420E0822F0895CF9337
:10045000DF93EC01E881F9810284F385E02D0995B1
:10046000EC85FD8586818F738683EC85FD8585818E
:100470008F7585838B898A8B198ADF91CF91089537
:100480008F929F92AF92BF92EF92FF920F931F9322
:10049000CF93DF93EC014A015B01E22E8989882327
:1004A00039F0E881F9810088F189E02DCE010995C4
:1004B00098898091E205892B8093E205FFB6F89434
:1004C0008091002890910128A0910228B0910328E2
:1004D000BC01CD0123E0660F771F881F991F2A9565
:1004E000D1F7A50194010E94AF0C49015A018FEF89
:1004F000881A980AA80AB80AB694A7949794879479
:10050000EC85FD8586818D7F8683EC85FD858681E2
:100510008683198A8E8562E070E00E9446018F858D
:1005200061E070E00E94FB008F8561E070E00E9456
:10053000460180912311E82F880FFF0BDF01BC5F7C
:10054000A50194010E94F00C0C851D85AF01F7FFF9
:1005500003C051954195510920E034E0241B350B2F
:10056000032E000C440B550B0E94D10CF801208780
:100570003187EC85FD85E782EC85FD858681806C81
:100580008683EC85FD85858180688583FFBEDF914C
:10059000CF911F910F91FF90EF90BF90AF909F90E0
:1005A0008F900895CF93DF93FC0194898589A4856A
:1005B000B585981307C015968C9115978F7D159664
:1005C0008C932CC08589EF01C80FD11DC75ADF4F0E
:1005D0002881858990E001968F739927858B80E427
:1005E00014968C93A485B58512962C93A485B58515
:1005F00014968C91149785FFFBCF94898589981365
:100600000DC015968C9115978F7D15968C938789C3
:10061000882321F0808D80931301178ADF91CF9179
:100620000895EF92FF920F931F93CF93DF93FC01F6
:1006300081E0818B94898589981307C0A485B5854D
:1006400014968C91149785FD2EC08091110180FF26
:1006500008C080911301808F86898093130181E007
:10066000878BF62EEF01048910E00F5F1F4F0F7389
:100670001127E02E8D89E81209C00FB607FE29C0A8
:10068000EC85FD85858185FDF5CF23C08C89FE0134
:10069000E80FF11DE75AFF4FF0820C8BEC85FD85CA
:1006A000858180620CC012966C93A485B58580E428
:1006B00014968C930484F585E02D85818F7D858348
:1006C00081E090E0DF91CF911F910F91FF90EF902B
:1006D0000895CE010E94D202CDCFCF93DF93FC01CB
:1006E00021892223F9F0EC018091110180FF08C0DB
:1006F00080911301808F86898093130181E0878B1D
:10070000EC85FD85858185FD03C0848186FD0AC059
:100710000FB607FE03C0858185FDF4CFCE010E9490
:10072000D202EECFDF91CF91089580E090E0892B47
:1007300041F080E090E0892B21F00E9400008111BF
:1007400015C080E090E0892B21F00E941D028111EC
:1007500010C080E090E0892B89F080E090E0892B48
:1007600069F00E940000811107C008950E940000F6
:10077000E8CF0E940000EDCF0C940000089581E0C6
:100780000895CF93DF93EC0197FF09C060E070E01C
:1007900084E00E94FB00D195C195D1090AC061E0B7
:1007A00070E084E00E94FB00209719F460E070E0A4
:1007B00080C0C630D1051CF460E070E083C0CB304F
:1007C000D1051CF460E070E086C0C031D1051CF496
:1007D00060E070E089C0C531D1051CF460E070E0D4
:1007E0008CC0C931D1051CF460E070E08FC0CE31FF
:1007F000D10594F460E070E08EE00E94FB0060E0C0
:1008000070E08FE00E94FB0061E070E080E10E94F8
:10081000FB0061E070E0CDC0C332D1051CF460E0A4
:1008200070E081C0C732D1056CF460E070E08EE00A
:100830000E94FB0061E070E08FE00E94FB0060E03E
:1008400070E0B2C0CC32D1051CF460E070E078C03A
:10085000C033D1051CF460E070E080C0C433D10522
:100860001CF460E070E088C0C933D10524F460E076
:1008700070E08EE090C0CD33D10524F460E070E0EC
:100880008EE0A0C0C034D10544F460E070E08EE09A
:100890000E94FB0061E070E0B4CFC434D10524F4C1
:1008A00060E070E08EE09DC061E070E0C834D1058A
:1008B00034F48EE00E94FB0060E070E0BDCFCB34EA
:1008C000D10534F48EE00E94FB0060E070E03DC092
:1008D000CE34D10534F48EE00E94FB0060E070E07D
:1008E00042C0C135D10534F48EE00E94FB0060E0C7
:1008F00070E047C0C435D10534F48EE00E94FB009F
:1009000060E070E04CC0C735D10534F48EE00E9441
:10091000FB0060E070E05AC0C935D1050CF46CCF23
:10092000CB35D10534F48EE00E94FB0060E070E02E
:100930005CC0CD35D1050CF47ACFCF35D1055CF450
:100940008EE00E94FB0061E070E08FE00E94FB00FF
:1009500060E070E040C0C136D1055CF48EE00E94DA
:10096000FB0061E070E08FE00E94FB0060E070E05F
:100970004DCFC136D10559F48EE00E94FB0061E0F5
:1009800070E08FE00E94FB0060E070E033C08EE01A
:10099000C236D105A1F40E94FB0061E070E08FE057
:1009A0000E94FB0061E070E080E10E94FB0060E0DB
:1009B00070E081E10E94FB0060E070E025C0C3367A
:1009C000D10579F40E94FB0061E070E08FE00E94A5
:1009D000FB0061E070E080E10E94FB0060E070E0FD
:1009E0000EC00E94FB0061E070E08FE00E94FB00FF
:1009F00061E070E080E10E94FB0061E070E081E175
:100A00000E94FB0061E070E082E1DF91CF910C94E5
:100A1000FB00CF93E5E2F1E0C491CF3F79F08AE0AB
:100A20000E94CD00ECEFF0E0A49180E2A89FD001FD
:100A30001124BC5F1896EC91EC2361F480916D2831
:100A400090916E28A0916F28B09170280197A1090C
:100A5000B1090BC080916D2890916E28A0916F28EC
:100A6000B09170280196A11DB11D80936D289093BF
:100A70006E28A0936F28B0937028CF910895DC0161
:100A8000ED91FC910684F785E02D23E030E0099498
:100A9000009769F0FC0101900020E9F73197AF0160
:100AA000481B590BBC0185E898E20C94800180E05A
:100AB00090E008958F929F92AF92BF920F931F93F1
:100AC000CF93DF93CDB7DEB7A197CDBFDEBF19A21D
:100AD000423008F44AE08E010F5D1F4F842E912CA6
:100AE000A12CB12CA50194010E94AF0CE62FB901F5
:100AF000CA0101501109EA3014F4E05D01C0E95C5B
:100B0000D801EC93232B242B252B61F7C8010E94DD
:100B10004805A196CDBFDEBFDF91CF911F910F9108
:100B2000BF90AF909F908F900895CF92DF92EF92F9
:100B3000FF92CF93DF936B017C016DE285E898E231
:100B40000E941103EC0166277727CB016C197D0900
:100B50008E099F094AE00E945A058C0F9D1FDF9164
:100B6000CF91FF90EF90DF90CF9008950E94180DE5
:100B70001F920F920FB60F9211242F933F934F9312
:100B80005F936F937F938F939F93AF93BF934091A6
:100B90008128509182286091832870918428209127
:100BA0007F283091802880917D2890917E28480F61
:100BB000591F611D711D80917B2890917C28820FA7
:100BC000931F883E23E0920730F0885E93404F5F8A
:100BD0005F4F6F4F7F4F80937F2890938028409383
:100BE0008128509382286093832870938428809171
:100BF000772890917828A0917928B0917A28019649
:100C0000A11DB11D8093772890937828A09379280F
:100C1000B0937A2881E08093B60ABF91AF919F91FB
:100C20008F917F916F915F914F913F912F910F9095
:100C30000FBE0F901F9018951F920F920FB60F9234
:100C400011242F933F934F935F936F937F938F93D1
:100C50009F93AF93BF93EF93FF9385E00E94AA0108
:100C6000FF91EF91BF91AF919F918F917F916F9184
:100C70005F914F913F912F910F900FBE0F901F905A
:100C800018951F920F920FB60F9211242F933F9336
:100C90004F935F936F937F938F939F93AF93BF9384
:100CA000EF93FF9384E00E94AA01FF91EF91BF911F
:100CB000AF919F918F917F916F915F914F913F91F4
:100CC0002F910F900FBE0F901F9018951F920F92AB
:100CD0000FB60F9211242F933F934F935F936F930F
:100CE0007F938F939F93AF93BF93EF93FF9383E093
:100CF0000E94AA01FF91EF91BF91AF919F918F91B7
:100D00007F916F915F914F913F912F910F900FBE07
:100D10000F901F9018951F920F920FB60F921124EB
:100D20002F933F934F935F936F937F938F939F93F3
:100D3000AF93BF93EF93FF9382E00E94AA01FF91CC
:100D4000EF91BF91AF919F918F917F916F915F9143
:100D50004F913F912F910F900FBE0F901F901895BC
:100D60001F920F920FB60F9211242F933F934F9320
:100D70005F936F937F938F939F93AF93BF93EF9303
:100D8000FF9381E00E94AA01FF91EF91BF91AF9183
:100D90009F918F917F916F915F914F913F912F9193
:100DA0000F900FBE0F901F9018951F920F920FB6C5
:100DB0000F9211242F933F934F935F936F937F93E1
:100DC0008F939F93AF93BF93EF93FF9380E00E9425
:100DD000AA01FF91EF91BF91AF919F918F917F9168
:100DE0006F915F914F913F912F910F900FBE0F9098
:100DF0001F9018951F920F920FB60F9211242F93E8
:100E00003F934F935F936F937F938F939F93AF9392
:100E1000BF93EF93FF9385E898E20E94D202FF917F
:100E2000EF91BF91AF919F918F917F916F915F9162
:100E30004F913F912F910F900FBE0F901F901895DB
:100E40001F920F920FB60F9211242F938F939F939F
:100E5000EF93FF93E0919128F0919228818181FD99
:100E600012C09081809197288F5F8F73209198286E
:100E7000821751F0E0919728F0E0EB57F74D918FF2
:100E80008093972801C08081FF91EF919F918F916E
:100E90002F910F900FBE0F901F90189590E088ED46
:100EA00084BF9093610080E094E2A4EFB0E080936F
:100EB000002890930128A0930228B09303288091E2
:100EC000020686608093020680910006816080930E
:100ED0000006809102068F7C809302068091A0001C
:100EE0008F788093A0008091020680618093020633
:100EF0001092E20581E08093E40583E08093010A8B
:100F00008FEF90E08093260A9093270A80E890E084
:100F10008093380A9093390A80933A0A90933B0A57
:100F200080933C0A90933D0A8BE08093000A809165
:100F3000E50581608093E5058091E50582608093F9
:100F4000E505E0E8FAE037E02FEF90E885E031834F
:100F50002487958780837096E03C4AE0F407B9F7D0
:100F600080E094E0809306289093072880910628DB
:100F7000909107282FEF30E0B9010E949B0C6093FD
:100F80000428709305288091062890910728E8EEA0
:100F9000F3E0BF010E949B0C60937D2870937E2834
:100FA0008091062890910728BF010E949B0C809396
:100FB0007B2890937C282093BC0A3093BD0A8091B3
:100FC000B50A81608093B50A84E08093B00A80916D
:100FD000B00A81608093B00A789461E070E08CE19F
:100FE0000E94460161E070E08CE10E94FB0061E03C
:100FF00070E08DE10E94460161E070E08DE10E94A9
:10100000FB0061E070E083E20E94460161E070E075
:1010100083E20E94FB0061E070E08EE10E944601E5
:1010200061E070E08EE10E94FB0061E070E084E02E
:101030000E94460161E070E089E00E94460161E0A3
:1010400070E088E00E94460161E070E087E00E9465
:10105000460161E070E08EE00E94460161E070E0D0
:101060008FE00E94460161E070E080E10E9446014D
:1010700061E070E081E10E94460161E070E082E1A0
:101080000E94460160E070E082E00E94460160E05C
:1010900070E088E00E94FB0061E070E087E00E9461
:1010A000FB0080917528909176280E94C10361E031
:1010B00070E089E00E94FB0040E052EC61E070E0EB
:1010C00085E898E20E943F0561E070E08BE00E94B5
:1010D000460161E070E08BE00E94FB0060E070E0A0
:1010E00085E00E94460160E070E08AE00E944601CF
:1010F000EEECF0E084918F3F11F1E7EFF0E0949196
:10110000A82F28E0929FA00D1124A033C0F4B0E0D6
:10111000AA0FBB1FA85FB74D29E035E02D933C9384
:10112000E49140E2E49FF0011124FC5F7096E80F27
:10113000F11D8081887F808380818260808310920E
:101140006D2810926E2810926F2810927028C1E0BE
:1011500085E898E20E941102181619066CF585E8D8
:1011600098E20E94EF018137910549F4809175283A
:10117000909176288B349105CCF405960CC081367D
:10118000910571F48091752890917628863B2FEF18
:10119000920764F00597809375289093762806C08F
:1011A000809721F4109275281092762880917528E6
:1011B000909176280E94C1038FB7F89440918128BE
:1011C0005091822860918328709184288FBF8091EC
:1011D000712890917228A0917328B0917428481BAF
:1011E000590B6A0B7B0B483C51056105710508F4EE
:1011F00041C188539F4FAF4FBF4F80937128909349
:101200007228A0937328B093742860916D28709110
:101210006E2880916F28909170280E94740B6B014A
:101220007C016091692870916A2880916B28909167
:101230006C280E94740B9B01AC01C701B6010E948F
:101240005F0A20E030E040EF53E40E94D10A20E042
:1012500030E048E453E40E94D10A20E030E04AE75D
:1012600054E40E94290C20E030E040E752E40E9460
:10127000290C6B017C0180916D2890916E28A091C2
:101280006F28B09170288093692890936A28A09362
:101290006B28B0936C2888E59AE50E9448058DE597
:1012A0009AE50E9448056091752870917628072E6E
:1012B000000C880B990B97FF03C00E94950503C093
:1012C0004AE00E945A0581E79AE50E94480584E7B2
:1012D0009AE50E94480560916D2870916E28809172
:1012E0006F289091702897FF03C00E94950503C056
:1012F0004AE00E945A0581E79AE50E94480585E880
:101300009AE50E944805A7019601C701B6010E940F
:10131000960C882319F083E99AE51AC04601570113
:10132000E894B7F82FEF3FEF4FE75FE7C501B4014F
:101330000E94960C81110FC02FEF3FEF4FE75FE740
:10134000C501B4010E94CC0A18162CF487E99AE56D
:101350000E94480575C02FEF3FEF4FE75FE4C701DC
:10136000B6010E94240C18161CF48BE99AE5F0CF04
:101370002FEF3FEF4FE75FECC701B6010E94CC0AA9
:1013800087FDF3CF20E030E0A901C701B6010E943C
:10139000CC0A87FF09C06DE285E898E20E9411033C
:1013A000F7FAF094F7F8F0942AE037ED43EA5BE3BC
:1013B000C701B6010E94600A4B015C010E94430B09
:1013C0006B017C010E94720B9B01AC01C501B40151
:1013D0000E945F0A4B015C014AE0C701B6010E940E
:1013E0005A058FE99AE50E94480520E030E040E286
:1013F00051E4C501B4010E94290C4B015C010E941B
:10140000430B6B01E12CF12C4AE0C701B6010E94AD
:101410005A05C701B6010E94720B9B01AC01C501C0
:10142000B4010E945F0A20E030E040E251E40E94F3
:10143000290C0E94430B80E090E04AE00E945A058C
:1014400081E79AE50E944805809175289091762859
:101450000E94C10380916828811105C0C09368284B
:1014600061E070E004C01092682860E070E08BE0FA
:101470000E94FB000E9495036BCEE5E8F8E2128221
:10148000138288EE93E0A0E0B0E084839583A68386
:10149000B78382E49AE58083918380E298E0848731
:1014A0009587168681E0878784E0808B128A138A6D
:1014B000148A158A8BE1868B178A108E08955058EE
:1014C000BB27AA270E94770A0C94EA0B0E94DC0B28
:1014D00038F00E94E30B20F039F49F3F19F426F412
:1014E0000C94D90B0EF4E095E7FB0C94D30BE92F89
:1014F0000E94FB0B58F3BA1762077307840795071E
:1015000020F079F4A6F50C941D0C0EF4E0950B2E4A
:10151000BA2FA02D0B01B90190010C01CA01A00145
:101520001124FF27591B99F0593F50F4503E68F1A0
:101530001A16F040A22F232F342F4427585FF3CFE1
:10154000469537952795A795F0405395C9F77EF4B2
:101550001F16BA0B620B730B840BBAF09150A1F0FB
:10156000FF0FBB1F661F771F881FC2F70EC0BA0F81
:10157000621F731F841F48F4879577956795B79509
:10158000F7959E3F08F0B0CF9395880F08F0992704
:10159000EE0F9795879508950E94AF0B08F481E0B0
:1015A00008950E94E50A0C94EA0B0E94E30B58F0A0
:1015B0000E94DC0B40F029F45F3F29F00C94D30B20
:1015C00051110C941E0C0C94D90B0E94FB0B68F368
:1015D0009923B1F3552391F3951B550BBB27AA27EC
:1015E00062177307840738F09F5F5F4F220F331F26
:1015F000441FAA1FA9F335D00E2E3AF0E0E832D0EE
:1016000091505040E695001CCAF72BD0FE2F29D0F0
:10161000660F771F881FBB1F261737074807AB07C2
:10162000B0E809F0BB0B802DBF01FF2793585F4F37
:101630003AF09E3F510578F00C94D30B0C941E0C9D
:101640005F3FE4F3983ED4F3869577956795B79519
:10165000F7959F5FC9F7880F911D9695879597F924
:101660000895E1E0660F771F881FBB1F621773079D
:101670008407BA0720F0621B730B840BBA0BEE1FB2
:1016800088F7E09508950E94030C88F09F5798F022
:10169000B92F9927B751B0F0E1F0660F771F881F77
:1016A000991F1AF0BA95C9F714C0B13091F00E9491
:1016B0001D0CB1E008950C941D0C672F782F88271E
:1016C000B85F39F0B93FCCF3869577956795B395B8
:1016D000D9F73EF490958095709561957F4F8F4F27
:1016E0009F4F0895E89409C097FB3EF4909580952C
:1016F000709561957F4F8F4F9F4F9923A9F0F92FD8
:1017000096E9BB279395F695879577956795B79555
:10171000F111F8CFFAF4BB0F11F460FF1BC06F5F3B
:101720007F4F8F4F9F4F16C0882311F096E911C04D
:10173000772321F09EE8872F762F05C0662371F06E
:1017400096E8862F70E060E02AF09A95660F771F82
:10175000881FDAF7880F9695879597F90895990F5E
:101760000008550FAA0BE0E8FEEF16161706E8076B
:10177000F907C0F012161306E407F50798F0621B8C
:10178000730B840B950B39F40A2661F0232B242B61
:10179000252B21F408950A2609F4A140A6958FEF80
:1017A000811D811D089597F99F6780E870E060E0D2
:1017B00008959FEF80EC089500240A9416161706EA
:1017C00018060906089500240A9412161306140632
:1017D00005060895092E0394000C11F4882352F095
:1017E000BB0F40F4BF2B11F460FF04C06F5F7F4F4D
:1017F0008F4F9F4F089557FD9058440F551F59F034
:101800005F3F71F04795880F97FB991F61F09F3FED
:1018100079F087950895121613061406551FF2CF16
:101820004695F1DF08C0161617061806991FF1CF66
:1018300086957105610508940895E894BB2766278D
:101840007727CB0197F908950E94AF0B08F48FEF2B
:1018500008950E943C0C0C94EA0B0E94DC0B38F0BB
:101860000E94E30B20F0952311F00C94D30B0C9401
:10187000D90B11240C941E0C0E94FB0B70F3959F46
:10188000C1F3950F50E0551F629FF001729FBB2777
:10189000F00DB11D639FAA27F00DB11DAA1F649F13
:1018A0006627B00DA11D661F829F2227B00DA11DC6
:1018B000621F739FB00DA11D621F839FA00D611D4C
:1018C000221F749F3327A00D611D231F849F600D6D
:1018D000211D822F762F6A2F11249F5750409AF096
:1018E000F1F088234AF0EE0FFF1FBB1F661F771F22
:1018F000881F91505040A9F79E3F510580F00C94ED
:10190000D30B0C941E0C5F3FE4F3983ED4F3869502
:1019100077956795B795F795E7959F5FC1F7FE2B8C
:10192000880F911D9695879597F908950E94AF0BA2
:10193000880B990B0895AA1BBB1B51E107C0AA1F76
:10194000BB1FA617B70710F0A61BB70B881F991F60
:101950005A95A9F780959095BC01CD010895A1E213
:101960001A2EAA1BBB1BFD010DC0AA1FBB1FEE1F19
:10197000FF1FA217B307E407F50720F0A21BB30B64
:10198000E40BF50B661F771F881F991F1A9469F7E0
:1019900060957095809590959B01AC01BD01CF013C
:1019A0000895052E97FB1EF400940E94E80C57FD45
:1019B00007D00E94AF0C07FC03D04EF40C94E80C47
:1019C00050954095309521953F4F4F4F5F4F08956B
:1019D00090958095709561957F4F8F4F9F4F08959B
:1019E000B7FF0C94FE0C0E94FE0C821B930B089513
:1019F000EE0FFF1F0590F491E02D09940E94090D50
:101A0000A59F900DB49F900DA49F800D911D112452
:101A10000895A29FB001B39FC001A39F700D811DC7
:101A20001124911DB29F700D811D1124911D0895E7
:0E1A300081E090E0F8940C941D0DF894FFCF27
:101A3E0000000000110380011102EF0103026D038B
:101A4E003F0540022702BF03E0011B5B324A006DD7
:101A5E006F746F7220706F776572206C6576656C2F
:101A6E003A20000D0A006D6F746F7220706F7369EB
:101A7E0074696F6E3A20006D6F746F7220737065AB
:101A8E0065643A20006E616E00696E66006F766660
:031A9E00002E0017
:041AA1000024F40029
:00000001FF
